{
  "contractName": "Campaign",
  "abi": [
    {
      "inputs": [
        {
          "internalType": "address",
          "name": "initiator",
          "type": "address"
        },
        {
          "internalType": "address",
          "name": "treasury",
          "type": "address"
        },
        {
          "internalType": "string",
          "name": "category",
          "type": "string"
        },
        {
          "internalType": "string",
          "name": "protocolName",
          "type": "string"
        },
        {
          "internalType": "uint256",
          "name": "initialAdSpend",
          "type": "uint256"
        },
        {
          "internalType": "string",
          "name": "campaignTitleParam",
          "type": "string"
        },
        {
          "internalType": "string",
          "name": "campaignContentParam",
          "type": "string"
        }
      ],
      "stateMutability": "nonpayable",
      "type": "constructor"
    },
    {
      "inputs": [],
      "name": "baseAdSpend",
      "outputs": [
        {
          "internalType": "uint256",
          "name": "",
          "type": "uint256"
        }
      ],
      "stateMutability": "view",
      "type": "function"
    },
    {
      "inputs": [],
      "name": "campaignContent",
      "outputs": [
        {
          "internalType": "string",
          "name": "",
          "type": "string"
        }
      ],
      "stateMutability": "view",
      "type": "function"
    },
    {
      "inputs": [],
      "name": "campaignTitle",
      "outputs": [
        {
          "internalType": "string",
          "name": "",
          "type": "string"
        }
      ],
      "stateMutability": "view",
      "type": "function"
    },
    {
      "inputs": [],
      "name": "cumulativeAdQueued",
      "outputs": [
        {
          "internalType": "uint256",
          "name": "",
          "type": "uint256"
        }
      ],
      "stateMutability": "view",
      "type": "function"
    },
    {
      "inputs": [],
      "name": "cumulativeAdViews",
      "outputs": [
        {
          "internalType": "uint256",
          "name": "",
          "type": "uint256"
        }
      ],
      "stateMutability": "view",
      "type": "function"
    },
    {
      "inputs": [],
      "name": "incCumulativeAdViews",
      "outputs": [],
      "stateMutability": "nonpayable",
      "type": "function"
    },
    {
      "inputs": [],
      "name": "incCumulativeAdQueued",
      "outputs": [],
      "stateMutability": "nonpayable",
      "type": "function"
    },
    {
      "inputs": [],
      "name": "remainingAvailableAdSpend",
      "outputs": [
        {
          "internalType": "uint256",
          "name": "",
          "type": "uint256"
        }
      ],
      "stateMutability": "view",
      "type": "function"
    },
    {
      "inputs": [
        {
          "internalType": "uint256",
          "name": "amount",
          "type": "uint256"
        }
      ],
      "name": "withdrawSpend",
      "outputs": [],
      "stateMutability": "nonpayable",
      "type": "function"
    },
    {
      "inputs": [
        {
          "internalType": "uint256",
          "name": "amount",
          "type": "uint256"
        },
        {
          "internalType": "address",
          "name": "initiator",
          "type": "address"
        }
      ],
      "name": "depositSpend",
      "outputs": [],
      "stateMutability": "nonpayable",
      "type": "function"
    }
  ],
  "bytecode": "0x608060405260008060006101000a81548160ff021916908315150217905550600060025560006003553480156200003557600080fd5b506040516200138d3803806200138d83398181016040528101906200005b91906200053d565b85600560006101000a81548173ffffffffffffffffffffffffffffffffffffffff021916908373ffffffffffffffffffffffffffffffffffffffff160217905550604051602001620000ad90620006c7565b6040516020818303038152906040528051906020012085604051602001620000d6919062000720565b604051602081830303815290604052805190602001201462000105576200010483886200019e60201b60201c565b5b33600460006101000a81548173ffffffffffffffffffffffffffffffffffffffff021916908373ffffffffffffffffffffffffffffffffffffffff16021790555081600790805190602001906200015e92919062000250565b5080600890805190602001906200017792919062000250565b5084600690805190602001906200019092919062000250565b505050505050505062000879565b8160016000828254620001b2919062000768565b92505081905550600560009054906101000a900473ffffffffffffffffffffffffffffffffffffffff1673ffffffffffffffffffffffffffffffffffffffff16633dd21e2883836040518363ffffffff1660e01b815260040162000218929190620007e7565b600060405180830381600087803b1580156200023357600080fd5b505af115801562000248573d6000803e3d6000fd5b505050505050565b8280546200025e9062000843565b90600052602060002090601f016020900481019282620002825760008555620002ce565b82601f106200029d57805160ff1916838001178555620002ce565b82800160010185558215620002ce579182015b82811115620002cd578251825591602001919060010190620002b0565b5b509050620002dd9190620002e1565b5090565b5b80821115620002fc576000816000905550600101620002e2565b5090565b6000604051905090565b600080fd5b600080fd5b600073ffffffffffffffffffffffffffffffffffffffff82169050919050565b6000620003418262000314565b9050919050565b620003538162000334565b81146200035f57600080fd5b50565b600081519050620003738162000348565b92915050565b600080fd5b600080fd5b6000601f19601f8301169050919050565b7f4e487b7100000000000000000000000000000000000000000000000000000000600052604160045260246000fd5b620003ce8262000383565b810181811067ffffffffffffffff82111715620003f057620003ef62000394565b5b80604052505050565b60006200040562000300565b9050620004138282620003c3565b919050565b600067ffffffffffffffff82111562000436576200043562000394565b5b620004418262000383565b9050602081019050919050565b60005b838110156200046e57808201518184015260208101905062000451565b838111156200047e576000848401525b50505050565b60006200049b620004958462000418565b620003f9565b905082815260208101848484011115620004ba57620004b96200037e565b5b620004c78482856200044e565b509392505050565b600082601f830112620004e757620004e662000379565b5b8151620004f984826020860162000484565b91505092915050565b6000819050919050565b620005178162000502565b81146200052357600080fd5b50565b60008151905062000537816200050c565b92915050565b600080600080600080600060e0888a0312156200055f576200055e6200030a565b5b60006200056f8a828b0162000362565b9750506020620005828a828b0162000362565b965050604088015167ffffffffffffffff811115620005a657620005a56200030f565b5b620005b48a828b01620004cf565b955050606088015167ffffffffffffffff811115620005d857620005d76200030f565b5b620005e68a828b01620004cf565b9450506080620005f98a828b0162000526565b93505060a088015167ffffffffffffffff8111156200061d576200061c6200030f565b5b6200062b8a828b01620004cf565b92505060c088015167ffffffffffffffff8111156200064f576200064e6200030f565b5b6200065d8a828b01620004cf565b91505092959891949750929550565b600081905092915050565b7f66616c6c6261636b000000000000000000000000000000000000000000000000600082015250565b6000620006af6008836200066c565b9150620006bc8262000677565b600882019050919050565b6000620006d482620006a0565b9150819050919050565b600081519050919050565b6000620006f682620006de565b6200070281856200066c565b9350620007148185602086016200044e565b80840191505092915050565b60006200072e8284620006e9565b915081905092915050565b7f4e487b7100000000000000000000000000000000000000000000000000000000600052601160045260246000fd5b6000620007758262000502565b9150620007828362000502565b9250827fffffffffffffffffffffffffffffffffffffffffffffffffffffffffffffffff03821115620007ba57620007b962000739565b5b828201905092915050565b620007d08162000502565b82525050565b620007e18162000334565b82525050565b6000604082019050620007fe6000830185620007c5565b6200080d6020830184620007d6565b9392505050565b7f4e487b7100000000000000000000000000000000000000000000000000000000600052602260045260246000fd5b600060028204905060018216806200085c57607f821691505b6020821081141562000873576200087262000814565b5b50919050565b610b0480620008896000396000f3fe608060405234801561001057600080fd5b506004361061009e5760003560e01c8063835a617211610066578063835a61721461010f578063a4a484491461012d578063b2f2224c14610149578063ca83474014610167578063dfff0b20146101855761009e565b8063209077cc146100a35780633869625b146100ad5780633dd21e28146100b75780636726582d146100d35780636be5fa86146100f1575b600080fd5b6100ab6101a3565b005b6100b56101bf565b005b6100d160048036038101906100cc91906106d3565b6101db565b005b6100db610287565b6040516100e89190610722565b60405180910390f35b6100f9610333565b6040516101069190610722565b60405180910390f35b610117610339565b60405161012491906107d6565b60405180910390f35b610147600480360381019061014291906107f8565b6103c7565b005b6101516105a0565b60405161015e9190610722565b60405180910390f35b61016f6105a6565b60405161017c9190610722565b60405180910390f35b61018d6105ac565b60405161019a91906107d6565b60405180910390f35b6001600360008282546101b69190610854565b92505081905550565b6001600260008282546101d29190610854565b92505081905550565b81600160008282546101ed9190610854565b92505081905550600560009054906101000a900473ffffffffffffffffffffffffffffffffffffffff1673ffffffffffffffffffffffffffffffffffffffff16633dd21e2883836040518363ffffffff1660e01b81526004016102519291906108b9565b600060405180830381600087803b15801561026b57600080fd5b505af115801561027f573d6000803e3d6000fd5b505050505050565b600080600560009054906101000a900473ffffffffffffffffffffffffffffffffffffffff1690508073ffffffffffffffffffffffffffffffffffffffff1663e8b291c66040518163ffffffff1660e01b815260040160206040518083038186803b1580156102f557600080fd5b505afa158015610309573d6000803e3d6000fd5b505050506040513d601f19601f8201168201806040525081019061032d91906108f7565b91505090565b60035481565b6007805461034690610953565b80601f016020809104026020016040519081016040528092919081815260200182805461037290610953565b80156103bf5780601f10610394576101008083540402835291602001916103bf565b820191906000526020600020905b8154815290600101906020018083116103a257829003601f168201915b505050505081565b600560009054906101000a900473ffffffffffffffffffffffffffffffffffffffff1673ffffffffffffffffffffffffffffffffffffffff1663ca174a55306040518263ffffffff1660e01b81526004016104229190610985565b60206040518083038186803b15801561043a57600080fd5b505afa15801561044e573d6000803e3d6000fd5b505050506040513d601f19601f8201168201806040525081019061047291906109b5565b73ffffffffffffffffffffffffffffffffffffffff163373ffffffffffffffffffffffffffffffffffffffff16146104df576040517f08c379a00000000000000000000000000000000000000000000000000000000081526004016104d690610a7a565b60405180910390fd5b6001548110156105075780600160008282546104fb9190610a9a565b92505081905550610510565b60006001819055505b600560009054906101000a900473ffffffffffffffffffffffffffffffffffffffff1673ffffffffffffffffffffffffffffffffffffffff16631d7eb493826040518263ffffffff1660e01b815260040161056b9190610722565b600060405180830381600087803b15801561058557600080fd5b505af1158015610599573d6000803e3d6000fd5b5050505050565b60015481565b60025481565b600880546105b990610953565b80601f01602080910402602001604051908101604052809291908181526020018280546105e590610953565b80156106325780601f1061060757610100808354040283529160200191610632565b820191906000526020600020905b81548152906001019060200180831161061557829003601f168201915b505050505081565b600080fd5b6000819050919050565b6106528161063f565b811461065d57600080fd5b50565b60008135905061066f81610649565b92915050565b600073ffffffffffffffffffffffffffffffffffffffff82169050919050565b60006106a082610675565b9050919050565b6106b081610695565b81146106bb57600080fd5b50565b6000813590506106cd816106a7565b92915050565b600080604083850312156106ea576106e961063a565b5b60006106f885828601610660565b9250506020610709858286016106be565b9150509250929050565b61071c8161063f565b82525050565b60006020820190506107376000830184610713565b92915050565b600081519050919050565b600082825260208201905092915050565b60005b8381101561077757808201518184015260208101905061075c565b83811115610786576000848401525b50505050565b6000601f19601f8301169050919050565b60006107a88261073d565b6107b28185610748565b93506107c2818560208601610759565b6107cb8161078c565b840191505092915050565b600060208201905081810360008301526107f0818461079d565b905092915050565b60006020828403121561080e5761080d61063a565b5b600061081c84828501610660565b91505092915050565b7f4e487b7100000000000000000000000000000000000000000000000000000000600052601160045260246000fd5b600061085f8261063f565b915061086a8361063f565b9250827fffffffffffffffffffffffffffffffffffffffffffffffffffffffffffffffff0382111561089f5761089e610825565b5b828201905092915050565b6108b381610695565b82525050565b60006040820190506108ce6000830185610713565b6108db60208301846108aa565b9392505050565b6000815190506108f181610649565b92915050565b60006020828403121561090d5761090c61063a565b5b600061091b848285016108e2565b91505092915050565b7f4e487b7100000000000000000000000000000000000000000000000000000000600052602260045260246000fd5b6000600282049050600182168061096b57607f821691505b6020821081141561097f5761097e610924565b5b50919050565b600060208201905061099a60008301846108aa565b92915050565b6000815190506109af816106a7565b92915050565b6000602082840312156109cb576109ca61063a565b5b60006109d9848285016109a0565b91505092915050565b7f43616d706169676e2066756e642077697468647261772063616e206f6e6c792060008201527f626520696e6974696174656420627920617070726f7665642063616d7061696760208201527f6e20776974686472617720616464726573732e00000000000000000000000000604082015250565b6000610a64605383610748565b9150610a6f826109e2565b606082019050919050565b60006020820190508181036000830152610a9381610a57565b9050919050565b6000610aa58261063f565b9150610ab08361063f565b925082821015610ac357610ac2610825565b5b82820390509291505056fea2646970667358221220f636da7dee25735793cff766a94b7a2ef5ac1171cae8f5f74823bc06daeef5fb64736f6c63430008090033",
  "immutableReferences": {},
  "source": "pragma solidity ^0.8.0;\n\nimport \"@openzeppelin/contracts/token/ERC20/IERC20.sol\";\nimport \"./Factory.sol\";\nimport \"./Treasury.sol\";\n\n/// @title Campaign\n/// @author Michael Manzano\n/// @notice This contract is ad campaign contract logic\ncontract Campaign {\n\n    bool enabled = false;\n    uint public baseAdSpend;\n    uint public cumulativeAdViews = 0;\n    uint public cumulativeAdQueued = 0;\n    address factoryAddress;\n    address treasuryAddress;\n    string campaignCategory;\n    string public campaignTitle;\n    string public campaignContent;\n\n    /// @notice Creates a new Campaign contract instance.\n    /// @param initiator The address of the campaign initiator.\n    /// @param treasury The address of the treasury contract.\n    /// @param category The category of the campaign.\n    /// @param protocolName The name of the protocol.\n    /// @param initialAdSpend The initial ad spend.\n    /// @param campaignTitleParam The title of the campaign.\n    /// @param campaignContentParam The content of the campaign.\n    constructor(address initiator, address treasury, string memory category, string memory protocolName, uint initialAdSpend, string memory campaignTitleParam, string memory campaignContentParam) {\n        treasuryAddress = treasury;\n        if (keccak256(abi.encodePacked(category)) != keccak256(abi.encodePacked(\"fallback\"))) {\n            depositSpend(initialAdSpend, initiator);\n        }\n        factoryAddress = msg.sender;\n        campaignTitle = campaignTitleParam;\n        campaignContent = campaignContentParam;\n        campaignCategory = category;\n    }\n\n    /// @notice Increments the cumulative ad views by 1.\n    function incCumulativeAdViews() external {\n        cumulativeAdViews += 1;\n    }\n\n    /// @notice Increments the cumulative ad queued by 1.\n    function incCumulativeAdQueued() external {\n        cumulativeAdQueued += 1;\n    }\n\n    /// @notice Retrieves the remaining available ad spend from the Treasury for this campaign, subtracting out all allocated pending spend\n    /// @return The available ad spend.\n    function remainingAvailableAdSpend() public view returns (uint) {\n        Treasury treasury = Treasury(treasuryAddress);\n        return treasury.getAvailableAdSpend();\n    }\n\n    /// @notice Withdraws a specified amount from the campaign fund.\n    /// @param amount The amount to be withdrawn.\n    /// @dev Only the approved campaign withdraw address can initiate this and receive the withdrawn assets\n    function withdrawSpend(uint amount) public {\n        require(msg.sender == Treasury(treasuryAddress).campaignWithdrawAddresses(address(this)), \"Campaign fund withdraw can only be initiated by approved campaign withdraw address.\");\n        if (amount < baseAdSpend) {\n            baseAdSpend -= amount;\n        } else {\n            baseAdSpend = 0;\n        }\n        Treasury(treasuryAddress).campaignWithdraw(amount);\n    }\n\n    /// @notice Deposits a specified amount to the campaign fund, adding to campaign spend\n    /// @param amount The amount to be deposited.\n    /// @param initiator The address initiating the deposit.\n    function depositSpend(uint amount, address initiator) public {\n        baseAdSpend += amount;\n        Treasury(treasuryAddress).depositSpend(amount, initiator);\n    }\n\n}\n",
  "sourcePath": "/home/michael/Documents/billboard/protocol-truffle/contracts/Campaign.sol",
  "compiler": {
    "name": "solc",
    "version": "0.8.9+commit.e5eed63a.Emscripten.clang"
  },
  "schemaVersion": "3.4.15",
  "updatedAt": "2023-08-10T13:41:20.520Z",
  "devdoc": {
    "author": "Michael Manzano",
    "kind": "dev",
    "methods": {
      "constructor": {
        "params": {
          "campaignContentParam": "The content of the campaign.",
          "campaignTitleParam": "The title of the campaign.",
          "category": "The category of the campaign.",
          "initialAdSpend": "The initial ad spend.",
          "initiator": "The address of the campaign initiator.",
          "protocolName": "The name of the protocol.",
          "treasury": "The address of the treasury contract."
        }
      },
      "depositSpend(uint256,address)": {
        "params": {
          "amount": "The amount to be deposited.",
          "initiator": "The address initiating the deposit."
        }
      },
      "remainingAvailableAdSpend()": {
        "returns": {
          "_0": "The available ad spend."
        }
      },
      "withdrawSpend(uint256)": {
        "details": "Only the approved campaign withdraw address can initiate this and receive the withdrawn assets",
        "params": {
          "amount": "The amount to be withdrawn."
        }
      }
    },
    "title": "Campaign",
    "version": 1
  },
  "userdoc": {
    "kind": "user",
    "methods": {
      "constructor": {
        "notice": "Creates a new Campaign contract instance."
      },
      "depositSpend(uint256,address)": {
        "notice": "Deposits a specified amount to the campaign fund, adding to campaign spend"
      },
      "incCumulativeAdQueued()": {
        "notice": "Increments the cumulative ad queued by 1."
      },
      "incCumulativeAdViews()": {
        "notice": "Increments the cumulative ad views by 1."
      },
      "remainingAvailableAdSpend()": {
        "notice": "Retrieves the remaining available ad spend from the Treasury for this campaign, subtracting out all allocated pending spend"
      },
      "withdrawSpend(uint256)": {
        "notice": "Withdraws a specified amount from the campaign fund."
      }
    },
    "notice": "This contract is ad campaign contract logic",
    "version": 1
  }
}