{
  "contractName": "ExampleIntegrator",
  "abi": [
    {
      "inputs": [],
      "stateMutability": "nonpayable",
      "type": "constructor"
    },
    {
      "anonymous": false,
      "inputs": [
        {
          "indexed": true,
          "internalType": "address",
          "name": "owner",
          "type": "address"
        },
        {
          "indexed": true,
          "internalType": "address",
          "name": "approved",
          "type": "address"
        },
        {
          "indexed": true,
          "internalType": "uint256",
          "name": "tokenId",
          "type": "uint256"
        }
      ],
      "name": "Approval",
      "type": "event"
    },
    {
      "anonymous": false,
      "inputs": [
        {
          "indexed": true,
          "internalType": "address",
          "name": "owner",
          "type": "address"
        },
        {
          "indexed": true,
          "internalType": "address",
          "name": "operator",
          "type": "address"
        },
        {
          "indexed": false,
          "internalType": "bool",
          "name": "approved",
          "type": "bool"
        }
      ],
      "name": "ApprovalForAll",
      "type": "event"
    },
    {
      "anonymous": false,
      "inputs": [
        {
          "indexed": true,
          "internalType": "address",
          "name": "from",
          "type": "address"
        },
        {
          "indexed": true,
          "internalType": "address",
          "name": "to",
          "type": "address"
        },
        {
          "indexed": true,
          "internalType": "uint256",
          "name": "tokenId",
          "type": "uint256"
        }
      ],
      "name": "Transfer",
      "type": "event"
    },
    {
      "inputs": [
        {
          "internalType": "address",
          "name": "to",
          "type": "address"
        },
        {
          "internalType": "uint256",
          "name": "tokenId",
          "type": "uint256"
        }
      ],
      "name": "approve",
      "outputs": [],
      "stateMutability": "nonpayable",
      "type": "function"
    },
    {
      "inputs": [
        {
          "internalType": "address",
          "name": "owner",
          "type": "address"
        }
      ],
      "name": "balanceOf",
      "outputs": [
        {
          "internalType": "uint256",
          "name": "",
          "type": "uint256"
        }
      ],
      "stateMutability": "view",
      "type": "function"
    },
    {
      "inputs": [
        {
          "internalType": "uint256",
          "name": "tokenId",
          "type": "uint256"
        }
      ],
      "name": "getApproved",
      "outputs": [
        {
          "internalType": "address",
          "name": "",
          "type": "address"
        }
      ],
      "stateMutability": "view",
      "type": "function"
    },
    {
      "inputs": [
        {
          "internalType": "address",
          "name": "owner",
          "type": "address"
        },
        {
          "internalType": "address",
          "name": "operator",
          "type": "address"
        }
      ],
      "name": "isApprovedForAll",
      "outputs": [
        {
          "internalType": "bool",
          "name": "",
          "type": "bool"
        }
      ],
      "stateMutability": "view",
      "type": "function"
    },
    {
      "inputs": [],
      "name": "name",
      "outputs": [
        {
          "internalType": "string",
          "name": "",
          "type": "string"
        }
      ],
      "stateMutability": "view",
      "type": "function"
    },
    {
      "inputs": [
        {
          "internalType": "uint256",
          "name": "tokenId",
          "type": "uint256"
        }
      ],
      "name": "ownerOf",
      "outputs": [
        {
          "internalType": "address",
          "name": "",
          "type": "address"
        }
      ],
      "stateMutability": "view",
      "type": "function"
    },
    {
      "inputs": [
        {
          "internalType": "address",
          "name": "from",
          "type": "address"
        },
        {
          "internalType": "address",
          "name": "to",
          "type": "address"
        },
        {
          "internalType": "uint256",
          "name": "tokenId",
          "type": "uint256"
        }
      ],
      "name": "safeTransferFrom",
      "outputs": [],
      "stateMutability": "nonpayable",
      "type": "function"
    },
    {
      "inputs": [
        {
          "internalType": "address",
          "name": "from",
          "type": "address"
        },
        {
          "internalType": "address",
          "name": "to",
          "type": "address"
        },
        {
          "internalType": "uint256",
          "name": "tokenId",
          "type": "uint256"
        },
        {
          "internalType": "bytes",
          "name": "data",
          "type": "bytes"
        }
      ],
      "name": "safeTransferFrom",
      "outputs": [],
      "stateMutability": "nonpayable",
      "type": "function"
    },
    {
      "inputs": [
        {
          "internalType": "address",
          "name": "operator",
          "type": "address"
        },
        {
          "internalType": "bool",
          "name": "approved",
          "type": "bool"
        }
      ],
      "name": "setApprovalForAll",
      "outputs": [],
      "stateMutability": "nonpayable",
      "type": "function"
    },
    {
      "inputs": [
        {
          "internalType": "bytes4",
          "name": "interfaceId",
          "type": "bytes4"
        }
      ],
      "name": "supportsInterface",
      "outputs": [
        {
          "internalType": "bool",
          "name": "",
          "type": "bool"
        }
      ],
      "stateMutability": "view",
      "type": "function"
    },
    {
      "inputs": [],
      "name": "symbol",
      "outputs": [
        {
          "internalType": "string",
          "name": "",
          "type": "string"
        }
      ],
      "stateMutability": "view",
      "type": "function"
    },
    {
      "inputs": [
        {
          "internalType": "uint256",
          "name": "tokenId",
          "type": "uint256"
        }
      ],
      "name": "tokenURI",
      "outputs": [
        {
          "internalType": "string",
          "name": "",
          "type": "string"
        }
      ],
      "stateMutability": "view",
      "type": "function"
    },
    {
      "inputs": [
        {
          "internalType": "address",
          "name": "from",
          "type": "address"
        },
        {
          "internalType": "address",
          "name": "to",
          "type": "address"
        },
        {
          "internalType": "uint256",
          "name": "tokenId",
          "type": "uint256"
        }
      ],
      "name": "transferFrom",
      "outputs": [],
      "stateMutability": "nonpayable",
      "type": "function"
    },
    {
      "inputs": [
        {
          "internalType": "address",
          "name": "sender",
          "type": "address"
        }
      ],
      "name": "mintNFT",
      "outputs": [],
      "stateMutability": "nonpayable",
      "type": "function"
    }
  ],
  "bytecode": "0x60806040523480156200001157600080fd5b506040518060400160405280600781526020017f4578616d706c65000000000000000000000000000000000000000000000000008152506040518060400160405280600381526020017f4558500000000000000000000000000000000000000000000000000000000000815250816000908051906020019062000096929190620000b8565b508060019080519060200190620000af929190620000b8565b505050620001cd565b828054620000c69062000197565b90600052602060002090601f016020900481019282620000ea576000855562000136565b82601f106200010557805160ff191683800117855562000136565b8280016001018555821562000136579182015b828111156200013557825182559160200191906001019062000118565b5b50905062000145919062000149565b5090565b5b80821115620001645760008160009055506001016200014a565b5090565b7f4e487b7100000000000000000000000000000000000000000000000000000000600052602260045260246000fd5b60006002820490506001821680620001b057607f821691505b60208210811415620001c757620001c662000168565b5b50919050565b6124c080620001dd6000396000f3fe608060405234801561001057600080fd5b50600436106100ea5760003560e01c80636352211e1161008c578063a22cb46511610066578063a22cb4651461025b578063b88d4fde14610277578063c87b56dd14610293578063e985e9c5146102c3576100ea565b80636352211e146101dd57806370a082311461020d57806395d89b411461023d576100ea565b8063095ea7b3116100c8578063095ea7b31461016d57806323b872dd1461018957806342842e0e146101a557806354ba0f27146101c1576100ea565b806301ffc9a7146100ef57806306fdde031461011f578063081812fc1461013d575b600080fd5b610109600480360381019061010491906117b2565b6102f3565b60405161011691906117fa565b60405180910390f35b6101276103d5565b60405161013491906118ae565b60405180910390f35b61015760048036038101906101529190611906565b610467565b6040516101649190611974565b60405180910390f35b610187600480360381019061018291906119bb565b6104ad565b005b6101a3600480360381019061019e91906119fb565b6105c5565b005b6101bf60048036038101906101ba91906119fb565b610625565b005b6101db60048036038101906101d69190611a4e565b610645565b005b6101f760048036038101906101f29190611906565b61066b565b6040516102049190611974565b60405180910390f35b61022760048036038101906102229190611a4e565b6106f2565b6040516102349190611a8a565b60405180910390f35b6102456107aa565b60405161025291906118ae565b60405180910390f35b61027560048036038101906102709190611ad1565b61083c565b005b610291600480360381019061028c9190611c46565b610852565b005b6102ad60048036038101906102a89190611906565b6108b4565b6040516102ba91906118ae565b60405180910390f35b6102dd60048036038101906102d89190611cc9565b61091c565b6040516102ea91906117fa565b60405180910390f35b60007f80ac58cd000000000000000000000000000000000000000000000000000000007bffffffffffffffffffffffffffffffffffffffffffffffffffffffff1916827bffffffffffffffffffffffffffffffffffffffffffffffffffffffff191614806103be57507f5b5e139f000000000000000000000000000000000000000000000000000000007bffffffffffffffffffffffffffffffffffffffffffffffffffffffff1916827bffffffffffffffffffffffffffffffffffffffffffffffffffffffff1916145b806103ce57506103cd826109b0565b5b9050919050565b6060600080546103e490611d38565b80601f016020809104026020016040519081016040528092919081815260200182805461041090611d38565b801561045d5780601f106104325761010080835404028352916020019161045d565b820191906000526020600020905b81548152906001019060200180831161044057829003601f168201915b5050505050905090565b600061047282610a1a565b6004600083815260200190815260200160002060009054906101000a900473ffffffffffffffffffffffffffffffffffffffff169050919050565b60006104b88261066b565b90508073ffffffffffffffffffffffffffffffffffffffff168373ffffffffffffffffffffffffffffffffffffffff161415610529576040517f08c379a000000000000000000000000000000000000000000000000000000000815260040161052090611ddc565b60405180910390fd5b8073ffffffffffffffffffffffffffffffffffffffff16610548610a65565b73ffffffffffffffffffffffffffffffffffffffff161480610577575061057681610571610a65565b61091c565b5b6105b6576040517f08c379a00000000000000000000000000000000000000000000000000000000081526004016105ad90611e6e565b60405180910390fd5b6105c08383610a6d565b505050565b6105d66105d0610a65565b82610b26565b610615576040517f08c379a000000000000000000000000000000000000000000000000000000000815260040161060c90611f00565b60405180910390fd5b610620838383610bbb565b505050565b61064083838360405180602001604052806000815250610852565b505050565b61064f6006610eb5565b600061065b6006610ecb565b90506106678282610ed9565b5050565b600080610677836110f7565b9050600073ffffffffffffffffffffffffffffffffffffffff168173ffffffffffffffffffffffffffffffffffffffff1614156106e9576040517f08c379a00000000000000000000000000000000000000000000000000000000081526004016106e090611f6c565b60405180910390fd5b80915050919050565b60008073ffffffffffffffffffffffffffffffffffffffff168273ffffffffffffffffffffffffffffffffffffffff161415610763576040517f08c379a000000000000000000000000000000000000000000000000000000000815260040161075a90611ffe565b60405180910390fd5b600360008373ffffffffffffffffffffffffffffffffffffffff1673ffffffffffffffffffffffffffffffffffffffff168152602001908152602001600020549050919050565b6060600180546107b990611d38565b80601f01602080910402602001604051908101604052809291908181526020018280546107e590611d38565b80156108325780601f1061080757610100808354040283529160200191610832565b820191906000526020600020905b81548152906001019060200180831161081557829003601f168201915b5050505050905090565b61084e610847610a65565b8383611134565b5050565b61086361085d610a65565b83610b26565b6108a2576040517f08c379a000000000000000000000000000000000000000000000000000000000815260040161089990611f00565b60405180910390fd5b6108ae848484846112a1565b50505050565b60606108bf82610a1a565b60006108c96112fd565b905060008151116108e95760405180602001604052806000815250610914565b806108f384611314565b60405160200161090492919061205a565b6040516020818303038152906040525b915050919050565b6000600560008473ffffffffffffffffffffffffffffffffffffffff1673ffffffffffffffffffffffffffffffffffffffff16815260200190815260200160002060008373ffffffffffffffffffffffffffffffffffffffff1673ffffffffffffffffffffffffffffffffffffffff16815260200190815260200160002060009054906101000a900460ff16905092915050565b60007f01ffc9a7000000000000000000000000000000000000000000000000000000007bffffffffffffffffffffffffffffffffffffffffffffffffffffffff1916827bffffffffffffffffffffffffffffffffffffffffffffffffffffffff1916149050919050565b610a23816113ec565b610a62576040517f08c379a0000000000000000000000000000000000000000000000000000000008152600401610a5990611f6c565b60405180910390fd5b50565b600033905090565b816004600083815260200190815260200160002060006101000a81548173ffffffffffffffffffffffffffffffffffffffff021916908373ffffffffffffffffffffffffffffffffffffffff160217905550808273ffffffffffffffffffffffffffffffffffffffff16610ae08361066b565b73ffffffffffffffffffffffffffffffffffffffff167f8c5be1e5ebec7d5bd14f71427d1e84f3dd0314c0f7b2291e5b200ac8c7c3b92560405160405180910390a45050565b600080610b328361066b565b90508073ffffffffffffffffffffffffffffffffffffffff168473ffffffffffffffffffffffffffffffffffffffff161480610b745750610b73818561091c565b5b80610bb257508373ffffffffffffffffffffffffffffffffffffffff16610b9a84610467565b73ffffffffffffffffffffffffffffffffffffffff16145b91505092915050565b8273ffffffffffffffffffffffffffffffffffffffff16610bdb8261066b565b73ffffffffffffffffffffffffffffffffffffffff1614610c31576040517f08c379a0000000000000000000000000000000000000000000000000000000008152600401610c28906120f0565b60405180910390fd5b600073ffffffffffffffffffffffffffffffffffffffff168273ffffffffffffffffffffffffffffffffffffffff161415610ca1576040517f08c379a0000000000000000000000000000000000000000000000000000000008152600401610c9890612182565b60405180910390fd5b610cae838383600161142d565b8273ffffffffffffffffffffffffffffffffffffffff16610cce8261066b565b73ffffffffffffffffffffffffffffffffffffffff1614610d24576040517f08c379a0000000000000000000000000000000000000000000000000000000008152600401610d1b906120f0565b60405180910390fd5b6004600082815260200190815260200160002060006101000a81549073ffffffffffffffffffffffffffffffffffffffff02191690556001600360008573ffffffffffffffffffffffffffffffffffffffff1673ffffffffffffffffffffffffffffffffffffffff168152602001908152602001600020600082825403925050819055506001600360008473ffffffffffffffffffffffffffffffffffffffff1673ffffffffffffffffffffffffffffffffffffffff16815260200190815260200160002060008282540192505081905550816002600083815260200190815260200160002060006101000a81548173ffffffffffffffffffffffffffffffffffffffff021916908373ffffffffffffffffffffffffffffffffffffffff160217905550808273ffffffffffffffffffffffffffffffffffffffff168473ffffffffffffffffffffffffffffffffffffffff167fddf252ad1be2c89b69c2b068fc378daa952ba7f163c4a11628f55a4df523b3ef60405160405180910390a4610eb08383836001611433565b505050565b6001816000016000828254019250508190555050565b600081600001549050919050565b600073ffffffffffffffffffffffffffffffffffffffff168273ffffffffffffffffffffffffffffffffffffffff161415610f49576040517f08c379a0000000000000000000000000000000000000000000000000000000008152600401610f40906121ee565b60405180910390fd5b610f52816113ec565b15610f92576040517f08c379a0000000000000000000000000000000000000000000000000000000008152600401610f899061225a565b60405180910390fd5b610fa060008383600161142d565b610fa9816113ec565b15610fe9576040517f08c379a0000000000000000000000000000000000000000000000000000000008152600401610fe09061225a565b60405180910390fd5b6001600360008473ffffffffffffffffffffffffffffffffffffffff1673ffffffffffffffffffffffffffffffffffffffff16815260200190815260200160002060008282540192505081905550816002600083815260200190815260200160002060006101000a81548173ffffffffffffffffffffffffffffffffffffffff021916908373ffffffffffffffffffffffffffffffffffffffff160217905550808273ffffffffffffffffffffffffffffffffffffffff16600073ffffffffffffffffffffffffffffffffffffffff167fddf252ad1be2c89b69c2b068fc378daa952ba7f163c4a11628f55a4df523b3ef60405160405180910390a46110f3600083836001611433565b5050565b60006002600083815260200190815260200160002060009054906101000a900473ffffffffffffffffffffffffffffffffffffffff169050919050565b8173ffffffffffffffffffffffffffffffffffffffff168373ffffffffffffffffffffffffffffffffffffffff1614156111a3576040517f08c379a000000000000000000000000000000000000000000000000000000000815260040161119a906122c6565b60405180910390fd5b80600560008573ffffffffffffffffffffffffffffffffffffffff1673ffffffffffffffffffffffffffffffffffffffff16815260200190815260200160002060008473ffffffffffffffffffffffffffffffffffffffff1673ffffffffffffffffffffffffffffffffffffffff16815260200190815260200160002060006101000a81548160ff0219169083151502179055508173ffffffffffffffffffffffffffffffffffffffff168373ffffffffffffffffffffffffffffffffffffffff167f17307eab39ab6107e8899845ad3d59bd9653f200f220920489ca2b5937696c318360405161129491906117fa565b60405180910390a3505050565b6112ac848484610bbb565b6112b884848484611439565b6112f7576040517f08c379a00000000000000000000000000000000000000000000000000000000081526004016112ee90612358565b60405180910390fd5b50505050565b606060405180602001604052806000815250905090565b606060006001611323846115d0565b01905060008167ffffffffffffffff81111561134257611341611b1b565b5b6040519080825280601f01601f1916602001820160405280156113745781602001600182028036833780820191505090505b509050600082602001820190505b6001156113e1578080600190039150507f3031323334353637383961626364656600000000000000000000000000000000600a86061a8153600a85816113cb576113ca612378565b5b04945060008514156113dc576113e1565b611382565b819350505050919050565b60008073ffffffffffffffffffffffffffffffffffffffff1661140e836110f7565b73ffffffffffffffffffffffffffffffffffffffff1614159050919050565b50505050565b50505050565b600061145a8473ffffffffffffffffffffffffffffffffffffffff16611723565b156115c3578373ffffffffffffffffffffffffffffffffffffffff1663150b7a02611483610a65565b8786866040518563ffffffff1660e01b81526004016114a594939291906123fc565b602060405180830381600087803b1580156114bf57600080fd5b505af19250505080156114f057506040513d601f19601f820116820180604052508101906114ed919061245d565b60015b611573573d8060008114611520576040519150601f19603f3d011682016040523d82523d6000602084013e611525565b606091505b5060008151141561156b576040517f08c379a000000000000000000000000000000000000000000000000000000000815260040161156290612358565b60405180910390fd5b805181602001fd5b63150b7a0260e01b7bffffffffffffffffffffffffffffffffffffffffffffffffffffffff1916817bffffffffffffffffffffffffffffffffffffffffffffffffffffffff1916149150506115c8565b600190505b949350505050565b600080600090507a184f03e93ff9f4daa797ed6e38ed64bf6a1f010000000000000000831061162e577a184f03e93ff9f4daa797ed6e38ed64bf6a1f010000000000000000838161162457611623612378565b5b0492506040810190505b6d04ee2d6d415b85acef8100000000831061166b576d04ee2d6d415b85acef8100000000838161166157611660612378565b5b0492506020810190505b662386f26fc10000831061169a57662386f26fc1000083816116905761168f612378565b5b0492506010810190505b6305f5e10083106116c3576305f5e10083816116b9576116b8612378565b5b0492506008810190505b61271083106116e85761271083816116de576116dd612378565b5b0492506004810190505b6064831061170b576064838161170157611700612378565b5b0492506002810190505b600a831061171a576001810190505b80915050919050565b6000808273ffffffffffffffffffffffffffffffffffffffff163b119050919050565b6000604051905090565b600080fd5b600080fd5b60007fffffffff0000000000000000000000000000000000000000000000000000000082169050919050565b61178f8161175a565b811461179a57600080fd5b50565b6000813590506117ac81611786565b92915050565b6000602082840312156117c8576117c7611750565b5b60006117d68482850161179d565b91505092915050565b60008115159050919050565b6117f4816117df565b82525050565b600060208201905061180f60008301846117eb565b92915050565b600081519050919050565b600082825260208201905092915050565b60005b8381101561184f578082015181840152602081019050611834565b8381111561185e576000848401525b50505050565b6000601f19601f8301169050919050565b600061188082611815565b61188a8185611820565b935061189a818560208601611831565b6118a381611864565b840191505092915050565b600060208201905081810360008301526118c88184611875565b905092915050565b6000819050919050565b6118e3816118d0565b81146118ee57600080fd5b50565b600081359050611900816118da565b92915050565b60006020828403121561191c5761191b611750565b5b600061192a848285016118f1565b91505092915050565b600073ffffffffffffffffffffffffffffffffffffffff82169050919050565b600061195e82611933565b9050919050565b61196e81611953565b82525050565b60006020820190506119896000830184611965565b92915050565b61199881611953565b81146119a357600080fd5b50565b6000813590506119b58161198f565b92915050565b600080604083850312156119d2576119d1611750565b5b60006119e0858286016119a6565b92505060206119f1858286016118f1565b9150509250929050565b600080600060608486031215611a1457611a13611750565b5b6000611a22868287016119a6565b9350506020611a33868287016119a6565b9250506040611a44868287016118f1565b9150509250925092565b600060208284031215611a6457611a63611750565b5b6000611a72848285016119a6565b91505092915050565b611a84816118d0565b82525050565b6000602082019050611a9f6000830184611a7b565b92915050565b611aae816117df565b8114611ab957600080fd5b50565b600081359050611acb81611aa5565b92915050565b60008060408385031215611ae857611ae7611750565b5b6000611af6858286016119a6565b9250506020611b0785828601611abc565b9150509250929050565b600080fd5b600080fd5b7f4e487b7100000000000000000000000000000000000000000000000000000000600052604160045260246000fd5b611b5382611864565b810181811067ffffffffffffffff82111715611b7257611b71611b1b565b5b80604052505050565b6000611b85611746565b9050611b918282611b4a565b919050565b600067ffffffffffffffff821115611bb157611bb0611b1b565b5b611bba82611864565b9050602081019050919050565b82818337600083830152505050565b6000611be9611be484611b96565b611b7b565b905082815260208101848484011115611c0557611c04611b16565b5b611c10848285611bc7565b509392505050565b600082601f830112611c2d57611c2c611b11565b5b8135611c3d848260208601611bd6565b91505092915050565b60008060008060808587031215611c6057611c5f611750565b5b6000611c6e878288016119a6565b9450506020611c7f878288016119a6565b9350506040611c90878288016118f1565b925050606085013567ffffffffffffffff811115611cb157611cb0611755565b5b611cbd87828801611c18565b91505092959194509250565b60008060408385031215611ce057611cdf611750565b5b6000611cee858286016119a6565b9250506020611cff858286016119a6565b9150509250929050565b7f4e487b7100000000000000000000000000000000000000000000000000000000600052602260045260246000fd5b60006002820490506001821680611d5057607f821691505b60208210811415611d6457611d63611d09565b5b50919050565b7f4552433732313a20617070726f76616c20746f2063757272656e74206f776e6560008201527f7200000000000000000000000000000000000000000000000000000000000000602082015250565b6000611dc6602183611820565b9150611dd182611d6a565b604082019050919050565b60006020820190508181036000830152611df581611db9565b9050919050565b7f4552433732313a20617070726f76652063616c6c6572206973206e6f7420746f60008201527f6b656e206f776e6572206f7220617070726f76656420666f7220616c6c000000602082015250565b6000611e58603d83611820565b9150611e6382611dfc565b604082019050919050565b60006020820190508181036000830152611e8781611e4b565b9050919050565b7f4552433732313a2063616c6c6572206973206e6f7420746f6b656e206f776e6560008201527f72206f7220617070726f76656400000000000000000000000000000000000000602082015250565b6000611eea602d83611820565b9150611ef582611e8e565b604082019050919050565b60006020820190508181036000830152611f1981611edd565b9050919050565b7f4552433732313a20696e76616c696420746f6b656e2049440000000000000000600082015250565b6000611f56601883611820565b9150611f6182611f20565b602082019050919050565b60006020820190508181036000830152611f8581611f49565b9050919050565b7f4552433732313a2061646472657373207a65726f206973206e6f74206120766160008201527f6c6964206f776e65720000000000000000000000000000000000000000000000602082015250565b6000611fe8602983611820565b9150611ff382611f8c565b604082019050919050565b6000602082019050818103600083015261201781611fdb565b9050919050565b600081905092915050565b600061203482611815565b61203e818561201e565b935061204e818560208601611831565b80840191505092915050565b60006120668285612029565b91506120728284612029565b91508190509392505050565b7f4552433732313a207472616e736665722066726f6d20696e636f72726563742060008201527f6f776e6572000000000000000000000000000000000000000000000000000000602082015250565b60006120da602583611820565b91506120e58261207e565b604082019050919050565b60006020820190508181036000830152612109816120cd565b9050919050565b7f4552433732313a207472616e7366657220746f20746865207a65726f2061646460008201527f7265737300000000000000000000000000000000000000000000000000000000602082015250565b600061216c602483611820565b915061217782612110565b604082019050919050565b6000602082019050818103600083015261219b8161215f565b9050919050565b7f4552433732313a206d696e7420746f20746865207a65726f2061646472657373600082015250565b60006121d8602083611820565b91506121e3826121a2565b602082019050919050565b60006020820190508181036000830152612207816121cb565b9050919050565b7f4552433732313a20746f6b656e20616c7265616479206d696e74656400000000600082015250565b6000612244601c83611820565b915061224f8261220e565b602082019050919050565b6000602082019050818103600083015261227381612237565b9050919050565b7f4552433732313a20617070726f766520746f2063616c6c657200000000000000600082015250565b60006122b0601983611820565b91506122bb8261227a565b602082019050919050565b600060208201905081810360008301526122df816122a3565b9050919050565b7f4552433732313a207472616e7366657220746f206e6f6e20455243373231526560008201527f63656976657220696d706c656d656e7465720000000000000000000000000000602082015250565b6000612342603283611820565b915061234d826122e6565b604082019050919050565b6000602082019050818103600083015261237181612335565b9050919050565b7f4e487b7100000000000000000000000000000000000000000000000000000000600052601260045260246000fd5b600081519050919050565b600082825260208201905092915050565b60006123ce826123a7565b6123d881856123b2565b93506123e8818560208601611831565b6123f181611864565b840191505092915050565b60006080820190506124116000830187611965565b61241e6020830186611965565b61242b6040830185611a7b565b818103606083015261243d81846123c3565b905095945050505050565b60008151905061245781611786565b92915050565b60006020828403121561247357612472611750565b5b600061248184828501612448565b9150509291505056fea2646970667358221220647161f1f189dea088bb12b79d0c7a4d39a90c1a4221a51f7678bcba3898dbc164736f6c63430008090033",
  "immutableReferences": {},
  "source": "// SPDX-License-Identifier: MIT\n\npragma solidity ^0.8.0;\n\nimport \"@openzeppelin/contracts/token/ERC721/ERC721.sol\";\nimport \"@openzeppelin/contracts/utils/Counters.sol\";\n\ncontract ExampleIntegrator is ERC721 {\n\n    //This contract is for a dummy NFT protocol that uses a Billboard integrator for ad revenue\n    //This protocol mints an NFT to the msg.sender address\n    //The mintNFT() function will be called from the routeInteraction() function on the integrator contract deployed for this protocol  \n    //While a dApp could just call mintNFT() without routing through the integrator contract, no ad view will be recorded\n\n    using Counters for Counters.Counter;\n    Counters.Counter private tokenIds;\n\n    constructor() ERC721(\"Example\", \"EXP\") {}\n\n    function mintNFT(address sender) public {\n        tokenIds.increment();\n        uint256 newItemId = tokenIds.current();\n        _mint(sender, newItemId);\n    }\n}",
  "sourcePath": "/home/michael/Documents/billboard/protocol-truffle/contracts/ExampleIntegrator.sol",
  "compiler": {
    "name": "solc",
    "version": "0.8.9+commit.e5eed63a.Emscripten.clang"
  },
  "schemaVersion": "3.4.15",
  "updatedAt": "2023-08-10T13:23:45.266Z",
  "devdoc": {
    "kind": "dev",
    "methods": {
      "approve(address,uint256)": {
        "details": "See {IERC721-approve}."
      },
      "balanceOf(address)": {
        "details": "See {IERC721-balanceOf}."
      },
      "getApproved(uint256)": {
        "details": "See {IERC721-getApproved}."
      },
      "isApprovedForAll(address,address)": {
        "details": "See {IERC721-isApprovedForAll}."
      },
      "name()": {
        "details": "See {IERC721Metadata-name}."
      },
      "ownerOf(uint256)": {
        "details": "See {IERC721-ownerOf}."
      },
      "safeTransferFrom(address,address,uint256)": {
        "details": "See {IERC721-safeTransferFrom}."
      },
      "safeTransferFrom(address,address,uint256,bytes)": {
        "details": "See {IERC721-safeTransferFrom}."
      },
      "setApprovalForAll(address,bool)": {
        "details": "See {IERC721-setApprovalForAll}."
      },
      "supportsInterface(bytes4)": {
        "details": "See {IERC165-supportsInterface}."
      },
      "symbol()": {
        "details": "See {IERC721Metadata-symbol}."
      },
      "tokenURI(uint256)": {
        "details": "See {IERC721Metadata-tokenURI}."
      },
      "transferFrom(address,address,uint256)": {
        "details": "See {IERC721-transferFrom}."
      }
    },
    "version": 1
  },
  "userdoc": {
    "kind": "user",
    "methods": {},
    "version": 1
  }
}