{
  "contractName": "Factory",
  "abi": [
    {
      "inputs": [
        {
          "internalType": "address",
          "name": "tokenAddress",
          "type": "address"
        }
      ],
      "stateMutability": "nonpayable",
      "type": "constructor"
    },
    {
      "anonymous": false,
      "inputs": [
        {
          "indexed": true,
          "internalType": "address",
          "name": "_address",
          "type": "address"
        }
      ],
      "name": "AddressEvent",
      "type": "event"
    },
    {
      "inputs": [
        {
          "internalType": "uint256",
          "name": "",
          "type": "uint256"
        }
      ],
      "name": "categories",
      "outputs": [
        {
          "internalType": "string",
          "name": "",
          "type": "string"
        }
      ],
      "stateMutability": "view",
      "type": "function"
    },
    {
      "inputs": [],
      "name": "fallbackAddress",
      "outputs": [
        {
          "internalType": "address",
          "name": "",
          "type": "address"
        }
      ],
      "stateMutability": "view",
      "type": "function"
    },
    {
      "inputs": [
        {
          "internalType": "uint256",
          "name": "",
          "type": "uint256"
        }
      ],
      "name": "isCategory",
      "outputs": [
        {
          "internalType": "bool",
          "name": "",
          "type": "bool"
        }
      ],
      "stateMutability": "view",
      "type": "function"
    },
    {
      "inputs": [],
      "name": "protocolToken",
      "outputs": [
        {
          "internalType": "address",
          "name": "",
          "type": "address"
        }
      ],
      "stateMutability": "view",
      "type": "function"
    },
    {
      "inputs": [],
      "name": "totalCampaignCount",
      "outputs": [
        {
          "internalType": "uint256",
          "name": "",
          "type": "uint256"
        }
      ],
      "stateMutability": "view",
      "type": "function"
    },
    {
      "inputs": [],
      "name": "totalIntegratorCount",
      "outputs": [
        {
          "internalType": "uint256",
          "name": "",
          "type": "uint256"
        }
      ],
      "stateMutability": "view",
      "type": "function"
    },
    {
      "inputs": [],
      "name": "treasuryAddress",
      "outputs": [
        {
          "internalType": "address",
          "name": "",
          "type": "address"
        }
      ],
      "stateMutability": "view",
      "type": "function"
    },
    {
      "inputs": [
        {
          "internalType": "string",
          "name": "category",
          "type": "string"
        },
        {
          "internalType": "string",
          "name": "protocolName",
          "type": "string"
        },
        {
          "internalType": "uint256",
          "name": "initialAdSpend",
          "type": "uint256"
        },
        {
          "internalType": "string",
          "name": "campaignTitleParam",
          "type": "string"
        },
        {
          "internalType": "string",
          "name": "campaignContentParam",
          "type": "string"
        },
        {
          "internalType": "address",
          "name": "managerAddress",
          "type": "address"
        }
      ],
      "name": "deployNewCampaign",
      "outputs": [],
      "stateMutability": "nonpayable",
      "type": "function"
    },
    {
      "inputs": [
        {
          "internalType": "address",
          "name": "protocolAddress",
          "type": "address"
        },
        {
          "internalType": "address",
          "name": "withdrawAddress",
          "type": "address"
        },
        {
          "internalType": "string",
          "name": "integratorCategory",
          "type": "string"
        },
        {
          "internalType": "string[]",
          "name": "functionSignatures",
          "type": "string[]"
        }
      ],
      "name": "deployNewIntegrator",
      "outputs": [],
      "stateMutability": "nonpayable",
      "type": "function"
    },
    {
      "inputs": [
        {
          "internalType": "address",
          "name": "tokenAddress",
          "type": "address"
        }
      ],
      "name": "setProtocolToken",
      "outputs": [],
      "stateMutability": "nonpayable",
      "type": "function"
    },
    {
      "inputs": [
        {
          "internalType": "string",
          "name": "category",
          "type": "string"
        },
        {
          "internalType": "address",
          "name": "user",
          "type": "address"
        },
        {
          "internalType": "uint256",
          "name": "userNonce",
          "type": "uint256"
        },
        {
          "internalType": "uint256",
          "name": "campaignCountAtUser",
          "type": "uint256"
        }
      ],
      "name": "getCampaignForUser",
      "outputs": [
        {
          "internalType": "address",
          "name": "",
          "type": "address"
        },
        {
          "internalType": "uint256",
          "name": "",
          "type": "uint256"
        }
      ],
      "stateMutability": "view",
      "type": "function"
    },
    {
      "inputs": [
        {
          "internalType": "string",
          "name": "category",
          "type": "string"
        }
      ],
      "name": "getCampaignAddresses",
      "outputs": [
        {
          "internalType": "address[]",
          "name": "",
          "type": "address[]"
        }
      ],
      "stateMutability": "view",
      "type": "function"
    },
    {
      "inputs": [
        {
          "internalType": "string",
          "name": "cat",
          "type": "string"
        }
      ],
      "name": "getCategoryIndex",
      "outputs": [
        {
          "internalType": "uint256",
          "name": "",
          "type": "uint256"
        }
      ],
      "stateMutability": "view",
      "type": "function"
    },
    {
      "inputs": [
        {
          "internalType": "string",
          "name": "category",
          "type": "string"
        }
      ],
      "name": "getIntegratorAddresses",
      "outputs": [
        {
          "internalType": "address[]",
          "name": "",
          "type": "address[]"
        }
      ],
      "stateMutability": "view",
      "type": "function"
    },
    {
      "inputs": [
        {
          "internalType": "address",
          "name": "campaign",
          "type": "address"
        }
      ],
      "name": "campaignIsOpen",
      "outputs": [
        {
          "internalType": "bool",
          "name": "",
          "type": "bool"
        }
      ],
      "stateMutability": "view",
      "type": "function"
    },
    {
      "inputs": [
        {
          "internalType": "address",
          "name": "campaign",
          "type": "address"
        }
      ],
      "name": "newPendingSpend",
      "outputs": [],
      "stateMutability": "nonpayable",
      "type": "function"
    },
    {
      "inputs": [
        {
          "internalType": "address",
          "name": "campaign",
          "type": "address"
        }
      ],
      "name": "spendCompleted",
      "outputs": [],
      "stateMutability": "nonpayable",
      "type": "function"
    }
  ],
  "bytecode": "0x6080604052662386f26fc10000600555600060065560405180608001604052806040518060400160405280600481526020017f6c656e640000000000000000000000000000000000000000000000000000000081525081526020016040518060400160405280600381526020017f6e6674000000000000000000000000000000000000000000000000000000000081525081526020016040518060400160405280600381526020017f646578000000000000000000000000000000000000000000000000000000000081525081526020016040518060400160405280600581526020017f6f7468657200000000000000000000000000000000000000000000000000000081525081525060079060046200011b929190620004e7565b503480156200012957600080fd5b506040516200a6643803806200a66483398181016040528101906200014f9190620006f2565b336000806101000a81548173ffffffffffffffffffffffffffffffffffffffff021916908373ffffffffffffffffffffffffffffffffffffffff16021790555080600160006101000a81548173ffffffffffffffffffffffffffffffffffffffff021916908373ffffffffffffffffffffffffffffffffffffffff160217905550620001e06200024b60201b60201c565b60005b60078054905081101562000233576001600e600083815260200190815260200160002060006101000a81548160ff02191690831515021790555080806200022a906200075d565b915050620001e3565b5062000244620003e160201b60201c565b5062000be9565b600073ffffffffffffffffffffffffffffffffffffffff16600260009054906101000a900473ffffffffffffffffffffffffffffffffffffffff1673ffffffffffffffffffffffffffffffffffffffff1614620002df576040517f08c379a0000000000000000000000000000000000000000000000000000000008152600401620002d69062000832565b60405180910390fd5b600160009054906101000a900473ffffffffffffffffffffffffffffffffffffffff1660405162000310906200054e565b6200031c919062000865565b604051809103906000f08015801562000339573d6000803e3d6000fd5b50600260006101000a81548173ffffffffffffffffffffffffffffffffffffffff021916908373ffffffffffffffffffffffffffffffffffffffff160217905550600260009054906101000a900473ffffffffffffffffffffffffffffffffffffffff1673ffffffffffffffffffffffffffffffffffffffff167fa0786e1009edc9cbf8898c0299c4518c0d18ec943fa88b2af645b4dd024d7a4960405160405180910390a2565b600030600260009054906101000a900473ffffffffffffffffffffffffffffffffffffffff16600060405162000417906200055c565b620004259392919062000af3565b604051809103906000f08015801562000442573d6000803e3d6000fd5b509050600081905080600360006101000a81548173ffffffffffffffffffffffffffffffffffffffff021916908373ffffffffffffffffffffffffffffffffffffffff1602179055506001600860008373ffffffffffffffffffffffffffffffffffffffff1673ffffffffffffffffffffffffffffffffffffffff16815260200190815260200160002060006101000a81548160ff0219169083151502179055505050565b8280548282559060005260206000209081019282156200053b579160200282015b828111156200053a578251829080519060200190620005299291906200056a565b509160200191906001019062000508565b5b5090506200054a9190620005fb565b5090565b611a0880620078cf83390190565b61138d80620092d783390190565b828054620005789062000bb3565b90600052602060002090601f0160209004810192826200059c5760008555620005e8565b82601f10620005b757805160ff1916838001178555620005e8565b82800160010185558215620005e8579182015b82811115620005e7578251825591602001919060010190620005ca565b5b509050620005f7919062000623565b5090565b5b808211156200061f576000818162000615919062000642565b50600101620005fc565b5090565b5b808211156200063e57600081600090555060010162000624565b5090565b508054620006509062000bb3565b6000825580601f1062000664575062000685565b601f01602090049060005260206000209081019062000684919062000623565b5b50565b600080fd5b600073ffffffffffffffffffffffffffffffffffffffff82169050919050565b6000620006ba826200068d565b9050919050565b620006cc81620006ad565b8114620006d857600080fd5b50565b600081519050620006ec81620006c1565b92915050565b6000602082840312156200070b576200070a62000688565b5b60006200071b84828501620006db565b91505092915050565b7f4e487b7100000000000000000000000000000000000000000000000000000000600052601160045260246000fd5b6000819050919050565b60006200076a8262000753565b91507fffffffffffffffffffffffffffffffffffffffffffffffffffffffffffffffff821415620007a0576200079f62000724565b5b600182019050919050565b600082825260208201905092915050565b7f54726561737572792068617320616c7265616479206265656e206465706c6f7960008201527f6564000000000000000000000000000000000000000000000000000000000000602082015250565b60006200081a602283620007ab565b91506200082782620007bc565b604082019050919050565b600060208201905081810360008301526200084d816200080b565b9050919050565b6200085f81620006ad565b82525050565b60006020820190506200087c600083018462000854565b92915050565b7f66616c6c6261636b000000000000000000000000000000000000000000000000600082015250565b6000620008ba600883620007ab565b9150620008c78262000882565b602082019050919050565b7f42696c6c626f6172640000000000000000000000000000000000000000000000600082015250565b60006200090a600983620007ab565b91506200091782620008d2565b602082019050919050565b6000819050919050565b6000819050919050565b600062000957620009516200094b8462000922565b6200092c565b62000753565b9050919050565b620009698162000936565b82525050565b7f66616c6c6261636b416464726573730000000000000000000000000000000000600082015250565b6000620009a7600f83620007ab565b9150620009b4826200096f565b602082019050919050565b7f544849532050524f544f434f4c20555345532042494c4c424f4152442050524f60008201527f544f434f4c2e20414c4c205452414e53414354494f4e5320574954482054484960208201527f532050524f544f434f4c2047455420524f55544544205448524f55474820414e60408201527f20494e5445475241544f5220434f4e54524143542e20594f552057494c4c204260608201527f4520534552564544204144564552544953454d454e5453204245464f5245204560808201527f41434820494e544552414354494f4e205749544820544849532050524f544f4360a08201527f4f4c2e000000000000000000000000000000000000000000000000000000000060c082015250565b600062000adb60c383620007ab565b915062000ae882620009bf565b60e082019050919050565b600060e08201905062000b0a600083018662000854565b62000b19602083018562000854565b818103604083015262000b2c81620008ab565b9050818103606083015262000b4181620008fb565b905062000b5260808301846200095e565b81810360a083015262000b658162000998565b905081810360c083015262000b7a8162000acc565b9050949350505050565b7f4e487b7100000000000000000000000000000000000000000000000000000000600052602260045260246000fd5b6000600282049050600182168062000bcc57607f821691505b6020821081141562000be35762000be262000b84565b5b50919050565b616cd68062000bf96000396000f3fe60806040523480156200001157600080fd5b5060043610620001245760003560e01c806379ee808011620000b1578063c6cdbe5e116200007b578063c6cdbe5e1462000322578063d9724f741462000358578063e165bcdf1462000378578063e6fe16171462000398578063f9fb01c414620003b85762000124565b806379ee8080146200027257806384cc566c1462000294578063a00a599714620002ca578063c5f956af14620003005762000124565b80632ac15a5e11620000f35780632ac15a5e14620001d95780634e14489914620001f957806354cce28a146200021b57806356d229b014620002525762000124565b80631604b2c614620001295780631853a9a6146200015f5780631a465fe114620001815780631a7256d114620001a3575b600080fd5b6200014760048036038101906200014191906200193c565b620003ee565b604051620001569190620019a8565b60405180910390f35b62000169620004f3565b604051620001789190620019a8565b60405180910390f35b6200018b620004f9565b6040516200019a919062001a0a565b60405180910390f35b620001c16004803603810190620001bb91906200193c565b6200051f565b604051620001d0919062001af5565b60405180910390f35b620001f76004803603810190620001f1919062001b7b565b6200076f565b005b6200020362000afd565b60405162000212919062001a0a565b60405180910390f35b62000239600480360381019062000233919062001c93565b62000b23565b6040516200024992919062001d24565b60405180910390f35b6200027060048036038101906200026a919062001d51565b62000cb5565b005b6200027c62000d8a565b6040516200028b9190620019a8565b60405180910390f35b620002b26004803603810190620002ac919062001d51565b62000d90565b604051620002c1919062001da0565b60405180910390f35b620002e86004803603810190620002e291906200193c565b62000e94565b604051620002f7919062001af5565b60405180910390f35b6200030a620010e4565b60405162000319919062001a0a565b60405180910390f35b6200034060048036038101906200033a919062001dbd565b6200110a565b6040516200034f919062001e82565b60405180910390f35b62000376600480360381019062000370919062001d51565b620011bf565b005b62000396600480360381019062000390919062001d51565b62001364565b005b620003b66004803603810190620003b0919062001fa2565b6200150b565b005b620003d66004803603810190620003d0919062001dbd565b6200178a565b604051620003e5919062001da0565b60405180910390f35b600080600090506000805b6007805490508110156200049e57846040516020016200041a919062002094565b6040516020818303038152906040528051906020012060078281548110620004475762000446620020ad565b5b90600052602060002001604051602001620004639190620021e1565b6040516020818303038152906040528051906020012014156200048857809250600191505b8080620004959062002229565b915050620003f9565b506001151581151514620004e9576040517f08c379a0000000000000000000000000000000000000000000000000000000008152600401620004e090620022c7565b60405180910390fd5b8192505050919050565b60045481565b600160009054906101000a900473ffffffffffffffffffffffffffffffffffffffff1681565b606060006200052e83620003ee565b905060008054906101000a900473ffffffffffffffffffffffffffffffffffffffff1673ffffffffffffffffffffffffffffffffffffffff163373ffffffffffffffffffffffffffffffffffffffff1614620005c1576040517f08c379a0000000000000000000000000000000000000000000000000000000008152600401620005b8906200235f565b60405180910390fd5b6000600a60008381526020019081526020016000205414156200063557600067ffffffffffffffff811115620005fc57620005fb620017f5565b5b6040519080825280602002602001820160405280156200062b5781602001602082028036833780820191505090505b509150506200076a565b6000600a60008381526020019081526020016000205467ffffffffffffffff811115620006675762000666620017f5565b5b604051908082528060200260200182016040528015620006965781602001602082028036833780820191505090505b50905060005b600a6000848152602001908152602001600020548110156200076357600c6000848152602001908152602001600020600082815260200190815260200160002060009054906101000a900473ffffffffffffffffffffffffffffffffffffffff16828281518110620007135762000712620020ad565b5b602002602001019073ffffffffffffffffffffffffffffffffffffffff16908173ffffffffffffffffffffffffffffffffffffffff168152505080806200075a9062002229565b9150506200069c565b5080925050505b919050565b600554841015620007b7576040517f08c379a0000000000000000000000000000000000000000000000000000000008152600401620007ae90620023f7565b60405180910390fd5b600073ffffffffffffffffffffffffffffffffffffffff16600260009054906101000a900473ffffffffffffffffffffffffffffffffffffffff1673ffffffffffffffffffffffffffffffffffffffff1614156200084c576040517f08c379a0000000000000000000000000000000000000000000000000000000008152600401620008439062002469565b60405180910390fd5b600033600260009054906101000a900473ffffffffffffffffffffffffffffffffffffffff1688888888886040516200088590620017aa565b6200089797969594939291906200248b565b604051809103906000f080158015620008b4573d6000803e3d6000fd5b5090506000819050600073ffffffffffffffffffffffffffffffffffffffff168373ffffffffffffffffffffffffffffffffffffffff161415620008f6573392505b600260009054906101000a900473ffffffffffffffffffffffffffffffffffffffff1673ffffffffffffffffffffffffffffffffffffffff1663998aabfd82856040518363ffffffff1660e01b81526004016200095592919062002524565b600060405180830381600087803b1580156200097057600080fd5b505af115801562000985573d6000803e3d6000fd5b5050505060006200099689620003ee565b905081600c60008381526020019081526020016000206000600a600085815260200190815260200160002054815260200190815260200160002060006101000a81548173ffffffffffffffffffffffffffffffffffffffff021916908373ffffffffffffffffffffffffffffffffffffffff1602179055506001600a6000838152602001908152602001600020600082825462000a34919062002551565b925050819055506001600860008473ffffffffffffffffffffffffffffffffffffffff1673ffffffffffffffffffffffffffffffffffffffff16815260200190815260200160002060006101000a81548160ff02191690831515021790555060016004600082825462000aa8919062002551565b925050819055508173ffffffffffffffffffffffffffffffffffffffff167fa0786e1009edc9cbf8898c0299c4518c0d18ec943fa88b2af645b4dd024d7a4960405160405180910390a2505050505050505050565b600360009054906101000a900473ffffffffffffffffffffffffffffffffffffffff1681565b60008060003390506000849050600062000b3d89620003ee565b9050600086141562000b6057600a60008281526020019081526020016000205491505b6000806000805b8581101562000c8c5760018262000b7f919062002551565b9150858c888d8762000b92919062002551565b60405160200162000ba69392919062002623565b6040516020818303038152906040528051906020012060001c62000bcb919062002695565b93506001151562000c20600c6000888152602001908152602001600020600087815260200190815260200160002060009054906101000a900473ffffffffffffffffffffffffffffffffffffffff1662000d90565b1515141562000c7657600c6000868152602001908152602001600020600085815260200190815260200160002060009054906101000a900473ffffffffffffffffffffffffffffffffffffffff16925062000c8c565b808062000c839062002229565b91505062000b67565b5081600a6000868152602001908152602001600020549750975050505050505094509492505050565b60008054906101000a900473ffffffffffffffffffffffffffffffffffffffff1673ffffffffffffffffffffffffffffffffffffffff163373ffffffffffffffffffffffffffffffffffffffff161462000d46576040517f08c379a000000000000000000000000000000000000000000000000000000000815260040162000d3d9062002769565b60405180910390fd5b80600160006101000a81548173ffffffffffffffffffffffffffffffffffffffff021916908373ffffffffffffffffffffffffffffffffffffffff16021790555050565b60065481565b6000808273ffffffffffffffffffffffffffffffffffffffff16636726582d6040518163ffffffff1660e01b815260040160206040518083038186803b15801562000dda57600080fd5b505afa15801562000def573d6000803e3d6000fd5b505050506040513d601f19601f8201168201806040525081019062000e159190620027a2565b905060001515600860008573ffffffffffffffffffffffffffffffffffffffff1673ffffffffffffffffffffffffffffffffffffffff16815260200190815260200160002060009054906101000a900460ff161515148062000e78575060055481105b1562000e8957600091505062000e8f565b60019150505b919050565b6060600062000ea383620003ee565b905060008054906101000a900473ffffffffffffffffffffffffffffffffffffffff1673ffffffffffffffffffffffffffffffffffffffff163373ffffffffffffffffffffffffffffffffffffffff161462000f36576040517f08c379a000000000000000000000000000000000000000000000000000000000815260040162000f2d906200235f565b60405180910390fd5b6000600b600083815260200190815260200160002054141562000faa57600067ffffffffffffffff81111562000f715762000f70620017f5565b5b60405190808252806020026020018201604052801562000fa05781602001602082028036833780820191505090505b50915050620010df565b6000600b60008381526020019081526020016000205467ffffffffffffffff81111562000fdc5762000fdb620017f5565b5b6040519080825280602002602001820160405280156200100b5781602001602082028036833780820191505090505b50905060005b600b600084815260200190815260200160002054811015620010d857600d6000848152602001908152602001600020600082815260200190815260200160002060009054906101000a900473ffffffffffffffffffffffffffffffffffffffff16828281518110620010885762001087620020ad565b5b602002602001019073ffffffffffffffffffffffffffffffffffffffff16908173ffffffffffffffffffffffffffffffffffffffff16815250508080620010cf9062002229565b91505062001011565b5080925050505b919050565b600260009054906101000a900473ffffffffffffffffffffffffffffffffffffffff1681565b600781815481106200111b57600080fd5b90600052602060002001600091509050805462001138906200210b565b80601f016020809104026020016040519081016040528092919081815260200182805462001166906200210b565b8015620011b75780601f106200118b57610100808354040283529160200191620011b7565b820191906000526020600020905b8154815290600101906020018083116200119957829003601f168201915b505050505081565b60011515620011ce8262000d90565b15151462001213576040517f08c379a00000000000000000000000000000000000000000000000000000000081526004016200120a906200284a565b60405180910390fd5b60011515600960003373ffffffffffffffffffffffffffffffffffffffff1673ffffffffffffffffffffffffffffffffffffffff16815260200190815260200160002060009054906101000a900460ff16151514620012a9576040517f08c379a0000000000000000000000000000000000000000000000000000000008152600401620012a09062002908565b60405180910390fd5b600260009054906101000a900473ffffffffffffffffffffffffffffffffffffffff1673ffffffffffffffffffffffffffffffffffffffff166359b5ce8e600554836040518363ffffffff1660e01b81526004016200130a9291906200292a565b602060405180830381600087803b1580156200132557600080fd5b505af11580156200133a573d6000803e3d6000fd5b505050506040513d601f19601f82011682018060405250810190620013609190620027a2565b5050565b60011515620013738262000d90565b151514620013b8576040517f08c379a0000000000000000000000000000000000000000000000000000000008152600401620013af906200284a565b60405180910390fd5b60011515600960003373ffffffffffffffffffffffffffffffffffffffff1673ffffffffffffffffffffffffffffffffffffffff16815260200190815260200160002060009054906101000a900460ff161515146200144e576040517f08c379a0000000000000000000000000000000000000000000000000000000008152600401620014459062002908565b60405180910390fd5b600260009054906101000a900473ffffffffffffffffffffffffffffffffffffffff1673ffffffffffffffffffffffffffffffffffffffff166320f97ec060055433846040518463ffffffff1660e01b8152600401620014b19392919062002957565b602060405180830381600087803b158015620014cc57600080fd5b505af1158015620014e1573d6000803e3d6000fd5b505050506040513d601f19601f82011682018060405250810190620015079190620027a2565b5050565b60008483836040516200151e90620017b8565b6200152c9392919062002ab6565b604051809103906000f08015801562001549573d6000803e3d6000fd5b509050600073ffffffffffffffffffffffffffffffffffffffff168473ffffffffffffffffffffffffffffffffffffffff16141562001586573393505b600260009054906101000a900473ffffffffffffffffffffffffffffffffffffffff1673ffffffffffffffffffffffffffffffffffffffff1663cb3b73c382866040518363ffffffff1660e01b8152600401620015e592919062002524565b600060405180830381600087803b1580156200160057600080fd5b505af115801562001615573d6000803e3d6000fd5b505050506001600960008373ffffffffffffffffffffffffffffffffffffffff1673ffffffffffffffffffffffffffffffffffffffff16815260200190815260200160002060006101000a81548160ff02191690831515021790555060006200167e84620003ee565b905081600d60008381526020019081526020016000206000600b600085815260200190815260200160002054815260200190815260200160002060006101000a81548173ffffffffffffffffffffffffffffffffffffffff021916908373ffffffffffffffffffffffffffffffffffffffff1602179055506001600b600083815260200190815260200160002060008282546200171c919062002551565b9250508190555060016006600082825462001738919062002551565b925050819055508173ffffffffffffffffffffffffffffffffffffffff167fa0786e1009edc9cbf8898c0299c4518c0d18ec943fa88b2af645b4dd024d7a4960405160405180910390a2505050505050565b600e6020528060005260406000206000915054906101000a900460ff1681565b61138d8062002b0283390190565b612e128062003e8f83390190565b6000604051905090565b600080fd5b600080fd5b600080fd5b600080fd5b6000601f19601f8301169050919050565b7f4e487b7100000000000000000000000000000000000000000000000000000000600052604160045260246000fd5b6200182f82620017e4565b810181811067ffffffffffffffff82111715620018515762001850620017f5565b5b80604052505050565b600062001866620017c6565b905062001874828262001824565b919050565b600067ffffffffffffffff821115620018975762001896620017f5565b5b620018a282620017e4565b9050602081019050919050565b82818337600083830152505050565b6000620018d5620018cf8462001879565b6200185a565b905082815260208101848484011115620018f457620018f3620017df565b5b62001901848285620018af565b509392505050565b600082601f830112620019215762001920620017da565b5b813562001933848260208601620018be565b91505092915050565b600060208284031215620019555762001954620017d0565b5b600082013567ffffffffffffffff811115620019765762001975620017d5565b5b620019848482850162001909565b91505092915050565b6000819050919050565b620019a2816200198d565b82525050565b6000602082019050620019bf600083018462001997565b92915050565b600073ffffffffffffffffffffffffffffffffffffffff82169050919050565b6000620019f282620019c5565b9050919050565b62001a0481620019e5565b82525050565b600060208201905062001a216000830184620019f9565b92915050565b600081519050919050565b600082825260208201905092915050565b6000819050602082019050919050565b62001a5e81620019e5565b82525050565b600062001a72838362001a53565b60208301905092915050565b6000602082019050919050565b600062001a988262001a27565b62001aa4818562001a32565b935062001ab18362001a43565b8060005b8381101562001ae857815162001acc888262001a64565b975062001ad98362001a7e565b92505060018101905062001ab5565b5085935050505092915050565b6000602082019050818103600083015262001b11818462001a8b565b905092915050565b62001b24816200198d565b811462001b3057600080fd5b50565b60008135905062001b448162001b19565b92915050565b62001b5581620019e5565b811462001b6157600080fd5b50565b60008135905062001b758162001b4a565b92915050565b60008060008060008060c0878903121562001b9b5762001b9a620017d0565b5b600087013567ffffffffffffffff81111562001bbc5762001bbb620017d5565b5b62001bca89828a0162001909565b965050602087013567ffffffffffffffff81111562001bee5762001bed620017d5565b5b62001bfc89828a0162001909565b955050604062001c0f89828a0162001b33565b945050606087013567ffffffffffffffff81111562001c335762001c32620017d5565b5b62001c4189828a0162001909565b935050608087013567ffffffffffffffff81111562001c655762001c64620017d5565b5b62001c7389828a0162001909565b92505060a062001c8689828a0162001b64565b9150509295509295509295565b6000806000806080858703121562001cb05762001caf620017d0565b5b600085013567ffffffffffffffff81111562001cd15762001cd0620017d5565b5b62001cdf8782880162001909565b945050602062001cf28782880162001b64565b935050604062001d058782880162001b33565b925050606062001d188782880162001b33565b91505092959194509250565b600060408201905062001d3b6000830185620019f9565b62001d4a602083018462001997565b9392505050565b60006020828403121562001d6a5762001d69620017d0565b5b600062001d7a8482850162001b64565b91505092915050565b60008115159050919050565b62001d9a8162001d83565b82525050565b600060208201905062001db7600083018462001d8f565b92915050565b60006020828403121562001dd65762001dd5620017d0565b5b600062001de68482850162001b33565b91505092915050565b600081519050919050565b600082825260208201905092915050565b60005b8381101562001e2b57808201518184015260208101905062001e0e565b8381111562001e3b576000848401525b50505050565b600062001e4e8262001def565b62001e5a818562001dfa565b935062001e6c81856020860162001e0b565b62001e7781620017e4565b840191505092915050565b6000602082019050818103600083015262001e9e818462001e41565b905092915050565b600067ffffffffffffffff82111562001ec45762001ec3620017f5565b5b602082029050602081019050919050565b600080fd5b600062001ef162001eeb8462001ea6565b6200185a565b9050808382526020820190506020840283018581111562001f175762001f1662001ed5565b5b835b8181101562001f6557803567ffffffffffffffff81111562001f405762001f3f620017da565b5b80860162001f4f898262001909565b8552602085019450505060208101905062001f19565b5050509392505050565b600082601f83011262001f875762001f86620017da565b5b813562001f9984826020860162001eda565b91505092915050565b6000806000806080858703121562001fbf5762001fbe620017d0565b5b600062001fcf8782880162001b64565b945050602062001fe28782880162001b64565b935050604085013567ffffffffffffffff811115620020065762002005620017d5565b5b620020148782880162001909565b925050606085013567ffffffffffffffff811115620020385762002037620017d5565b5b620020468782880162001f6f565b91505092959194509250565b600081905092915050565b60006200206a8262001def565b62002076818562002052565b93506200208881856020860162001e0b565b80840191505092915050565b6000620020a282846200205d565b915081905092915050565b7f4e487b7100000000000000000000000000000000000000000000000000000000600052603260045260246000fd5b7f4e487b7100000000000000000000000000000000000000000000000000000000600052602260045260246000fd5b600060028204905060018216806200212457607f821691505b602082108114156200213b576200213a620020dc565b5b50919050565b60008190508160005260206000209050919050565b6000815462002165816200210b565b62002171818662002052565b945060018216600081146200218f5760018114620021a157620021d8565b60ff19831686528186019350620021d8565b620021ac8562002141565b60005b83811015620021d057815481890152600182019150602081019050620021af565b838801955050505b50505092915050565b6000620021ef828462002156565b915081905092915050565b7f4e487b7100000000000000000000000000000000000000000000000000000000600052601160045260246000fd5b600062002236826200198d565b91507fffffffffffffffffffffffffffffffffffffffffffffffffffffffffffffffff8214156200226c576200226b620021fa565b5b600182019050919050565b7f43617465676f7279206e6f7420737570706f7274656400000000000000000000600082015250565b6000620022af60168362001dfa565b9150620022bc8262002277565b602082019050919050565b60006020820190508181036000830152620022e281620022a0565b9050919050565b7f5468652061646472657373206c6973742063616e206f6e6c792062652076696560008201527f7765642062792074686520636f6e7472616374206465706c6f79657200000000602082015250565b600062002347603c8362001dfa565b91506200235482620022e9565b604082019050919050565b600060208201905081810360008301526200237a8162002338565b9050919050565b7f4164205370656e64206d75737420626520686967686572207468616e2074686560008201527f20636f7374206f66207370656e642070657220646973706c6179000000000000602082015250565b6000620023df603a8362001dfa565b9150620023ec8262002381565b604082019050919050565b600060208201905081810360008301526200241281620023d0565b9050919050565b7f5472656173757279206e6565647320746f20626520696e697469616c697a6564600082015250565b60006200245160208362001dfa565b91506200245e8262002419565b602082019050919050565b60006020820190508181036000830152620024848162002442565b9050919050565b600060e082019050620024a2600083018a620019f9565b620024b16020830189620019f9565b8181036040830152620024c5818862001e41565b90508181036060830152620024db818762001e41565b9050620024ec608083018662001997565b81810360a083015262002500818562001e41565b905081810360c083015262002516818462001e41565b905098975050505050505050565b60006040820190506200253b6000830185620019f9565b6200254a6020830184620019f9565b9392505050565b60006200255e826200198d565b91506200256b836200198d565b9250827fffffffffffffffffffffffffffffffffffffffffffffffffffffffffffffffff03821115620025a357620025a2620021fa565b5b828201905092915050565b60008160601b9050919050565b6000620025c882620025ae565b9050919050565b6000620025dc82620025bb565b9050919050565b620025f8620025f282620019e5565b620025cf565b82525050565b6000819050919050565b6200261d62002617826200198d565b620025fe565b82525050565b6000620026318286620025e3565b601482019150620026438285620025e3565b60148201915062002655828462002608565b602082019150819050949350505050565b7f4e487b7100000000000000000000000000000000000000000000000000000000600052601260045260246000fd5b6000620026a2826200198d565b9150620026af836200198d565b925082620026c257620026c162002666565b5b828206905092915050565b7f46756e6374696f6e2063616e206f6e6c792062652063616c6c6564206279207460008201527f6865206f726967696e616c206465706c6f796572206f6620746865206661637460208201527f6f72790000000000000000000000000000000000000000000000000000000000604082015250565b60006200275160438362001dfa565b91506200275e82620026cd565b606082019050919050565b60006020820190508181036000830152620027848162002742565b9050919050565b6000815190506200279c8162001b19565b92915050565b600060208284031215620027bb57620027ba620017d0565b5b6000620027cb848285016200278b565b91505092915050565b7f43616d706169676e20746f20757064617465207370656e6420696e76616c696460008201527f206f7220636c6f73656400000000000000000000000000000000000000000000602082015250565b600062002832602a8362001dfa565b91506200283f82620027d4565b604082019050919050565b60006020820190508181036000830152620028658162002823565b9050919050565b7f546869732066756e6374696f6e2063616e206f6e6c792062652063616c6c656460008201527f2066726f6d20616e206f70656e20696e7465677261746f7220636f6e7472616360208201527f7400000000000000000000000000000000000000000000000000000000000000604082015250565b6000620028f060418362001dfa565b9150620028fd826200286c565b606082019050919050565b600060208201905081810360008301526200292381620028e1565b9050919050565b600060408201905062002941600083018562001997565b620029506020830184620019f9565b9392505050565b60006060820190506200296e600083018662001997565b6200297d6020830185620019f9565b6200298c6040830184620019f9565b949350505050565b600081519050919050565b600082825260208201905092915050565b6000819050602082019050919050565b600082825260208201905092915050565b6000620029de8262001def565b620029ea8185620029c0565b9350620029fc81856020860162001e0b565b62002a0781620017e4565b840191505092915050565b600062002a208383620029d1565b905092915050565b6000602082019050919050565b600062002a428262002994565b62002a4e81856200299f565b93508360208202850162002a6285620029b0565b8060005b8581101562002aa4578484038952815162002a82858262002a12565b945062002a8f8362002a28565b925060208a0199505060018101905062002a66565b50829750879550505050505092915050565b600060608201905062002acd6000830186620019f9565b818103602083015262002ae1818562001e41565b9050818103604083015262002af7818462002a35565b905094935050505056fe608060405260008060006101000a81548160ff021916908315150217905550600060025560006003553480156200003557600080fd5b506040516200138d3803806200138d83398181016040528101906200005b91906200053d565b85600560006101000a81548173ffffffffffffffffffffffffffffffffffffffff021916908373ffffffffffffffffffffffffffffffffffffffff160217905550604051602001620000ad90620006c7565b6040516020818303038152906040528051906020012085604051602001620000d6919062000720565b604051602081830303815290604052805190602001201462000105576200010483886200019e60201b60201c565b5b33600460006101000a81548173ffffffffffffffffffffffffffffffffffffffff021916908373ffffffffffffffffffffffffffffffffffffffff16021790555081600790805190602001906200015e92919062000250565b5080600890805190602001906200017792919062000250565b5084600690805190602001906200019092919062000250565b505050505050505062000879565b8160016000828254620001b2919062000768565b92505081905550600560009054906101000a900473ffffffffffffffffffffffffffffffffffffffff1673ffffffffffffffffffffffffffffffffffffffff16633dd21e2883836040518363ffffffff1660e01b815260040162000218929190620007e7565b600060405180830381600087803b1580156200023357600080fd5b505af115801562000248573d6000803e3d6000fd5b505050505050565b8280546200025e9062000843565b90600052602060002090601f016020900481019282620002825760008555620002ce565b82601f106200029d57805160ff1916838001178555620002ce565b82800160010185558215620002ce579182015b82811115620002cd578251825591602001919060010190620002b0565b5b509050620002dd9190620002e1565b5090565b5b80821115620002fc576000816000905550600101620002e2565b5090565b6000604051905090565b600080fd5b600080fd5b600073ffffffffffffffffffffffffffffffffffffffff82169050919050565b6000620003418262000314565b9050919050565b620003538162000334565b81146200035f57600080fd5b50565b600081519050620003738162000348565b92915050565b600080fd5b600080fd5b6000601f19601f8301169050919050565b7f4e487b7100000000000000000000000000000000000000000000000000000000600052604160045260246000fd5b620003ce8262000383565b810181811067ffffffffffffffff82111715620003f057620003ef62000394565b5b80604052505050565b60006200040562000300565b9050620004138282620003c3565b919050565b600067ffffffffffffffff82111562000436576200043562000394565b5b620004418262000383565b9050602081019050919050565b60005b838110156200046e57808201518184015260208101905062000451565b838111156200047e576000848401525b50505050565b60006200049b620004958462000418565b620003f9565b905082815260208101848484011115620004ba57620004b96200037e565b5b620004c78482856200044e565b509392505050565b600082601f830112620004e757620004e662000379565b5b8151620004f984826020860162000484565b91505092915050565b6000819050919050565b620005178162000502565b81146200052357600080fd5b50565b60008151905062000537816200050c565b92915050565b600080600080600080600060e0888a0312156200055f576200055e6200030a565b5b60006200056f8a828b0162000362565b9750506020620005828a828b0162000362565b965050604088015167ffffffffffffffff811115620005a657620005a56200030f565b5b620005b48a828b01620004cf565b955050606088015167ffffffffffffffff811115620005d857620005d76200030f565b5b620005e68a828b01620004cf565b9450506080620005f98a828b0162000526565b93505060a088015167ffffffffffffffff8111156200061d576200061c6200030f565b5b6200062b8a828b01620004cf565b92505060c088015167ffffffffffffffff8111156200064f576200064e6200030f565b5b6200065d8a828b01620004cf565b91505092959891949750929550565b600081905092915050565b7f66616c6c6261636b000000000000000000000000000000000000000000000000600082015250565b6000620006af6008836200066c565b9150620006bc8262000677565b600882019050919050565b6000620006d482620006a0565b9150819050919050565b600081519050919050565b6000620006f682620006de565b6200070281856200066c565b9350620007148185602086016200044e565b80840191505092915050565b60006200072e8284620006e9565b915081905092915050565b7f4e487b7100000000000000000000000000000000000000000000000000000000600052601160045260246000fd5b6000620007758262000502565b9150620007828362000502565b9250827fffffffffffffffffffffffffffffffffffffffffffffffffffffffffffffffff03821115620007ba57620007b962000739565b5b828201905092915050565b620007d08162000502565b82525050565b620007e18162000334565b82525050565b6000604082019050620007fe6000830185620007c5565b6200080d6020830184620007d6565b9392505050565b7f4e487b7100000000000000000000000000000000000000000000000000000000600052602260045260246000fd5b600060028204905060018216806200085c57607f821691505b6020821081141562000873576200087262000814565b5b50919050565b610b0480620008896000396000f3fe608060405234801561001057600080fd5b506004361061009e5760003560e01c8063835a617211610066578063835a61721461010f578063a4a484491461012d578063b2f2224c14610149578063ca83474014610167578063dfff0b20146101855761009e565b8063209077cc146100a35780633869625b146100ad5780633dd21e28146100b75780636726582d146100d35780636be5fa86146100f1575b600080fd5b6100ab6101a3565b005b6100b56101bf565b005b6100d160048036038101906100cc91906106d3565b6101db565b005b6100db610287565b6040516100e89190610722565b60405180910390f35b6100f9610333565b6040516101069190610722565b60405180910390f35b610117610339565b60405161012491906107d6565b60405180910390f35b610147600480360381019061014291906107f8565b6103c7565b005b6101516105a0565b60405161015e9190610722565b60405180910390f35b61016f6105a6565b60405161017c9190610722565b60405180910390f35b61018d6105ac565b60405161019a91906107d6565b60405180910390f35b6001600360008282546101b69190610854565b92505081905550565b6001600260008282546101d29190610854565b92505081905550565b81600160008282546101ed9190610854565b92505081905550600560009054906101000a900473ffffffffffffffffffffffffffffffffffffffff1673ffffffffffffffffffffffffffffffffffffffff16633dd21e2883836040518363ffffffff1660e01b81526004016102519291906108b9565b600060405180830381600087803b15801561026b57600080fd5b505af115801561027f573d6000803e3d6000fd5b505050505050565b600080600560009054906101000a900473ffffffffffffffffffffffffffffffffffffffff1690508073ffffffffffffffffffffffffffffffffffffffff1663e8b291c66040518163ffffffff1660e01b815260040160206040518083038186803b1580156102f557600080fd5b505afa158015610309573d6000803e3d6000fd5b505050506040513d601f19601f8201168201806040525081019061032d91906108f7565b91505090565b60035481565b6007805461034690610953565b80601f016020809104026020016040519081016040528092919081815260200182805461037290610953565b80156103bf5780601f10610394576101008083540402835291602001916103bf565b820191906000526020600020905b8154815290600101906020018083116103a257829003601f168201915b505050505081565b600560009054906101000a900473ffffffffffffffffffffffffffffffffffffffff1673ffffffffffffffffffffffffffffffffffffffff1663ca174a55306040518263ffffffff1660e01b81526004016104229190610985565b60206040518083038186803b15801561043a57600080fd5b505afa15801561044e573d6000803e3d6000fd5b505050506040513d601f19601f8201168201806040525081019061047291906109b5565b73ffffffffffffffffffffffffffffffffffffffff163373ffffffffffffffffffffffffffffffffffffffff16146104df576040517f08c379a00000000000000000000000000000000000000000000000000000000081526004016104d690610a7a565b60405180910390fd5b6001548110156105075780600160008282546104fb9190610a9a565b92505081905550610510565b60006001819055505b600560009054906101000a900473ffffffffffffffffffffffffffffffffffffffff1673ffffffffffffffffffffffffffffffffffffffff16631d7eb493826040518263ffffffff1660e01b815260040161056b9190610722565b600060405180830381600087803b15801561058557600080fd5b505af1158015610599573d6000803e3d6000fd5b5050505050565b60015481565b60025481565b600880546105b990610953565b80601f01602080910402602001604051908101604052809291908181526020018280546105e590610953565b80156106325780601f1061060757610100808354040283529160200191610632565b820191906000526020600020905b81548152906001019060200180831161061557829003601f168201915b505050505081565b600080fd5b6000819050919050565b6106528161063f565b811461065d57600080fd5b50565b60008135905061066f81610649565b92915050565b600073ffffffffffffffffffffffffffffffffffffffff82169050919050565b60006106a082610675565b9050919050565b6106b081610695565b81146106bb57600080fd5b50565b6000813590506106cd816106a7565b92915050565b600080604083850312156106ea576106e961063a565b5b60006106f885828601610660565b9250506020610709858286016106be565b9150509250929050565b61071c8161063f565b82525050565b60006020820190506107376000830184610713565b92915050565b600081519050919050565b600082825260208201905092915050565b60005b8381101561077757808201518184015260208101905061075c565b83811115610786576000848401525b50505050565b6000601f19601f8301169050919050565b60006107a88261073d565b6107b28185610748565b93506107c2818560208601610759565b6107cb8161078c565b840191505092915050565b600060208201905081810360008301526107f0818461079d565b905092915050565b60006020828403121561080e5761080d61063a565b5b600061081c84828501610660565b91505092915050565b7f4e487b7100000000000000000000000000000000000000000000000000000000600052601160045260246000fd5b600061085f8261063f565b915061086a8361063f565b9250827fffffffffffffffffffffffffffffffffffffffffffffffffffffffffffffffff0382111561089f5761089e610825565b5b828201905092915050565b6108b381610695565b82525050565b60006040820190506108ce6000830185610713565b6108db60208301846108aa565b9392505050565b6000815190506108f181610649565b92915050565b60006020828403121561090d5761090c61063a565b5b600061091b848285016108e2565b91505092915050565b7f4e487b7100000000000000000000000000000000000000000000000000000000600052602260045260246000fd5b6000600282049050600182168061096b57607f821691505b6020821081141561097f5761097e610924565b5b50919050565b600060208201905061099a60008301846108aa565b92915050565b6000815190506109af816106a7565b92915050565b6000602082840312156109cb576109ca61063a565b5b60006109d9848285016109a0565b91505092915050565b7f43616d706169676e2066756e642077697468647261772063616e206f6e6c792060008201527f626520696e6974696174656420627920617070726f7665642063616d7061696760208201527f6e20776974686472617720616464726573732e00000000000000000000000000604082015250565b6000610a64605383610748565b9150610a6f826109e2565b606082019050919050565b60006020820190508181036000830152610a9381610a57565b9050919050565b6000610aa58261063f565b9150610ab08361063f565b925082821015610ac357610ac2610825565b5b82820390509291505056fea2646970667358221220f636da7dee25735793cff766a94b7a2ef5ac1171cae8f5f74823bc06daeef5fb64736f6c6343000809003360806040523480156200001157600080fd5b5060405162002e1238038062002e12833981810160405281019062000037919062000674565b81600390805190602001906200004f929190620002c6565b50336000806101000a81548173ffffffffffffffffffffffffffffffffffffffff021916908373ffffffffffffffffffffffffffffffffffffffff16021790555060008060009054906101000a900473ffffffffffffffffffffffffffffffffffffffff1690508073ffffffffffffffffffffffffffffffffffffffff16631a465fe16040518163ffffffff1660e01b815260040160206040518083038186803b158015620000fd57600080fd5b505afa15801562000112573d6000803e3d6000fd5b505050506040513d601f19601f820116820180604052508101906200013891906200070e565b600160006101000a81548173ffffffffffffffffffffffffffffffffffffffff021916908373ffffffffffffffffffffffffffffffffffffffff16021790555083600260006101000a81548173ffffffffffffffffffffffffffffffffffffffff021916908373ffffffffffffffffffffffffffffffffffffffff16021790555060005b8251811015620002bb576000838281518110620001de57620001dd62000740565b5b60200260200101518051906020012090506001600b6000837bffffffffffffffffffffffffffffffffffffffffffffffffffffffff19167bffffffffffffffffffffffffffffffffffffffffffffffffffffffff1916815260200190815260200160002060006101000a81548160ff02191690831515021790555060068190806001815401808255809150506001900390600052602060002090600891828204019190066004029091909190916101000a81548163ffffffff021916908360e01c0217905550508080620002b290620007a8565b915050620001bc565b50505050506200085b565b828054620002d49062000825565b90600052602060002090601f016020900481019282620002f8576000855562000344565b82601f106200031357805160ff191683800117855562000344565b8280016001018555821562000344579182015b828111156200034357825182559160200191906001019062000326565b5b50905062000353919062000357565b5090565b5b808211156200037257600081600090555060010162000358565b5090565b6000604051905090565b600080fd5b600080fd5b600073ffffffffffffffffffffffffffffffffffffffff82169050919050565b6000620003b7826200038a565b9050919050565b620003c981620003aa565b8114620003d557600080fd5b50565b600081519050620003e981620003be565b92915050565b600080fd5b600080fd5b6000601f19601f8301169050919050565b7f4e487b7100000000000000000000000000000000000000000000000000000000600052604160045260246000fd5b6200044482620003f9565b810181811067ffffffffffffffff821117156200046657620004656200040a565b5b80604052505050565b60006200047b62000376565b905062000489828262000439565b919050565b600067ffffffffffffffff821115620004ac57620004ab6200040a565b5b620004b782620003f9565b9050602081019050919050565b60005b83811015620004e4578082015181840152602081019050620004c7565b83811115620004f4576000848401525b50505050565b6000620005116200050b846200048e565b6200046f565b90508281526020810184848401111562000530576200052f620003f4565b5b6200053d848285620004c4565b509392505050565b600082601f8301126200055d576200055c620003ef565b5b81516200056f848260208601620004fa565b91505092915050565b600067ffffffffffffffff8211156200059657620005956200040a565b5b602082029050602081019050919050565b600080fd5b6000620005c3620005bd8462000578565b6200046f565b90508083825260208201905060208402830185811115620005e957620005e8620005a7565b5b835b818110156200063757805167ffffffffffffffff811115620006125762000611620003ef565b5b80860162000621898262000545565b85526020850194505050602081019050620005eb565b5050509392505050565b600082601f830112620006595762000658620003ef565b5b81516200066b848260208601620005ac565b91505092915050565b60008060006060848603121562000690576200068f62000380565b5b6000620006a086828701620003d8565b935050602084015167ffffffffffffffff811115620006c457620006c362000385565b5b620006d28682870162000545565b925050604084015167ffffffffffffffff811115620006f657620006f562000385565b5b620007048682870162000641565b9150509250925092565b60006020828403121562000727576200072662000380565b5b60006200073784828501620003d8565b91505092915050565b7f4e487b7100000000000000000000000000000000000000000000000000000000600052603260045260246000fd5b7f4e487b7100000000000000000000000000000000000000000000000000000000600052601160045260246000fd5b6000819050919050565b6000620007b5826200079e565b91507fffffffffffffffffffffffffffffffffffffffffffffffffffffffffffffffff821415620007eb57620007ea6200076f565b5b600182019050919050565b7f4e487b7100000000000000000000000000000000000000000000000000000000600052602260045260246000fd5b600060028204905060018216806200083e57607f821691505b60208210811415620008555762000854620007f6565b5b50919050565b6125a7806200086b6000396000f3fe608060405234801561001057600080fd5b50600436106100a85760003560e01c8063626453a311610071578063626453a3146101415780637ab2f16b146101715780638ce74426146101a1578063b09df36a146101bf578063f251c35b146101dd578063f97925341461020d576100a8565b806263a437146100ad578063186e59d7146100cb5780633fa408bc146100e95780634001d1a2146101055780634b54c97c14610123575b600080fd5b6100b561023d565b6040516100c291906115f4565b60405180910390f35b6100d3610243565b6040516100e091906115f4565b60405180910390f35b61010360048036038101906100fe919061164f565b610370565b005b61010d61057e565b60405161011a91906115f4565b60405180910390f35b61012b6106ab565b60405161013891906116bd565b60405180910390f35b61015b60048036038101906101569190611876565b610852565b6040516101689190611989565b60405180910390f35b61018b6004803603810190610186919061164f565b610db3565b60405161019891906119ba565b60405180910390f35b6101a9610dea565b6040516101b691906116bd565b60405180910390f35b6101c7610e10565b6040516101d49190611a93565b60405180910390f35b6101f760048036038101906101f29190611ae1565b610f26565b6040516102049190611b58565b60405180910390f35b61022760048036038101906102229190611b73565b611023565b6040516102349190611b58565b60405180910390f35b60055481565b60008060008054906101000a900473ffffffffffffffffffffffffffffffffffffffff16905060008173ffffffffffffffffffffffffffffffffffffffff1663c5f956af6040518163ffffffff1660e01b815260040160206040518083038186803b1580156102b157600080fd5b505afa1580156102c5573d6000803e3d6000fd5b505050506040513d601f19601f820116820180604052508101906102e99190611bb5565b90508073ffffffffffffffffffffffffffffffffffffffff1663aef93fc06040518163ffffffff1660e01b815260040160206040518083038186803b15801561033157600080fd5b505afa158015610345573d6000803e3d6000fd5b505050506040513d601f19601f820116820180604052508101906103699190611bf7565b9250505090565b60008060009054906101000a900473ffffffffffffffffffffffffffffffffffffffff16905060008173ffffffffffffffffffffffffffffffffffffffff1663c5f956af6040518163ffffffff1660e01b815260040160206040518083038186803b1580156103de57600080fd5b505afa1580156103f2573d6000803e3d6000fd5b505050506040513d601f19601f820116820180604052508101906104169190611bb5565b90508073ffffffffffffffffffffffffffffffffffffffff1663dd17862e306040518263ffffffff1660e01b815260040161045191906116bd565b60206040518083038186803b15801561046957600080fd5b505afa15801561047d573d6000803e3d6000fd5b505050506040513d601f19601f820116820180604052508101906104a19190611bb5565b73ffffffffffffffffffffffffffffffffffffffff163373ffffffffffffffffffffffffffffffffffffffff161461050e576040517f08c379a000000000000000000000000000000000000000000000000000000000815260040161050590611ccd565b60405180910390fd5b8073ffffffffffffffffffffffffffffffffffffffff16633fa408bc846040518263ffffffff1660e01b815260040161054791906115f4565b600060405180830381600087803b15801561056157600080fd5b505af1158015610575573d6000803e3d6000fd5b50505050505050565b60008060008054906101000a900473ffffffffffffffffffffffffffffffffffffffff16905060008173ffffffffffffffffffffffffffffffffffffffff1663c5f956af6040518163ffffffff1660e01b815260040160206040518083038186803b1580156105ec57600080fd5b505afa158015610600573d6000803e3d6000fd5b505050506040513d601f19601f820116820180604052508101906106249190611bb5565b90508073ffffffffffffffffffffffffffffffffffffffff16632db34df56040518163ffffffff1660e01b815260040160206040518083038186803b15801561066c57600080fd5b505afa158015610680573d6000803e3d6000fd5b505050506040513d601f19601f820116820180604052508101906106a49190611bf7565b9250505090565b60008073ffffffffffffffffffffffffffffffffffffffff16600860003373ffffffffffffffffffffffffffffffffffffffff1673ffffffffffffffffffffffffffffffffffffffff16815260200190815260200160002060009054906101000a900473ffffffffffffffffffffffffffffffffffffffff1673ffffffffffffffffffffffffffffffffffffffff1614156107ec5760008060009054906101000a900473ffffffffffffffffffffffffffffffffffffffff1690508073ffffffffffffffffffffffffffffffffffffffff16634e1448996040518163ffffffff1660e01b815260040160206040518083038186803b1580156107ac57600080fd5b505afa1580156107c0573d6000803e3d6000fd5b505050506040513d601f19601f820116820180604052508101906107e49190611bb5565b91505061084f565b600860003373ffffffffffffffffffffffffffffffffffffffff1673ffffffffffffffffffffffffffffffffffffffff16815260200190815260200160002060009054906101000a900473ffffffffffffffffffffffffffffffffffffffff1690505b90565b606060006108603386610f26565b905060011515811515146108a9576040517f08c379a00000000000000000000000000000000000000000000000000000000081526004016108a090611dab565b60405180910390fd5b60011515600b6000867bffffffffffffffffffffffffffffffffffffffffffffffffffffffff19167bffffffffffffffffffffffffffffffffffffffffffffffffffffffff1916815260200190815260200160002060009054906101000a900460ff1615151461094e576040517f08c379a000000000000000000000000000000000000000000000000000000000815260040161094590611e3d565b60405180910390fd5b60008060009054906101000a900473ffffffffffffffffffffffffffffffffffffffff1690506000600860003373ffffffffffffffffffffffffffffffffffffffff1673ffffffffffffffffffffffffffffffffffffffff16815260200190815260200160002060009054906101000a900473ffffffffffffffffffffffffffffffffffffffff169050600073ffffffffffffffffffffffffffffffffffffffff168173ffffffffffffffffffffffffffffffffffffffff1614158015610abe57508173ffffffffffffffffffffffffffffffffffffffff16634e1448996040518163ffffffff1660e01b815260040160206040518083038186803b158015610a5657600080fd5b505afa158015610a6a573d6000803e3d6000fd5b505050506040513d601f19601f82011682018060405250810190610a8e9190611bb5565b73ffffffffffffffffffffffffffffffffffffffff168173ffffffffffffffffffffffffffffffffffffffff1614155b15610ba9578073ffffffffffffffffffffffffffffffffffffffff16633869625b6040518163ffffffff1660e01b8152600401600060405180830381600087803b158015610b0b57600080fd5b505af1158015610b1f573d6000803e3d6000fd5b505050508173ffffffffffffffffffffffffffffffffffffffff1663e165bcdf826040518263ffffffff1660e01b8152600401610b5c91906116bd565b600060405180830381600087803b158015610b7657600080fd5b505af1158015610b8a573d6000803e3d6000fd5b50505050600160056000828254610ba19190611e8c565b925050819055505b6000610bb433611043565b9050600073ffffffffffffffffffffffffffffffffffffffff168173ffffffffffffffffffffffffffffffffffffffff161415610c26576040517f08c379a0000000000000000000000000000000000000000000000000000000008152600401610c1d90611f2e565b60405180910390fd5b8273ffffffffffffffffffffffffffffffffffffffff1663d9724f74826040518263ffffffff1660e01b8152600401610c5f91906116bd565b600060405180830381600087803b158015610c7957600080fd5b505af1158015610c8d573d6000803e3d6000fd5b505050508073ffffffffffffffffffffffffffffffffffffffff1663209077cc6040518163ffffffff1660e01b8152600401600060405180830381600087803b158015610cd957600080fd5b505af1158015610ced573d6000803e3d6000fd5b50505050600080600260009054906101000a900473ffffffffffffffffffffffffffffffffffffffff1673ffffffffffffffffffffffffffffffffffffffff168989604051602001610d40929190611fab565b604051602081830303815290604052604051610d5c9190611fd3565b6000604051808303816000865af19150503d8060008114610d99576040519150601f19603f3d011682016040523d82523d6000602084013e610d9e565b606091505b50915091508096505050505050509392505050565b60068181548110610dc357600080fd5b9060005260206000209060089182820401919006600402915054906101000a900460e01b81565b600260009054906101000a900473ffffffffffffffffffffffffffffffffffffffff1681565b60606000600680549050905060008167ffffffffffffffff811115610e3857610e376116f3565b5b604051908082528060200260200182016040528015610e665781602001602082028036833780820191505090505b50905060005b82811015610f1d5760068181548110610e8857610e87611fea565b5b90600052602060002090600891828204019190066004029054906101000a900460e01b828281518110610ebe57610ebd611fea565b5b60200260200101907bffffffffffffffffffffffffffffffffffffffffffffffffffffffff191690817bffffffffffffffffffffffffffffffffffffffffffffffffffffffff1916815250508080610f1590612019565b915050610e6c565b50809250505090565b600080600860003373ffffffffffffffffffffffffffffffffffffffff1673ffffffffffffffffffffffffffffffffffffffff16815260200190815260200160002060009054906101000a900473ffffffffffffffffffffffffffffffffffffffff16604051602001610f9991906120aa565b60405160208183030381529060405290506000815182604051602001610fc092919061213d565b6040516020818303038152906040528051906020012090506000610fe48286611311565b90503390508573ffffffffffffffffffffffffffffffffffffffff168173ffffffffffffffffffffffffffffffffffffffff1614935050505092915050565b600b6020528060005260406000206000915054906101000a900460ff1681565b60008060008054906101000a900473ffffffffffffffffffffffffffffffffffffffff1690506000808273ffffffffffffffffffffffffffffffffffffffff166354cce28a600387600760008a73ffffffffffffffffffffffffffffffffffffffff1673ffffffffffffffffffffffffffffffffffffffff16815260200190815260200160002054600960008b73ffffffffffffffffffffffffffffffffffffffff1673ffffffffffffffffffffffffffffffffffffffff168152602001908152602001600020546040518563ffffffff1660e01b815260040161112a9493929190612266565b604080518083038186803b15801561114157600080fd5b505afa158015611155573d6000803e3d6000fd5b505050506040513d601f19601f8201168201806040525081019061117991906122b2565b9150915080600960008773ffffffffffffffffffffffffffffffffffffffff1673ffffffffffffffffffffffffffffffffffffffff1681526020019081526020016000208190555081600860008773ffffffffffffffffffffffffffffffffffffffff1673ffffffffffffffffffffffffffffffffffffffff16815260200190815260200160002060006101000a81548173ffffffffffffffffffffffffffffffffffffffff021916908373ffffffffffffffffffffffffffffffffffffffff1602179055506001600760008773ffffffffffffffffffffffffffffffffffffffff1673ffffffffffffffffffffffffffffffffffffffff168152602001908152602001600020600082825461128f9190611e8c565b92505081905550600073ffffffffffffffffffffffffffffffffffffffff168273ffffffffffffffffffffffffffffffffffffffff161415611306576040517f08c379a00000000000000000000000000000000000000000000000000000000081526004016112fd9061233e565b60405180910390fd5b819350505050919050565b60008060006113208585611338565b9150915061132d8161138a565b819250505092915050565b60008060418351141561137a5760008060006020860151925060408601519150606086015160001a905061136e878285856114f8565b94509450505050611383565b60006002915091505b9250929050565b6000600481111561139e5761139d61235e565b5b8160048111156113b1576113b061235e565b5b14156113bc576114f5565b600160048111156113d0576113cf61235e565b5b8160048111156113e3576113e261235e565b5b1415611424576040517f08c379a000000000000000000000000000000000000000000000000000000000815260040161141b906123d9565b60405180910390fd5b600260048111156114385761143761235e565b5b81600481111561144b5761144a61235e565b5b141561148c576040517f08c379a000000000000000000000000000000000000000000000000000000000815260040161148390612445565b60405180910390fd5b600360048111156114a05761149f61235e565b5b8160048111156114b3576114b261235e565b5b14156114f4576040517f08c379a00000000000000000000000000000000000000000000000000000000081526004016114eb906124d7565b60405180910390fd5b5b50565b6000807f7fffffffffffffffffffffffffffffff5d576e7357a4501ddfe92f46681b20a08360001c11156115335760006003915091506115d2565b600060018787878760405160008152602001604052604051611558949392919061252c565b6020604051602081039080840390855afa15801561157a573d6000803e3d6000fd5b505050602060405103519050600073ffffffffffffffffffffffffffffffffffffffff168173ffffffffffffffffffffffffffffffffffffffff1614156115c9576000600192509250506115d2565b80600092509250505b94509492505050565b6000819050919050565b6115ee816115db565b82525050565b600060208201905061160960008301846115e5565b92915050565b6000604051905090565b600080fd5b600080fd5b61162c816115db565b811461163757600080fd5b50565b60008135905061164981611623565b92915050565b60006020828403121561166557611664611619565b5b60006116738482850161163a565b91505092915050565b600073ffffffffffffffffffffffffffffffffffffffff82169050919050565b60006116a78261167c565b9050919050565b6116b78161169c565b82525050565b60006020820190506116d260008301846116ae565b92915050565b600080fd5b600080fd5b6000601f19601f8301169050919050565b7f4e487b7100000000000000000000000000000000000000000000000000000000600052604160045260246000fd5b61172b826116e2565b810181811067ffffffffffffffff8211171561174a576117496116f3565b5b80604052505050565b600061175d61160f565b90506117698282611722565b919050565b600067ffffffffffffffff821115611789576117886116f3565b5b611792826116e2565b9050602081019050919050565b82818337600083830152505050565b60006117c16117bc8461176e565b611753565b9050828152602081018484840111156117dd576117dc6116dd565b5b6117e884828561179f565b509392505050565b600082601f830112611805576118046116d8565b5b81356118158482602086016117ae565b91505092915050565b60007fffffffff0000000000000000000000000000000000000000000000000000000082169050919050565b6118538161181e565b811461185e57600080fd5b50565b6000813590506118708161184a565b92915050565b60008060006060848603121561188f5761188e611619565b5b600084013567ffffffffffffffff8111156118ad576118ac61161e565b5b6118b9868287016117f0565b93505060206118ca86828701611861565b925050604084013567ffffffffffffffff8111156118eb576118ea61161e565b5b6118f7868287016117f0565b9150509250925092565b600081519050919050565b600082825260208201905092915050565b60005b8381101561193b578082015181840152602081019050611920565b8381111561194a576000848401525b50505050565b600061195b82611901565b611965818561190c565b935061197581856020860161191d565b61197e816116e2565b840191505092915050565b600060208201905081810360008301526119a38184611950565b905092915050565b6119b48161181e565b82525050565b60006020820190506119cf60008301846119ab565b92915050565b600081519050919050565b600082825260208201905092915050565b6000819050602082019050919050565b611a0a8161181e565b82525050565b6000611a1c8383611a01565b60208301905092915050565b6000602082019050919050565b6000611a40826119d5565b611a4a81856119e0565b9350611a55836119f1565b8060005b83811015611a86578151611a6d8882611a10565b9750611a7883611a28565b925050600181019050611a59565b5085935050505092915050565b60006020820190508181036000830152611aad8184611a35565b905092915050565b611abe8161169c565b8114611ac957600080fd5b50565b600081359050611adb81611ab5565b92915050565b60008060408385031215611af857611af7611619565b5b6000611b0685828601611acc565b925050602083013567ffffffffffffffff811115611b2757611b2661161e565b5b611b33858286016117f0565b9150509250929050565b60008115159050919050565b611b5281611b3d565b82525050565b6000602082019050611b6d6000830184611b49565b92915050565b600060208284031215611b8957611b88611619565b5b6000611b9784828501611861565b91505092915050565b600081519050611baf81611ab5565b92915050565b600060208284031215611bcb57611bca611619565b5b6000611bd984828501611ba0565b91505092915050565b600081519050611bf181611623565b92915050565b600060208284031215611c0d57611c0c611619565b5b6000611c1b84828501611be2565b91505092915050565b600082825260208201905092915050565b7f57697468647261772066756e6374696f6e2063616e206f6e6c7920626520636160008201527f6c6c65642062792074686520617070726f76656420696e7465677261746f722060208201527f7769746864726177206164647265737300000000000000000000000000000000604082015250565b6000611cb7605083611c24565b9150611cc282611c35565b606082019050919050565b60006020820190508181036000830152611ce681611caa565b9050919050565b7f546865207369676e61747572652070617373656420696e746f2074686973206960008201527f6e746572616374696f6e20697320696e76616c69642e2054686520757365722060208201527f6d757374207369676e2061206d6573736167652077697468207468652064697360408201527f706c617965642061642063616d706169676e2e00000000000000000000000000606082015250565b6000611d95607383611c24565b9150611da082611ced565b608082019050919050565b60006020820190508181036000830152611dc481611d88565b9050919050565b7f46756e6374696f6e20686173206e6f74206265656e20696e636c75646564206160008201527f73206120726576656e75652067656e65726174696e672066756e6374696f6e00602082015250565b6000611e27603f83611c24565b9150611e3282611dcb565b604082019050919050565b60006020820190508181036000830152611e5681611e1a565b9050919050565b7f4e487b7100000000000000000000000000000000000000000000000000000000600052601160045260246000fd5b6000611e97826115db565b9150611ea2836115db565b9250827fffffffffffffffffffffffffffffffffffffffffffffffffffffffffffffffff03821115611ed757611ed6611e5d565b5b828201905092915050565b7f4e6f2043616d706169676e2073656c6563746564000000000000000000000000600082015250565b6000611f18601483611c24565b9150611f2382611ee2565b602082019050919050565b60006020820190508181036000830152611f4781611f0b565b9050919050565b6000819050919050565b611f69611f648261181e565b611f4e565b82525050565b600081905092915050565b6000611f8582611901565b611f8f8185611f6f565b9350611f9f81856020860161191d565b80840191505092915050565b6000611fb78285611f58565b600482019150611fc78284611f7a565b91508190509392505050565b6000611fdf8284611f7a565b915081905092915050565b7f4e487b7100000000000000000000000000000000000000000000000000000000600052603260045260246000fd5b6000612024826115db565b91507fffffffffffffffffffffffffffffffffffffffffffffffffffffffffffffffff82141561205757612056611e5d565b5b600182019050919050565b60008160601b9050919050565b600061207a82612062565b9050919050565b600061208c8261206f565b9050919050565b6120a461209f8261169c565b612081565b82525050565b60006120b68284612093565b60148201915081905092915050565b600081905092915050565b7f19457468657265756d205369676e6564204d6573736167653a0a000000000000600082015250565b6000612106601a836120c5565b9150612111826120d0565b601a82019050919050565b6000819050919050565b612137612132826115db565b61211c565b82525050565b6000612148826120f9565b91506121548285612126565b6020820191506121648284611f7a565b91508190509392505050565b7f4e487b7100000000000000000000000000000000000000000000000000000000600052602260045260246000fd5b600060028204905060018216806121b757607f821691505b602082108114156121cb576121ca612170565b5b50919050565b60008190508160005260206000209050919050565b600081546121f38161219f565b6121fd8186611c24565b94506001821660008114612218576001811461222a5761225d565b60ff198316865260208601935061225d565b612233856121d1565b60005b8381101561225557815481890152600182019150602081019050612236565b808801955050505b50505092915050565b6000608082019050818103600083015261228081876121e6565b905061228f60208301866116ae565b61229c60408301856115e5565b6122a960608301846115e5565b95945050505050565b600080604083850312156122c9576122c8611619565b5b60006122d785828601611ba0565b92505060206122e885828601611be2565b9150509250929050565b7f4e6f2043616d706169676e2073656c656374656420666f722075736572000000600082015250565b6000612328601d83611c24565b9150612333826122f2565b602082019050919050565b600060208201905081810360008301526123578161231b565b9050919050565b7f4e487b7100000000000000000000000000000000000000000000000000000000600052602160045260246000fd5b7f45434453413a20696e76616c6964207369676e61747572650000000000000000600082015250565b60006123c3601883611c24565b91506123ce8261238d565b602082019050919050565b600060208201905081810360008301526123f2816123b6565b9050919050565b7f45434453413a20696e76616c6964207369676e6174757265206c656e67746800600082015250565b600061242f601f83611c24565b915061243a826123f9565b602082019050919050565b6000602082019050818103600083015261245e81612422565b9050919050565b7f45434453413a20696e76616c6964207369676e6174757265202773272076616c60008201527f7565000000000000000000000000000000000000000000000000000000000000602082015250565b60006124c1602283611c24565b91506124cc82612465565b604082019050919050565b600060208201905081810360008301526124f0816124b4565b9050919050565b6000819050919050565b61250a816124f7565b82525050565b600060ff82169050919050565b61252681612510565b82525050565b60006080820190506125416000830187612501565b61254e602083018661251d565b61255b6040830185612501565b6125686060830184612501565b9594505050505056fea2646970667358221220d240c71fc2a47275cbe9f21b0048c99ef4a4b39a4a047f70331953531fd4ba7264736f6c63430008090033a264697066735822122005e5c57a09dbf9d83eec96b4ce8249aac79dea7a24a945eccec20d60eff571b864736f6c6343000809003360806040523480156200001157600080fd5b5060405162001a0838038062001a08833981810160405281019062000037919062000129565b806000806101000a81548173ffffffffffffffffffffffffffffffffffffffff021916908373ffffffffffffffffffffffffffffffffffffffff16021790555033600160006101000a81548173ffffffffffffffffffffffffffffffffffffffff021916908373ffffffffffffffffffffffffffffffffffffffff160217905550506200015b565b600080fd5b600073ffffffffffffffffffffffffffffffffffffffff82169050919050565b6000620000f182620000c4565b9050919050565b6200010381620000e4565b81146200010f57600080fd5b50565b6000815190506200012381620000f8565b92915050565b600060208284031215620001425762000141620000bf565b5b6000620001528482850162000112565b91505092915050565b61189d806200016b6000396000f3fe608060405234801561001057600080fd5b50600436106100ea5760003560e01c8063966dae0e1161008c578063ca174a5511610066578063ca174a5514610237578063cb3b73c314610267578063dd17862e14610283578063e8b291c6146102b3576100ea565b8063966dae0e146101df578063998aabfd146101fd578063aef93fc014610219576100ea565b80632db34df5116100c85780632db34df5146101595780633dd21e28146101775780633fa408bc1461019357806359b5ce8e146101af576100ea565b80631a465fe1146100ef5780631d7eb4931461010d57806320f97ec014610129575b600080fd5b6100f76102d1565b604051610104919061126b565b60405180910390f35b610127600480360381019061012291906112c1565b6102f5565b005b610143600480360381019061013e919061131a565b610527565b604051610150919061137c565b60405180910390f35b6101616109da565b60405161016e919061137c565b60405180910390f35b610191600480360381019061018c9190611397565b610a21565b005b6101ad60048036038101906101a891906112c1565b610b2b565b005b6101c960048036038101906101c49190611397565b610d69565b6040516101d6919061137c565b60405180910390f35b6101e7610e58565b6040516101f4919061126b565b60405180910390f35b610217600480360381019061021291906113d7565b610e7e565b005b610221610f90565b60405161022e919061137c565b60405180910390f35b610251600480360381019061024c9190611417565b611021565b60405161025e919061126b565b60405180910390f35b610281600480360381019061027c91906113d7565b611054565b005b61029d60048036038101906102989190611417565b611166565b6040516102aa919061126b565b60405180910390f35b6102bb611199565b6040516102c8919061137c565b60405180910390f35b60008054906101000a900473ffffffffffffffffffffffffffffffffffffffff1681565b80600260003373ffffffffffffffffffffffffffffffffffffffff1673ffffffffffffffffffffffffffffffffffffffff16815260200190815260200160002054600360003373ffffffffffffffffffffffffffffffffffffffff1673ffffffffffffffffffffffffffffffffffffffff168152602001908152602001600020546103809190611473565b10156103c1576040517f08c379a00000000000000000000000000000000000000000000000000000000081526004016103b89061152a565b60405180910390fd5b80600360003373ffffffffffffffffffffffffffffffffffffffff1673ffffffffffffffffffffffffffffffffffffffff16815260200190815260200160002060008282546104109190611473565b9250508190555060008054906101000a900473ffffffffffffffffffffffffffffffffffffffff1673ffffffffffffffffffffffffffffffffffffffff1663a9059cbb600a60003373ffffffffffffffffffffffffffffffffffffffff1673ffffffffffffffffffffffffffffffffffffffff16815260200190815260200160002060009054906101000a900473ffffffffffffffffffffffffffffffffffffffff16836040518363ffffffff1660e01b81526004016104d192919061154a565b602060405180830381600087803b1580156104eb57600080fd5b505af11580156104ff573d6000803e3d6000fd5b505050506040513d601f19601f8201168201806040525081019061052391906115ab565b5050565b6000600160009054906101000a900473ffffffffffffffffffffffffffffffffffffffff1673ffffffffffffffffffffffffffffffffffffffff163373ffffffffffffffffffffffffffffffffffffffff16146105b9576040517f08c379a00000000000000000000000000000000000000000000000000000000081526004016105b090611670565b60405180910390fd5b83600260008473ffffffffffffffffffffffffffffffffffffffff1673ffffffffffffffffffffffffffffffffffffffff16815260200190815260200160002060008282546106089190611473565b9250508190555083600360008473ffffffffffffffffffffffffffffffffffffffff1673ffffffffffffffffffffffffffffffffffffffff168152602001908152602001600020600082825461065e9190611473565b9250508190555083600460008573ffffffffffffffffffffffffffffffffffffffff1673ffffffffffffffffffffffffffffffffffffffff16815260200190815260200160002060008282546106b49190611690565b925050819055506000600860008573ffffffffffffffffffffffffffffffffffffffff1673ffffffffffffffffffffffffffffffffffffffff16815260200190815260200160002060008473ffffffffffffffffffffffffffffffffffffffff1673ffffffffffffffffffffffffffffffffffffffff1681526020019081526020016000205411156107d85783600860008573ffffffffffffffffffffffffffffffffffffffff1673ffffffffffffffffffffffffffffffffffffffff16815260200190815260200160002060008473ffffffffffffffffffffffffffffffffffffffff1673ffffffffffffffffffffffffffffffffffffffff16815260200190815260200160002060008282546107cc9190611690565b92505081905550610991565b83600860008573ffffffffffffffffffffffffffffffffffffffff1673ffffffffffffffffffffffffffffffffffffffff16815260200190815260200160002060008473ffffffffffffffffffffffffffffffffffffffff1673ffffffffffffffffffffffffffffffffffffffff16815260200190815260200160002060008282546108649190611690565b925050819055506001600660008573ffffffffffffffffffffffffffffffffffffffff1673ffffffffffffffffffffffffffffffffffffffff16815260200190815260200160002060008282546108bb9190611690565b9250508190555081600760008573ffffffffffffffffffffffffffffffffffffffff1673ffffffffffffffffffffffffffffffffffffffff1681526020019081526020016000206000600660008773ffffffffffffffffffffffffffffffffffffffff1673ffffffffffffffffffffffffffffffffffffffff16815260200190815260200160002054815260200190815260200160002060006101000a81548173ffffffffffffffffffffffffffffffffffffffff021916908373ffffffffffffffffffffffffffffffffffffffff1602179055505b600360008373ffffffffffffffffffffffffffffffffffffffff1673ffffffffffffffffffffffffffffffffffffffff1681526020019081526020016000205490509392505050565b6000600460003373ffffffffffffffffffffffffffffffffffffffff1673ffffffffffffffffffffffffffffffffffffffff16815260200190815260200160002054905090565b81600360003373ffffffffffffffffffffffffffffffffffffffff1673ffffffffffffffffffffffffffffffffffffffff1681526020019081526020016000206000828254610a709190611690565b9250508190555060008054906101000a900473ffffffffffffffffffffffffffffffffffffffff1673ffffffffffffffffffffffffffffffffffffffff166323b872dd8230856040518463ffffffff1660e01b8152600401610ad4939291906116e6565b602060405180830381600087803b158015610aee57600080fd5b505af1158015610b02573d6000803e3d6000fd5b505050506040513d601f19601f82011682018060405250810190610b2691906115ab565b505050565b80600460003373ffffffffffffffffffffffffffffffffffffffff1673ffffffffffffffffffffffffffffffffffffffff168152602001908152602001600020541015610bad576040517f08c379a0000000000000000000000000000000000000000000000000000000008152600401610ba4906117b5565b60405180910390fd5b80600460003373ffffffffffffffffffffffffffffffffffffffff1673ffffffffffffffffffffffffffffffffffffffff1681526020019081526020016000206000828254610bfc9190611473565b9250508190555080600560003373ffffffffffffffffffffffffffffffffffffffff1673ffffffffffffffffffffffffffffffffffffffff1681526020019081526020016000206000828254610c529190611690565b9250508190555060008054906101000a900473ffffffffffffffffffffffffffffffffffffffff1673ffffffffffffffffffffffffffffffffffffffff1663a9059cbb600960003373ffffffffffffffffffffffffffffffffffffffff1673ffffffffffffffffffffffffffffffffffffffff16815260200190815260200160002060009054906101000a900473ffffffffffffffffffffffffffffffffffffffff16836040518363ffffffff1660e01b8152600401610d1392919061154a565b602060405180830381600087803b158015610d2d57600080fd5b505af1158015610d41573d6000803e3d6000fd5b505050506040513d601f19601f82011682018060405250810190610d6591906115ab565b5050565b6000600160009054906101000a900473ffffffffffffffffffffffffffffffffffffffff1673ffffffffffffffffffffffffffffffffffffffff163373ffffffffffffffffffffffffffffffffffffffff1614610dfb576040517f08c379a0000000000000000000000000000000000000000000000000000000008152600401610df290611670565b60405180910390fd5b82600260008473ffffffffffffffffffffffffffffffffffffffff1673ffffffffffffffffffffffffffffffffffffffff1681526020019081526020016000206000828254610e4a9190611690565b925050819055905092915050565b600160009054906101000a900473ffffffffffffffffffffffffffffffffffffffff1681565b600160009054906101000a900473ffffffffffffffffffffffffffffffffffffffff1673ffffffffffffffffffffffffffffffffffffffff163373ffffffffffffffffffffffffffffffffffffffff1614610f0e576040517f08c379a0000000000000000000000000000000000000000000000000000000008152600401610f0590611847565b60405180910390fd5b80600a60008473ffffffffffffffffffffffffffffffffffffffff1673ffffffffffffffffffffffffffffffffffffffff16815260200190815260200160002060006101000a81548173ffffffffffffffffffffffffffffffffffffffff021916908373ffffffffffffffffffffffffffffffffffffffff1602179055505050565b6000600560003373ffffffffffffffffffffffffffffffffffffffff1673ffffffffffffffffffffffffffffffffffffffff16815260200190815260200160002054600460003373ffffffffffffffffffffffffffffffffffffffff1673ffffffffffffffffffffffffffffffffffffffff1681526020019081526020016000205461101c9190611690565b905090565b600a6020528060005260406000206000915054906101000a900473ffffffffffffffffffffffffffffffffffffffff1681565b600160009054906101000a900473ffffffffffffffffffffffffffffffffffffffff1673ffffffffffffffffffffffffffffffffffffffff163373ffffffffffffffffffffffffffffffffffffffff16146110e4576040517f08c379a00000000000000000000000000000000000000000000000000000000081526004016110db90611847565b60405180910390fd5b80600960008473ffffffffffffffffffffffffffffffffffffffff1673ffffffffffffffffffffffffffffffffffffffff16815260200190815260200160002060006101000a81548173ffffffffffffffffffffffffffffffffffffffff021916908373ffffffffffffffffffffffffffffffffffffffff1602179055505050565b60096020528060005260406000206000915054906101000a900473ffffffffffffffffffffffffffffffffffffffff1681565b6000600260003373ffffffffffffffffffffffffffffffffffffffff1673ffffffffffffffffffffffffffffffffffffffff16815260200190815260200160002054600360003373ffffffffffffffffffffffffffffffffffffffff1673ffffffffffffffffffffffffffffffffffffffff168152602001908152602001600020546112259190611473565b905090565b600073ffffffffffffffffffffffffffffffffffffffff82169050919050565b60006112558261122a565b9050919050565b6112658161124a565b82525050565b6000602082019050611280600083018461125c565b92915050565b600080fd5b6000819050919050565b61129e8161128b565b81146112a957600080fd5b50565b6000813590506112bb81611295565b92915050565b6000602082840312156112d7576112d6611286565b5b60006112e5848285016112ac565b91505092915050565b6112f78161124a565b811461130257600080fd5b50565b600081359050611314816112ee565b92915050565b60008060006060848603121561133357611332611286565b5b6000611341868287016112ac565b935050602061135286828701611305565b925050604061136386828701611305565b9150509250925092565b6113768161128b565b82525050565b6000602082019050611391600083018461136d565b92915050565b600080604083850312156113ae576113ad611286565b5b60006113bc858286016112ac565b92505060206113cd85828601611305565b9150509250929050565b600080604083850312156113ee576113ed611286565b5b60006113fc85828601611305565b925050602061140d85828601611305565b9150509250929050565b60006020828403121561142d5761142c611286565b5b600061143b84828501611305565b91505092915050565b7f4e487b7100000000000000000000000000000000000000000000000000000000600052601160045260246000fd5b600061147e8261128b565b91506114898361128b565b92508282101561149c5761149b611444565b5b828203905092915050565b600082825260208201905092915050565b7f43616e6e6f74207769746864726177206d6f7265207468616e2072656d61696e60008201527f696e67207370656e640000000000000000000000000000000000000000000000602082015250565b60006115146029836114a7565b915061151f826114b8565b604082019050919050565b6000602082019050818103600083015261154381611507565b9050919050565b600060408201905061155f600083018561125c565b61156c602083018461136d565b9392505050565b60008115159050919050565b61158881611573565b811461159357600080fd5b50565b6000815190506115a58161157f565b92915050565b6000602082840312156115c1576115c0611286565b5b60006115cf84828501611596565b91505092915050565b7f546869732066756e6374696f6e2063616e206f6e6c792062652063616c6c656460008201527f206279207468652063616d706169676e20666163746f727920636f6e7472616360208201527f7400000000000000000000000000000000000000000000000000000000000000604082015250565b600061165a6041836114a7565b9150611665826115d8565b606082019050919050565b600060208201905081810360008301526116898161164d565b9050919050565b600061169b8261128b565b91506116a68361128b565b9250827fffffffffffffffffffffffffffffffffffffffffffffffffffffffffffffffff038211156116db576116da611444565b5b828201905092915050565b60006060820190506116fb600083018661125c565b611708602083018561125c565b611715604083018461136d565b949350505050565b7f43616e6e6f74207769746864726177206d6f7265207468616e20756e636f6c6c60008201527f656374656420726576656e75657320616c6c6f636174656420746f20696e746560208201527f677261746f720000000000000000000000000000000000000000000000000000604082015250565b600061179f6046836114a7565b91506117aa8261171d565b606082019050919050565b600060208201905081810360008301526117ce81611792565b9050919050565b7f546869732066756e6374696f6e2063616e206f6e6c792062652063616c6c656460008201527f2062792074686520666163746f72794164647265737300000000000000000000602082015250565b60006118316036836114a7565b915061183c826117d5565b604082019050919050565b6000602082019050818103600083015261186081611824565b905091905056fea264697066735822122062f9bfcf68d680fee714be79ae080dfe1a0ca4019198657ebb9a12be0a5b58d964736f6c63430008090033608060405260008060006101000a81548160ff021916908315150217905550600060025560006003553480156200003557600080fd5b506040516200138d3803806200138d83398181016040528101906200005b91906200053d565b85600560006101000a81548173ffffffffffffffffffffffffffffffffffffffff021916908373ffffffffffffffffffffffffffffffffffffffff160217905550604051602001620000ad90620006c7565b6040516020818303038152906040528051906020012085604051602001620000d6919062000720565b604051602081830303815290604052805190602001201462000105576200010483886200019e60201b60201c565b5b33600460006101000a81548173ffffffffffffffffffffffffffffffffffffffff021916908373ffffffffffffffffffffffffffffffffffffffff16021790555081600790805190602001906200015e92919062000250565b5080600890805190602001906200017792919062000250565b5084600690805190602001906200019092919062000250565b505050505050505062000879565b8160016000828254620001b2919062000768565b92505081905550600560009054906101000a900473ffffffffffffffffffffffffffffffffffffffff1673ffffffffffffffffffffffffffffffffffffffff16633dd21e2883836040518363ffffffff1660e01b815260040162000218929190620007e7565b600060405180830381600087803b1580156200023357600080fd5b505af115801562000248573d6000803e3d6000fd5b505050505050565b8280546200025e9062000843565b90600052602060002090601f016020900481019282620002825760008555620002ce565b82601f106200029d57805160ff1916838001178555620002ce565b82800160010185558215620002ce579182015b82811115620002cd578251825591602001919060010190620002b0565b5b509050620002dd9190620002e1565b5090565b5b80821115620002fc576000816000905550600101620002e2565b5090565b6000604051905090565b600080fd5b600080fd5b600073ffffffffffffffffffffffffffffffffffffffff82169050919050565b6000620003418262000314565b9050919050565b620003538162000334565b81146200035f57600080fd5b50565b600081519050620003738162000348565b92915050565b600080fd5b600080fd5b6000601f19601f8301169050919050565b7f4e487b7100000000000000000000000000000000000000000000000000000000600052604160045260246000fd5b620003ce8262000383565b810181811067ffffffffffffffff82111715620003f057620003ef62000394565b5b80604052505050565b60006200040562000300565b9050620004138282620003c3565b919050565b600067ffffffffffffffff82111562000436576200043562000394565b5b620004418262000383565b9050602081019050919050565b60005b838110156200046e57808201518184015260208101905062000451565b838111156200047e576000848401525b50505050565b60006200049b620004958462000418565b620003f9565b905082815260208101848484011115620004ba57620004b96200037e565b5b620004c78482856200044e565b509392505050565b600082601f830112620004e757620004e662000379565b5b8151620004f984826020860162000484565b91505092915050565b6000819050919050565b620005178162000502565b81146200052357600080fd5b50565b60008151905062000537816200050c565b92915050565b600080600080600080600060e0888a0312156200055f576200055e6200030a565b5b60006200056f8a828b0162000362565b9750506020620005828a828b0162000362565b965050604088015167ffffffffffffffff811115620005a657620005a56200030f565b5b620005b48a828b01620004cf565b955050606088015167ffffffffffffffff811115620005d857620005d76200030f565b5b620005e68a828b01620004cf565b9450506080620005f98a828b0162000526565b93505060a088015167ffffffffffffffff8111156200061d576200061c6200030f565b5b6200062b8a828b01620004cf565b92505060c088015167ffffffffffffffff8111156200064f576200064e6200030f565b5b6200065d8a828b01620004cf565b91505092959891949750929550565b600081905092915050565b7f66616c6c6261636b000000000000000000000000000000000000000000000000600082015250565b6000620006af6008836200066c565b9150620006bc8262000677565b600882019050919050565b6000620006d482620006a0565b9150819050919050565b600081519050919050565b6000620006f682620006de565b6200070281856200066c565b9350620007148185602086016200044e565b80840191505092915050565b60006200072e8284620006e9565b915081905092915050565b7f4e487b7100000000000000000000000000000000000000000000000000000000600052601160045260246000fd5b6000620007758262000502565b9150620007828362000502565b9250827fffffffffffffffffffffffffffffffffffffffffffffffffffffffffffffffff03821115620007ba57620007b962000739565b5b828201905092915050565b620007d08162000502565b82525050565b620007e18162000334565b82525050565b6000604082019050620007fe6000830185620007c5565b6200080d6020830184620007d6565b9392505050565b7f4e487b7100000000000000000000000000000000000000000000000000000000600052602260045260246000fd5b600060028204905060018216806200085c57607f821691505b6020821081141562000873576200087262000814565b5b50919050565b610b0480620008896000396000f3fe608060405234801561001057600080fd5b506004361061009e5760003560e01c8063835a617211610066578063835a61721461010f578063a4a484491461012d578063b2f2224c14610149578063ca83474014610167578063dfff0b20146101855761009e565b8063209077cc146100a35780633869625b146100ad5780633dd21e28146100b75780636726582d146100d35780636be5fa86146100f1575b600080fd5b6100ab6101a3565b005b6100b56101bf565b005b6100d160048036038101906100cc91906106d3565b6101db565b005b6100db610287565b6040516100e89190610722565b60405180910390f35b6100f9610333565b6040516101069190610722565b60405180910390f35b610117610339565b60405161012491906107d6565b60405180910390f35b610147600480360381019061014291906107f8565b6103c7565b005b6101516105a0565b60405161015e9190610722565b60405180910390f35b61016f6105a6565b60405161017c9190610722565b60405180910390f35b61018d6105ac565b60405161019a91906107d6565b60405180910390f35b6001600360008282546101b69190610854565b92505081905550565b6001600260008282546101d29190610854565b92505081905550565b81600160008282546101ed9190610854565b92505081905550600560009054906101000a900473ffffffffffffffffffffffffffffffffffffffff1673ffffffffffffffffffffffffffffffffffffffff16633dd21e2883836040518363ffffffff1660e01b81526004016102519291906108b9565b600060405180830381600087803b15801561026b57600080fd5b505af115801561027f573d6000803e3d6000fd5b505050505050565b600080600560009054906101000a900473ffffffffffffffffffffffffffffffffffffffff1690508073ffffffffffffffffffffffffffffffffffffffff1663e8b291c66040518163ffffffff1660e01b815260040160206040518083038186803b1580156102f557600080fd5b505afa158015610309573d6000803e3d6000fd5b505050506040513d601f19601f8201168201806040525081019061032d91906108f7565b91505090565b60035481565b6007805461034690610953565b80601f016020809104026020016040519081016040528092919081815260200182805461037290610953565b80156103bf5780601f10610394576101008083540402835291602001916103bf565b820191906000526020600020905b8154815290600101906020018083116103a257829003601f168201915b505050505081565b600560009054906101000a900473ffffffffffffffffffffffffffffffffffffffff1673ffffffffffffffffffffffffffffffffffffffff1663ca174a55306040518263ffffffff1660e01b81526004016104229190610985565b60206040518083038186803b15801561043a57600080fd5b505afa15801561044e573d6000803e3d6000fd5b505050506040513d601f19601f8201168201806040525081019061047291906109b5565b73ffffffffffffffffffffffffffffffffffffffff163373ffffffffffffffffffffffffffffffffffffffff16146104df576040517f08c379a00000000000000000000000000000000000000000000000000000000081526004016104d690610a7a565b60405180910390fd5b6001548110156105075780600160008282546104fb9190610a9a565b92505081905550610510565b60006001819055505b600560009054906101000a900473ffffffffffffffffffffffffffffffffffffffff1673ffffffffffffffffffffffffffffffffffffffff16631d7eb493826040518263ffffffff1660e01b815260040161056b9190610722565b600060405180830381600087803b15801561058557600080fd5b505af1158015610599573d6000803e3d6000fd5b5050505050565b60015481565b60025481565b600880546105b990610953565b80601f01602080910402602001604051908101604052809291908181526020018280546105e590610953565b80156106325780601f1061060757610100808354040283529160200191610632565b820191906000526020600020905b81548152906001019060200180831161061557829003601f168201915b505050505081565b600080fd5b6000819050919050565b6106528161063f565b811461065d57600080fd5b50565b60008135905061066f81610649565b92915050565b600073ffffffffffffffffffffffffffffffffffffffff82169050919050565b60006106a082610675565b9050919050565b6106b081610695565b81146106bb57600080fd5b50565b6000813590506106cd816106a7565b92915050565b600080604083850312156106ea576106e961063a565b5b60006106f885828601610660565b9250506020610709858286016106be565b9150509250929050565b61071c8161063f565b82525050565b60006020820190506107376000830184610713565b92915050565b600081519050919050565b600082825260208201905092915050565b60005b8381101561077757808201518184015260208101905061075c565b83811115610786576000848401525b50505050565b6000601f19601f8301169050919050565b60006107a88261073d565b6107b28185610748565b93506107c2818560208601610759565b6107cb8161078c565b840191505092915050565b600060208201905081810360008301526107f0818461079d565b905092915050565b60006020828403121561080e5761080d61063a565b5b600061081c84828501610660565b91505092915050565b7f4e487b7100000000000000000000000000000000000000000000000000000000600052601160045260246000fd5b600061085f8261063f565b915061086a8361063f565b9250827fffffffffffffffffffffffffffffffffffffffffffffffffffffffffffffffff0382111561089f5761089e610825565b5b828201905092915050565b6108b381610695565b82525050565b60006040820190506108ce6000830185610713565b6108db60208301846108aa565b9392505050565b6000815190506108f181610649565b92915050565b60006020828403121561090d5761090c61063a565b5b600061091b848285016108e2565b91505092915050565b7f4e487b7100000000000000000000000000000000000000000000000000000000600052602260045260246000fd5b6000600282049050600182168061096b57607f821691505b6020821081141561097f5761097e610924565b5b50919050565b600060208201905061099a60008301846108aa565b92915050565b6000815190506109af816106a7565b92915050565b6000602082840312156109cb576109ca61063a565b5b60006109d9848285016109a0565b91505092915050565b7f43616d706169676e2066756e642077697468647261772063616e206f6e6c792060008201527f626520696e6974696174656420627920617070726f7665642063616d7061696760208201527f6e20776974686472617720616464726573732e00000000000000000000000000604082015250565b6000610a64605383610748565b9150610a6f826109e2565b606082019050919050565b60006020820190508181036000830152610a9381610a57565b9050919050565b6000610aa58261063f565b9150610ab08361063f565b925082821015610ac357610ac2610825565b5b82820390509291505056fea2646970667358221220f636da7dee25735793cff766a94b7a2ef5ac1171cae8f5f74823bc06daeef5fb64736f6c63430008090033",
  "immutableReferences": {},
  "source": "pragma solidity ^0.8.0;\n\nimport \"./Integrator.sol\";\nimport \"./Treasury.sol\";\nimport \"./ProtocolToken.sol\";\n\n\n/// @title Factory\n/// @author Michael Manzano\n/// @notice This contract is for deploying new ad campaign contracts\ncontract Factory {\n\n    // Globals\n    address private deployer;\n    address public protocolToken;\n    address public treasuryAddress;\n    address public fallbackAddress;\n    uint public totalCampaignCount;\n    uint spendPerDisplay = 1e16; /// Currently the spendPerDisplay is hardcoded as .01 BILL, in implementation this will be calculated by factors on campaign + integrator\n    uint public totalIntegratorCount = 0;\n\n    string[] public categories = [\"lend\", \"nft\", \"dex\", \"other\"];\n\n    mapping(address => bool) campaignOpen; /// This is for manually closing a campaign by campaign deployer or by UMA/Kleros vote\n    mapping(address => bool) integratorOpen;\n    mapping(uint => uint) internal campaignCountByType;\n    mapping(uint => uint) internal integratorCountByType;\n    mapping(uint => mapping(uint => address)) private campaignAddressesByCategory;\n    mapping(uint => mapping(uint => address)) private integratorAddressesByCategory;\n    mapping(uint => bool) public isCategory;\n\n    event AddressEvent(address indexed _address);\n\n    /// @notice Initializes a new Factory contract.\n    /// @param tokenAddress The address of the protocol token.\n    constructor(address tokenAddress) {\n        deployer = msg.sender;\n        protocolToken = tokenAddress;\n        deployTreasury();\n        for (uint i = 0; i < categories.length; i++) {\n            isCategory[i] = true;\n        }\n        deployDefaultCampaign();\n    }\n\n    /// @notice Deploys the default campaign.\n    /// @dev This default campaign is what is always displayed to a user at nonce 0 for a given integrator\n    /// @dev This campaign explains that the protocol uses Billboard\n    function deployDefaultCampaign() internal {\n        Campaign campaignDeployed = new Campaign(address(this), treasuryAddress, \"fallback\", \"Billboard\", 0, \"fallbackAddress\", \"THIS PROTOCOL USES BILLBOARD PROTOCOL. ALL TRANSACTIONS WITH THIS PROTOCOL GET ROUTED THROUGH AN INTEGRATOR CONTRACT. YOU WILL BE SERVED ADVERTISEMENTS BEFORE EACH INTERACTION WITH THIS PROTOCOL.\");\n        address newCampaignAddress = address(campaignDeployed);\n        fallbackAddress = newCampaignAddress;\n        campaignOpen[newCampaignAddress] = true;\n    }\n\n    /// @notice Deploys a new campaign.\n    /// @param category The category of the new campaign - Must be in categories array defined above\n    /// @param protocolName The name of the protocol associated with the campaign.\n    /// @param initialAdSpend The initial ad spend for the campaign. This amount will be transfered from the deployment initiator to the treasury\n    /// @param campaignTitleParam The title for the new campaign.\n    /// @param campaignContentParam The content for the new campaign. Currently this is an advertisement in text format but later would likely be an IPFS URI pointing towards a jpg \n    /// @param managerAddress The address of the campaign manager. This manager is authorized to withdraw campaign spend\n    function deployNewCampaign(string memory category, string memory protocolName, uint initialAdSpend, string memory campaignTitleParam, string memory campaignContentParam, address managerAddress) public {\n        require(initialAdSpend >= spendPerDisplay, \"Ad Spend must be higher than the cost of spend per display\");\n        require(treasuryAddress != address(0), \"Treasury needs to be initialized\");\n        Campaign campaignDeployed = new Campaign(msg.sender, treasuryAddress, category, protocolName, initialAdSpend, campaignTitleParam, campaignContentParam);\n        address newCampaignAddress = address(campaignDeployed);\n        if (managerAddress == address(0)) {\n            managerAddress = msg.sender;\n        }\n        Treasury(treasuryAddress).setCampaignWithdrawAddress(newCampaignAddress, managerAddress);\n        uint catIndex = getCategoryIndex(category);\n        campaignAddressesByCategory[catIndex][campaignCountByType[catIndex]] = newCampaignAddress;\n        campaignCountByType[catIndex] += 1;\n        campaignOpen[newCampaignAddress] = true;\n        totalCampaignCount += 1;\n        emit AddressEvent(newCampaignAddress);\n    }\n\n    /// @notice Deploys a new integrator.\n    /// @param protocolAddress The address of the contract whose functions will be routed through the integrator.\n    /// @param withdrawAddress The address to receive withdrawals from integrator revenues \n    /// @param integratorCategory The category for the integrator - Must be in categories array defined above\n    /// @param functionSignatures The function signatures on the contract that will be routed through the integrator\n    /// @dev functionSignatures should not be in bytes format. Example of a correct function signature argument: \"mintNFT(address)\"\n    function deployNewIntegrator(address protocolAddress, address withdrawAddress, string memory integratorCategory, string[] memory functionSignatures) external {\n        Integrator integrator = new Integrator(protocolAddress, integratorCategory, functionSignatures);\n        if (withdrawAddress == address(0)) {\n            withdrawAddress = msg.sender;\n        }\n        Treasury(treasuryAddress).setIntegratorWithdrawAddress(address(integrator), withdrawAddress);\n        integratorOpen[address(integrator)] = true;\n        uint catIndex = getCategoryIndex(integratorCategory);\n        integratorAddressesByCategory[catIndex][integratorCountByType[catIndex]] = address(integrator);\n        integratorCountByType[catIndex] += 1;\n        totalIntegratorCount += 1;\n        emit AddressEvent(address(integrator));\n    }\n\n    /// @notice Deploys the treasury contract\n    function deployTreasury() internal {\n        require(treasuryAddress == address(0), \"Treasury has already been deployed\");\n        treasuryAddress = address(new Treasury(protocolToken));\n        emit AddressEvent(treasuryAddress);\n    }\n\n    /// @notice Sets the protocol token, campaign spend and revenues will be denominated in this token\n    /// @param tokenAddress The address of the new protocol token.\n    function setProtocolToken(address tokenAddress) public {\n        require(msg.sender == deployer, \"Function can only be called by the original deployer of the factory\");\n        protocolToken = tokenAddress;\n    }\n\n    /// @notice Assigns a campaign for a user.\n    /// @param category The category to filter campaigns.\n    /// @param user The address of the user.\n    /// @param userNonce The nonce for the user on the calling integrator\n    /// @param campaignCountAtUser The count of campaigns available to the user.\n    /// @return The address of the newly selected campaign and the count of campaigns.\n    function getCampaignForUser(string memory category, address user, uint userNonce, uint campaignCountAtUser) public view returns (address, uint) {\n        address integrator = msg.sender;\n        uint count = campaignCountAtUser;\n        uint catIdx = getCategoryIndex(category);\n        if (campaignCountAtUser == 0) {\n            count = campaignCountByType[catIdx];\n        }\n        uint campaignIndex = 0;\n        address campaignAddress = address(0);\n        uint index = 0;\n        for (uint256 i = 0; i < count; i++) {\n            index += 1;\n            campaignIndex = uint(keccak256(abi.encodePacked(user, integrator, campaignIndex + userNonce))) % (count);\n            if (campaignIsOpen(campaignAddressesByCategory[catIdx][campaignIndex]) == true) {\n                campaignAddress = campaignAddressesByCategory[catIdx][campaignIndex];\n                break;\n            }\n        }\n        return (campaignAddress, campaignCountByType[catIdx]);\n    }\n\n    /// @notice Gets an array of the addresses of campaigns in a category.\n    /// @param category The category to filter campaigns.\n    /// @return A list of campaign addresses.\n    function getCampaignAddresses(string memory category) external view returns(address[] memory) {\n        uint catIdx = getCategoryIndex(category);\n        require(msg.sender == deployer, \"The address list can only be viewed by the contract deployer\");\n        if (campaignCountByType[catIdx] == 0) {\n            return new address[](0);\n        }\n        address[] memory addresses = new address[](campaignCountByType[catIdx]);\n        for(uint i = 0; i < campaignCountByType[catIdx]; i++){\n            addresses[i] = campaignAddressesByCategory[catIdx][i];\n        }\n        return addresses;\n    }\n\n    /// @notice Gets the index of a category.\n    /// @param cat The category name.\n    /// @return The index of the category.\n    function getCategoryIndex(string memory cat) public view returns (uint) {\n        uint idx = 0;\n        bool set = false;\n        for(uint i = 0; i < categories.length; i++){\n            if (keccak256(abi.encodePacked(categories[i])) == keccak256(abi.encodePacked(cat))) {\n                idx = i;\n                set = true;\n            }\n        }\n        require(set == true, \"Category not supported\");\n        return idx;\n    }\n\n    /// @notice Gets a list of the addresses of integrators in a category.\n    /// @param category The category to filter integrators.\n    /// @return A list of integrator addresses.\n    function getIntegratorAddresses(string memory category) external view returns(address[] memory) {\n        uint catIdx = getCategoryIndex(category);\n        require(msg.sender == deployer, \"The address list can only be viewed by the contract deployer\");\n        if (integratorCountByType[catIdx] == 0) {\n            return new address[](0);\n        }\n        address[] memory addresses = new address[](integratorCountByType[catIdx]);\n        for(uint i = 0; i < integratorCountByType[catIdx]; i++){\n            addresses[i] = integratorAddressesByCategory[catIdx][i];\n        }\n        return addresses;\n    }\n\n    /// @notice Determines if a campaign is open and has sufficient spend to be assigned to a user\n    /// @param campaign The address of the campaign.\n    /// @return A boolean indicating if the campaign is open.\n    function campaignIsOpen(address campaign) public view returns (bool) {\n        uint remainingOpenSpend = Campaign(campaign).remainingAvailableAdSpend();\n        if (campaignOpen[campaign] == false || remainingOpenSpend < spendPerDisplay) {\n            return false;\n        }\n        return true;\n    }\n\n    /// @notice Updates the pending spend for a campaign.\n    /// @param campaign The address of the campaign.\n    function newPendingSpend(address campaign) external {\n        require(campaignIsOpen(campaign) == true, \"Campaign to update spend invalid or closed\");\n        require(integratorOpen[msg.sender] == true, \"This function can only be called from an open integrator contract\");\n        Treasury(treasuryAddress).newPendingSpend(spendPerDisplay, campaign);\n    }\n\n    /// @notice Marks the completion of a spend for a campaign.\n    /// @param campaign The address of the campaign.\n    function spendCompleted(address campaign) external {\n        require(campaignIsOpen(campaign) == true, \"Campaign to update spend invalid or closed\");\n        require(integratorOpen[msg.sender] == true, \"This function can only be called from an open integrator contract\");\n        Treasury(treasuryAddress).spendCompleted(spendPerDisplay, msg.sender, campaign);\n    }\n}\n",
  "sourcePath": "/home/michael/Documents/billboard/protocol-truffle/contracts/Factory.sol",
  "compiler": {
    "name": "solc",
    "version": "0.8.9+commit.e5eed63a.Emscripten.clang"
  },
  "schemaVersion": "3.4.15",
  "updatedAt": "2023-08-10T13:41:20.527Z",
  "devdoc": {
    "author": "Michael Manzano",
    "kind": "dev",
    "methods": {
      "campaignIsOpen(address)": {
        "params": {
          "campaign": "The address of the campaign."
        },
        "returns": {
          "_0": "A boolean indicating if the campaign is open."
        }
      },
      "constructor": {
        "params": {
          "tokenAddress": "The address of the protocol token."
        }
      },
      "deployNewCampaign(string,string,uint256,string,string,address)": {
        "params": {
          "campaignContentParam": "The content for the new campaign. Currently this is an advertisement in text format but later would likely be an IPFS URI pointing towards a jpg ",
          "campaignTitleParam": "The title for the new campaign.",
          "category": "The category of the new campaign - Must be in categories array defined above",
          "initialAdSpend": "The initial ad spend for the campaign. This amount will be transfered from the deployment initiator to the treasury",
          "managerAddress": "The address of the campaign manager. This manager is authorized to withdraw campaign spend",
          "protocolName": "The name of the protocol associated with the campaign."
        }
      },
      "deployNewIntegrator(address,address,string,string[])": {
        "details": "functionSignatures should not be in bytes format. Example of a correct function signature argument: \"mintNFT(address)\"",
        "params": {
          "functionSignatures": "The function signatures on the contract that will be routed through the integrator",
          "integratorCategory": "The category for the integrator - Must be in categories array defined above",
          "protocolAddress": "The address of the contract whose functions will be routed through the integrator.",
          "withdrawAddress": "The address to receive withdrawals from integrator revenues "
        }
      },
      "getCampaignAddresses(string)": {
        "params": {
          "category": "The category to filter campaigns."
        },
        "returns": {
          "_0": "A list of campaign addresses."
        }
      },
      "getCampaignForUser(string,address,uint256,uint256)": {
        "params": {
          "campaignCountAtUser": "The count of campaigns available to the user.",
          "category": "The category to filter campaigns.",
          "user": "The address of the user.",
          "userNonce": "The nonce for the user on the calling integrator"
        },
        "returns": {
          "_0": "The address of the newly selected campaign and the count of campaigns."
        }
      },
      "getCategoryIndex(string)": {
        "params": {
          "cat": "The category name."
        },
        "returns": {
          "_0": "The index of the category."
        }
      },
      "getIntegratorAddresses(string)": {
        "params": {
          "category": "The category to filter integrators."
        },
        "returns": {
          "_0": "A list of integrator addresses."
        }
      },
      "newPendingSpend(address)": {
        "params": {
          "campaign": "The address of the campaign."
        }
      },
      "setProtocolToken(address)": {
        "params": {
          "tokenAddress": "The address of the new protocol token."
        }
      },
      "spendCompleted(address)": {
        "params": {
          "campaign": "The address of the campaign."
        }
      }
    },
    "title": "Factory",
    "version": 1
  },
  "userdoc": {
    "kind": "user",
    "methods": {
      "campaignIsOpen(address)": {
        "notice": "Determines if a campaign is open and has sufficient spend to be assigned to a user"
      },
      "constructor": {
        "notice": "Initializes a new Factory contract."
      },
      "deployNewCampaign(string,string,uint256,string,string,address)": {
        "notice": "Deploys a new campaign."
      },
      "deployNewIntegrator(address,address,string,string[])": {
        "notice": "Deploys a new integrator."
      },
      "getCampaignAddresses(string)": {
        "notice": "Gets an array of the addresses of campaigns in a category."
      },
      "getCampaignForUser(string,address,uint256,uint256)": {
        "notice": "Assigns a campaign for a user."
      },
      "getCategoryIndex(string)": {
        "notice": "Gets the index of a category."
      },
      "getIntegratorAddresses(string)": {
        "notice": "Gets a list of the addresses of integrators in a category."
      },
      "newPendingSpend(address)": {
        "notice": "Updates the pending spend for a campaign."
      },
      "setProtocolToken(address)": {
        "notice": "Sets the protocol token, campaign spend and revenues will be denominated in this token"
      },
      "spendCompleted(address)": {
        "notice": "Marks the completion of a spend for a campaign."
      },
      "totalIntegratorCount()": {
        "notice": "Currently the spendPerDisplay is hardcoded as .01 BILL, in implementation this will be calculated by factors on campaign + integrator"
      }
    },
    "notice": "This contract is for deploying new ad campaign contracts",
    "version": 1
  }
}