{
  "contractName": "Integrator",
  "abi": [
    {
      "inputs": [
        {
          "internalType": "address",
          "name": "integratingProtocol",
          "type": "address"
        },
        {
          "internalType": "string",
          "name": "integratorCategory",
          "type": "string"
        },
        {
          "internalType": "string[]",
          "name": "functionSignatures",
          "type": "string[]"
        }
      ],
      "stateMutability": "nonpayable",
      "type": "constructor"
    },
    {
      "inputs": [],
      "name": "protocol",
      "outputs": [
        {
          "internalType": "address",
          "name": "",
          "type": "address"
        }
      ],
      "stateMutability": "view",
      "type": "function"
    },
    {
      "inputs": [],
      "name": "servedAdCounter",
      "outputs": [
        {
          "internalType": "uint256",
          "name": "",
          "type": "uint256"
        }
      ],
      "stateMutability": "view",
      "type": "function"
    },
    {
      "inputs": [
        {
          "internalType": "uint256",
          "name": "",
          "type": "uint256"
        }
      ],
      "name": "validFunctionSignatures",
      "outputs": [
        {
          "internalType": "bytes4",
          "name": "",
          "type": "bytes4"
        }
      ],
      "stateMutability": "view",
      "type": "function"
    },
    {
      "inputs": [
        {
          "internalType": "bytes4",
          "name": "",
          "type": "bytes4"
        }
      ],
      "name": "validFunctions",
      "outputs": [
        {
          "internalType": "bool",
          "name": "",
          "type": "bool"
        }
      ],
      "stateMutability": "view",
      "type": "function"
    },
    {
      "inputs": [],
      "name": "getFunctionSignatures",
      "outputs": [
        {
          "internalType": "bytes4[]",
          "name": "",
          "type": "bytes4[]"
        }
      ],
      "stateMutability": "view",
      "type": "function"
    },
    {
      "inputs": [
        {
          "internalType": "bytes",
          "name": "signature",
          "type": "bytes"
        },
        {
          "internalType": "bytes4",
          "name": "functionSignature",
          "type": "bytes4"
        },
        {
          "internalType": "bytes",
          "name": "functionParams",
          "type": "bytes"
        }
      ],
      "name": "routeInteraction",
      "outputs": [
        {
          "internalType": "bytes",
          "name": "",
          "type": "bytes"
        }
      ],
      "stateMutability": "nonpayable",
      "type": "function"
    },
    {
      "inputs": [],
      "name": "displayCurrentAd",
      "outputs": [
        {
          "internalType": "address",
          "name": "",
          "type": "address"
        }
      ],
      "stateMutability": "view",
      "type": "function"
    },
    {
      "inputs": [
        {
          "internalType": "address",
          "name": "sender",
          "type": "address"
        },
        {
          "internalType": "bytes",
          "name": "signature",
          "type": "bytes"
        }
      ],
      "name": "validateUserSignature",
      "outputs": [
        {
          "internalType": "bool",
          "name": "",
          "type": "bool"
        }
      ],
      "stateMutability": "view",
      "type": "function"
    },
    {
      "inputs": [],
      "name": "cumulativeAdRevenue",
      "outputs": [
        {
          "internalType": "uint256",
          "name": "",
          "type": "uint256"
        }
      ],
      "stateMutability": "view",
      "type": "function"
    },
    {
      "inputs": [],
      "name": "currentAvailableAdRevenue",
      "outputs": [
        {
          "internalType": "uint256",
          "name": "",
          "type": "uint256"
        }
      ],
      "stateMutability": "view",
      "type": "function"
    },
    {
      "inputs": [
        {
          "internalType": "uint256",
          "name": "amount",
          "type": "uint256"
        }
      ],
      "name": "integratorWithdraw",
      "outputs": [],
      "stateMutability": "nonpayable",
      "type": "function"
    }
  ],
  "bytecode": "0x60806040523480156200001157600080fd5b5060405162002e1238038062002e12833981810160405281019062000037919062000674565b81600390805190602001906200004f929190620002c6565b50336000806101000a81548173ffffffffffffffffffffffffffffffffffffffff021916908373ffffffffffffffffffffffffffffffffffffffff16021790555060008060009054906101000a900473ffffffffffffffffffffffffffffffffffffffff1690508073ffffffffffffffffffffffffffffffffffffffff16631a465fe16040518163ffffffff1660e01b815260040160206040518083038186803b158015620000fd57600080fd5b505afa15801562000112573d6000803e3d6000fd5b505050506040513d601f19601f820116820180604052508101906200013891906200070e565b600160006101000a81548173ffffffffffffffffffffffffffffffffffffffff021916908373ffffffffffffffffffffffffffffffffffffffff16021790555083600260006101000a81548173ffffffffffffffffffffffffffffffffffffffff021916908373ffffffffffffffffffffffffffffffffffffffff16021790555060005b8251811015620002bb576000838281518110620001de57620001dd62000740565b5b60200260200101518051906020012090506001600b6000837bffffffffffffffffffffffffffffffffffffffffffffffffffffffff19167bffffffffffffffffffffffffffffffffffffffffffffffffffffffff1916815260200190815260200160002060006101000a81548160ff02191690831515021790555060068190806001815401808255809150506001900390600052602060002090600891828204019190066004029091909190916101000a81548163ffffffff021916908360e01c0217905550508080620002b290620007a8565b915050620001bc565b50505050506200085b565b828054620002d49062000825565b90600052602060002090601f016020900481019282620002f8576000855562000344565b82601f106200031357805160ff191683800117855562000344565b8280016001018555821562000344579182015b828111156200034357825182559160200191906001019062000326565b5b50905062000353919062000357565b5090565b5b808211156200037257600081600090555060010162000358565b5090565b6000604051905090565b600080fd5b600080fd5b600073ffffffffffffffffffffffffffffffffffffffff82169050919050565b6000620003b7826200038a565b9050919050565b620003c981620003aa565b8114620003d557600080fd5b50565b600081519050620003e981620003be565b92915050565b600080fd5b600080fd5b6000601f19601f8301169050919050565b7f4e487b7100000000000000000000000000000000000000000000000000000000600052604160045260246000fd5b6200044482620003f9565b810181811067ffffffffffffffff821117156200046657620004656200040a565b5b80604052505050565b60006200047b62000376565b905062000489828262000439565b919050565b600067ffffffffffffffff821115620004ac57620004ab6200040a565b5b620004b782620003f9565b9050602081019050919050565b60005b83811015620004e4578082015181840152602081019050620004c7565b83811115620004f4576000848401525b50505050565b6000620005116200050b846200048e565b6200046f565b90508281526020810184848401111562000530576200052f620003f4565b5b6200053d848285620004c4565b509392505050565b600082601f8301126200055d576200055c620003ef565b5b81516200056f848260208601620004fa565b91505092915050565b600067ffffffffffffffff8211156200059657620005956200040a565b5b602082029050602081019050919050565b600080fd5b6000620005c3620005bd8462000578565b6200046f565b90508083825260208201905060208402830185811115620005e957620005e8620005a7565b5b835b818110156200063757805167ffffffffffffffff811115620006125762000611620003ef565b5b80860162000621898262000545565b85526020850194505050602081019050620005eb565b5050509392505050565b600082601f830112620006595762000658620003ef565b5b81516200066b848260208601620005ac565b91505092915050565b60008060006060848603121562000690576200068f62000380565b5b6000620006a086828701620003d8565b935050602084015167ffffffffffffffff811115620006c457620006c362000385565b5b620006d28682870162000545565b925050604084015167ffffffffffffffff811115620006f657620006f562000385565b5b620007048682870162000641565b9150509250925092565b60006020828403121562000727576200072662000380565b5b60006200073784828501620003d8565b91505092915050565b7f4e487b7100000000000000000000000000000000000000000000000000000000600052603260045260246000fd5b7f4e487b7100000000000000000000000000000000000000000000000000000000600052601160045260246000fd5b6000819050919050565b6000620007b5826200079e565b91507fffffffffffffffffffffffffffffffffffffffffffffffffffffffffffffffff821415620007eb57620007ea6200076f565b5b600182019050919050565b7f4e487b7100000000000000000000000000000000000000000000000000000000600052602260045260246000fd5b600060028204905060018216806200083e57607f821691505b60208210811415620008555762000854620007f6565b5b50919050565b6125a7806200086b6000396000f3fe608060405234801561001057600080fd5b50600436106100a85760003560e01c8063626453a311610071578063626453a3146101415780637ab2f16b146101715780638ce74426146101a1578063b09df36a146101bf578063f251c35b146101dd578063f97925341461020d576100a8565b806263a437146100ad578063186e59d7146100cb5780633fa408bc146100e95780634001d1a2146101055780634b54c97c14610123575b600080fd5b6100b561023d565b6040516100c291906115f4565b60405180910390f35b6100d3610243565b6040516100e091906115f4565b60405180910390f35b61010360048036038101906100fe919061164f565b610370565b005b61010d61057e565b60405161011a91906115f4565b60405180910390f35b61012b6106ab565b60405161013891906116bd565b60405180910390f35b61015b60048036038101906101569190611876565b610852565b6040516101689190611989565b60405180910390f35b61018b6004803603810190610186919061164f565b610db3565b60405161019891906119ba565b60405180910390f35b6101a9610dea565b6040516101b691906116bd565b60405180910390f35b6101c7610e10565b6040516101d49190611a93565b60405180910390f35b6101f760048036038101906101f29190611ae1565b610f26565b6040516102049190611b58565b60405180910390f35b61022760048036038101906102229190611b73565b611023565b6040516102349190611b58565b60405180910390f35b60055481565b60008060008054906101000a900473ffffffffffffffffffffffffffffffffffffffff16905060008173ffffffffffffffffffffffffffffffffffffffff1663c5f956af6040518163ffffffff1660e01b815260040160206040518083038186803b1580156102b157600080fd5b505afa1580156102c5573d6000803e3d6000fd5b505050506040513d601f19601f820116820180604052508101906102e99190611bb5565b90508073ffffffffffffffffffffffffffffffffffffffff1663aef93fc06040518163ffffffff1660e01b815260040160206040518083038186803b15801561033157600080fd5b505afa158015610345573d6000803e3d6000fd5b505050506040513d601f19601f820116820180604052508101906103699190611bf7565b9250505090565b60008060009054906101000a900473ffffffffffffffffffffffffffffffffffffffff16905060008173ffffffffffffffffffffffffffffffffffffffff1663c5f956af6040518163ffffffff1660e01b815260040160206040518083038186803b1580156103de57600080fd5b505afa1580156103f2573d6000803e3d6000fd5b505050506040513d601f19601f820116820180604052508101906104169190611bb5565b90508073ffffffffffffffffffffffffffffffffffffffff1663dd17862e306040518263ffffffff1660e01b815260040161045191906116bd565b60206040518083038186803b15801561046957600080fd5b505afa15801561047d573d6000803e3d6000fd5b505050506040513d601f19601f820116820180604052508101906104a19190611bb5565b73ffffffffffffffffffffffffffffffffffffffff163373ffffffffffffffffffffffffffffffffffffffff161461050e576040517f08c379a000000000000000000000000000000000000000000000000000000000815260040161050590611ccd565b60405180910390fd5b8073ffffffffffffffffffffffffffffffffffffffff16633fa408bc846040518263ffffffff1660e01b815260040161054791906115f4565b600060405180830381600087803b15801561056157600080fd5b505af1158015610575573d6000803e3d6000fd5b50505050505050565b60008060008054906101000a900473ffffffffffffffffffffffffffffffffffffffff16905060008173ffffffffffffffffffffffffffffffffffffffff1663c5f956af6040518163ffffffff1660e01b815260040160206040518083038186803b1580156105ec57600080fd5b505afa158015610600573d6000803e3d6000fd5b505050506040513d601f19601f820116820180604052508101906106249190611bb5565b90508073ffffffffffffffffffffffffffffffffffffffff16632db34df56040518163ffffffff1660e01b815260040160206040518083038186803b15801561066c57600080fd5b505afa158015610680573d6000803e3d6000fd5b505050506040513d601f19601f820116820180604052508101906106a49190611bf7565b9250505090565b60008073ffffffffffffffffffffffffffffffffffffffff16600860003373ffffffffffffffffffffffffffffffffffffffff1673ffffffffffffffffffffffffffffffffffffffff16815260200190815260200160002060009054906101000a900473ffffffffffffffffffffffffffffffffffffffff1673ffffffffffffffffffffffffffffffffffffffff1614156107ec5760008060009054906101000a900473ffffffffffffffffffffffffffffffffffffffff1690508073ffffffffffffffffffffffffffffffffffffffff16634e1448996040518163ffffffff1660e01b815260040160206040518083038186803b1580156107ac57600080fd5b505afa1580156107c0573d6000803e3d6000fd5b505050506040513d601f19601f820116820180604052508101906107e49190611bb5565b91505061084f565b600860003373ffffffffffffffffffffffffffffffffffffffff1673ffffffffffffffffffffffffffffffffffffffff16815260200190815260200160002060009054906101000a900473ffffffffffffffffffffffffffffffffffffffff1690505b90565b606060006108603386610f26565b905060011515811515146108a9576040517f08c379a00000000000000000000000000000000000000000000000000000000081526004016108a090611dab565b60405180910390fd5b60011515600b6000867bffffffffffffffffffffffffffffffffffffffffffffffffffffffff19167bffffffffffffffffffffffffffffffffffffffffffffffffffffffff1916815260200190815260200160002060009054906101000a900460ff1615151461094e576040517f08c379a000000000000000000000000000000000000000000000000000000000815260040161094590611e3d565b60405180910390fd5b60008060009054906101000a900473ffffffffffffffffffffffffffffffffffffffff1690506000600860003373ffffffffffffffffffffffffffffffffffffffff1673ffffffffffffffffffffffffffffffffffffffff16815260200190815260200160002060009054906101000a900473ffffffffffffffffffffffffffffffffffffffff169050600073ffffffffffffffffffffffffffffffffffffffff168173ffffffffffffffffffffffffffffffffffffffff1614158015610abe57508173ffffffffffffffffffffffffffffffffffffffff16634e1448996040518163ffffffff1660e01b815260040160206040518083038186803b158015610a5657600080fd5b505afa158015610a6a573d6000803e3d6000fd5b505050506040513d601f19601f82011682018060405250810190610a8e9190611bb5565b73ffffffffffffffffffffffffffffffffffffffff168173ffffffffffffffffffffffffffffffffffffffff1614155b15610ba9578073ffffffffffffffffffffffffffffffffffffffff16633869625b6040518163ffffffff1660e01b8152600401600060405180830381600087803b158015610b0b57600080fd5b505af1158015610b1f573d6000803e3d6000fd5b505050508173ffffffffffffffffffffffffffffffffffffffff1663e165bcdf826040518263ffffffff1660e01b8152600401610b5c91906116bd565b600060405180830381600087803b158015610b7657600080fd5b505af1158015610b8a573d6000803e3d6000fd5b50505050600160056000828254610ba19190611e8c565b925050819055505b6000610bb433611043565b9050600073ffffffffffffffffffffffffffffffffffffffff168173ffffffffffffffffffffffffffffffffffffffff161415610c26576040517f08c379a0000000000000000000000000000000000000000000000000000000008152600401610c1d90611f2e565b60405180910390fd5b8273ffffffffffffffffffffffffffffffffffffffff1663d9724f74826040518263ffffffff1660e01b8152600401610c5f91906116bd565b600060405180830381600087803b158015610c7957600080fd5b505af1158015610c8d573d6000803e3d6000fd5b505050508073ffffffffffffffffffffffffffffffffffffffff1663209077cc6040518163ffffffff1660e01b8152600401600060405180830381600087803b158015610cd957600080fd5b505af1158015610ced573d6000803e3d6000fd5b50505050600080600260009054906101000a900473ffffffffffffffffffffffffffffffffffffffff1673ffffffffffffffffffffffffffffffffffffffff168989604051602001610d40929190611fab565b604051602081830303815290604052604051610d5c9190611fd3565b6000604051808303816000865af19150503d8060008114610d99576040519150601f19603f3d011682016040523d82523d6000602084013e610d9e565b606091505b50915091508096505050505050509392505050565b60068181548110610dc357600080fd5b9060005260206000209060089182820401919006600402915054906101000a900460e01b81565b600260009054906101000a900473ffffffffffffffffffffffffffffffffffffffff1681565b60606000600680549050905060008167ffffffffffffffff811115610e3857610e376116f3565b5b604051908082528060200260200182016040528015610e665781602001602082028036833780820191505090505b50905060005b82811015610f1d5760068181548110610e8857610e87611fea565b5b90600052602060002090600891828204019190066004029054906101000a900460e01b828281518110610ebe57610ebd611fea565b5b60200260200101907bffffffffffffffffffffffffffffffffffffffffffffffffffffffff191690817bffffffffffffffffffffffffffffffffffffffffffffffffffffffff1916815250508080610f1590612019565b915050610e6c565b50809250505090565b600080600860003373ffffffffffffffffffffffffffffffffffffffff1673ffffffffffffffffffffffffffffffffffffffff16815260200190815260200160002060009054906101000a900473ffffffffffffffffffffffffffffffffffffffff16604051602001610f9991906120aa565b60405160208183030381529060405290506000815182604051602001610fc092919061213d565b6040516020818303038152906040528051906020012090506000610fe48286611311565b90503390508573ffffffffffffffffffffffffffffffffffffffff168173ffffffffffffffffffffffffffffffffffffffff1614935050505092915050565b600b6020528060005260406000206000915054906101000a900460ff1681565b60008060008054906101000a900473ffffffffffffffffffffffffffffffffffffffff1690506000808273ffffffffffffffffffffffffffffffffffffffff166354cce28a600387600760008a73ffffffffffffffffffffffffffffffffffffffff1673ffffffffffffffffffffffffffffffffffffffff16815260200190815260200160002054600960008b73ffffffffffffffffffffffffffffffffffffffff1673ffffffffffffffffffffffffffffffffffffffff168152602001908152602001600020546040518563ffffffff1660e01b815260040161112a9493929190612266565b604080518083038186803b15801561114157600080fd5b505afa158015611155573d6000803e3d6000fd5b505050506040513d601f19601f8201168201806040525081019061117991906122b2565b9150915080600960008773ffffffffffffffffffffffffffffffffffffffff1673ffffffffffffffffffffffffffffffffffffffff1681526020019081526020016000208190555081600860008773ffffffffffffffffffffffffffffffffffffffff1673ffffffffffffffffffffffffffffffffffffffff16815260200190815260200160002060006101000a81548173ffffffffffffffffffffffffffffffffffffffff021916908373ffffffffffffffffffffffffffffffffffffffff1602179055506001600760008773ffffffffffffffffffffffffffffffffffffffff1673ffffffffffffffffffffffffffffffffffffffff168152602001908152602001600020600082825461128f9190611e8c565b92505081905550600073ffffffffffffffffffffffffffffffffffffffff168273ffffffffffffffffffffffffffffffffffffffff161415611306576040517f08c379a00000000000000000000000000000000000000000000000000000000081526004016112fd9061233e565b60405180910390fd5b819350505050919050565b60008060006113208585611338565b9150915061132d8161138a565b819250505092915050565b60008060418351141561137a5760008060006020860151925060408601519150606086015160001a905061136e878285856114f8565b94509450505050611383565b60006002915091505b9250929050565b6000600481111561139e5761139d61235e565b5b8160048111156113b1576113b061235e565b5b14156113bc576114f5565b600160048111156113d0576113cf61235e565b5b8160048111156113e3576113e261235e565b5b1415611424576040517f08c379a000000000000000000000000000000000000000000000000000000000815260040161141b906123d9565b60405180910390fd5b600260048111156114385761143761235e565b5b81600481111561144b5761144a61235e565b5b141561148c576040517f08c379a000000000000000000000000000000000000000000000000000000000815260040161148390612445565b60405180910390fd5b600360048111156114a05761149f61235e565b5b8160048111156114b3576114b261235e565b5b14156114f4576040517f08c379a00000000000000000000000000000000000000000000000000000000081526004016114eb906124d7565b60405180910390fd5b5b50565b6000807f7fffffffffffffffffffffffffffffff5d576e7357a4501ddfe92f46681b20a08360001c11156115335760006003915091506115d2565b600060018787878760405160008152602001604052604051611558949392919061252c565b6020604051602081039080840390855afa15801561157a573d6000803e3d6000fd5b505050602060405103519050600073ffffffffffffffffffffffffffffffffffffffff168173ffffffffffffffffffffffffffffffffffffffff1614156115c9576000600192509250506115d2565b80600092509250505b94509492505050565b6000819050919050565b6115ee816115db565b82525050565b600060208201905061160960008301846115e5565b92915050565b6000604051905090565b600080fd5b600080fd5b61162c816115db565b811461163757600080fd5b50565b60008135905061164981611623565b92915050565b60006020828403121561166557611664611619565b5b60006116738482850161163a565b91505092915050565b600073ffffffffffffffffffffffffffffffffffffffff82169050919050565b60006116a78261167c565b9050919050565b6116b78161169c565b82525050565b60006020820190506116d260008301846116ae565b92915050565b600080fd5b600080fd5b6000601f19601f8301169050919050565b7f4e487b7100000000000000000000000000000000000000000000000000000000600052604160045260246000fd5b61172b826116e2565b810181811067ffffffffffffffff8211171561174a576117496116f3565b5b80604052505050565b600061175d61160f565b90506117698282611722565b919050565b600067ffffffffffffffff821115611789576117886116f3565b5b611792826116e2565b9050602081019050919050565b82818337600083830152505050565b60006117c16117bc8461176e565b611753565b9050828152602081018484840111156117dd576117dc6116dd565b5b6117e884828561179f565b509392505050565b600082601f830112611805576118046116d8565b5b81356118158482602086016117ae565b91505092915050565b60007fffffffff0000000000000000000000000000000000000000000000000000000082169050919050565b6118538161181e565b811461185e57600080fd5b50565b6000813590506118708161184a565b92915050565b60008060006060848603121561188f5761188e611619565b5b600084013567ffffffffffffffff8111156118ad576118ac61161e565b5b6118b9868287016117f0565b93505060206118ca86828701611861565b925050604084013567ffffffffffffffff8111156118eb576118ea61161e565b5b6118f7868287016117f0565b9150509250925092565b600081519050919050565b600082825260208201905092915050565b60005b8381101561193b578082015181840152602081019050611920565b8381111561194a576000848401525b50505050565b600061195b82611901565b611965818561190c565b935061197581856020860161191d565b61197e816116e2565b840191505092915050565b600060208201905081810360008301526119a38184611950565b905092915050565b6119b48161181e565b82525050565b60006020820190506119cf60008301846119ab565b92915050565b600081519050919050565b600082825260208201905092915050565b6000819050602082019050919050565b611a0a8161181e565b82525050565b6000611a1c8383611a01565b60208301905092915050565b6000602082019050919050565b6000611a40826119d5565b611a4a81856119e0565b9350611a55836119f1565b8060005b83811015611a86578151611a6d8882611a10565b9750611a7883611a28565b925050600181019050611a59565b5085935050505092915050565b60006020820190508181036000830152611aad8184611a35565b905092915050565b611abe8161169c565b8114611ac957600080fd5b50565b600081359050611adb81611ab5565b92915050565b60008060408385031215611af857611af7611619565b5b6000611b0685828601611acc565b925050602083013567ffffffffffffffff811115611b2757611b2661161e565b5b611b33858286016117f0565b9150509250929050565b60008115159050919050565b611b5281611b3d565b82525050565b6000602082019050611b6d6000830184611b49565b92915050565b600060208284031215611b8957611b88611619565b5b6000611b9784828501611861565b91505092915050565b600081519050611baf81611ab5565b92915050565b600060208284031215611bcb57611bca611619565b5b6000611bd984828501611ba0565b91505092915050565b600081519050611bf181611623565b92915050565b600060208284031215611c0d57611c0c611619565b5b6000611c1b84828501611be2565b91505092915050565b600082825260208201905092915050565b7f57697468647261772066756e6374696f6e2063616e206f6e6c7920626520636160008201527f6c6c65642062792074686520617070726f76656420696e7465677261746f722060208201527f7769746864726177206164647265737300000000000000000000000000000000604082015250565b6000611cb7605083611c24565b9150611cc282611c35565b606082019050919050565b60006020820190508181036000830152611ce681611caa565b9050919050565b7f546865207369676e61747572652070617373656420696e746f2074686973206960008201527f6e746572616374696f6e20697320696e76616c69642e2054686520757365722060208201527f6d757374207369676e2061206d6573736167652077697468207468652064697360408201527f706c617965642061642063616d706169676e2e00000000000000000000000000606082015250565b6000611d95607383611c24565b9150611da082611ced565b608082019050919050565b60006020820190508181036000830152611dc481611d88565b9050919050565b7f46756e6374696f6e20686173206e6f74206265656e20696e636c75646564206160008201527f73206120726576656e75652067656e65726174696e672066756e6374696f6e00602082015250565b6000611e27603f83611c24565b9150611e3282611dcb565b604082019050919050565b60006020820190508181036000830152611e5681611e1a565b9050919050565b7f4e487b7100000000000000000000000000000000000000000000000000000000600052601160045260246000fd5b6000611e97826115db565b9150611ea2836115db565b9250827fffffffffffffffffffffffffffffffffffffffffffffffffffffffffffffffff03821115611ed757611ed6611e5d565b5b828201905092915050565b7f4e6f2043616d706169676e2073656c6563746564000000000000000000000000600082015250565b6000611f18601483611c24565b9150611f2382611ee2565b602082019050919050565b60006020820190508181036000830152611f4781611f0b565b9050919050565b6000819050919050565b611f69611f648261181e565b611f4e565b82525050565b600081905092915050565b6000611f8582611901565b611f8f8185611f6f565b9350611f9f81856020860161191d565b80840191505092915050565b6000611fb78285611f58565b600482019150611fc78284611f7a565b91508190509392505050565b6000611fdf8284611f7a565b915081905092915050565b7f4e487b7100000000000000000000000000000000000000000000000000000000600052603260045260246000fd5b6000612024826115db565b91507fffffffffffffffffffffffffffffffffffffffffffffffffffffffffffffffff82141561205757612056611e5d565b5b600182019050919050565b60008160601b9050919050565b600061207a82612062565b9050919050565b600061208c8261206f565b9050919050565b6120a461209f8261169c565b612081565b82525050565b60006120b68284612093565b60148201915081905092915050565b600081905092915050565b7f19457468657265756d205369676e6564204d6573736167653a0a000000000000600082015250565b6000612106601a836120c5565b9150612111826120d0565b601a82019050919050565b6000819050919050565b612137612132826115db565b61211c565b82525050565b6000612148826120f9565b91506121548285612126565b6020820191506121648284611f7a565b91508190509392505050565b7f4e487b7100000000000000000000000000000000000000000000000000000000600052602260045260246000fd5b600060028204905060018216806121b757607f821691505b602082108114156121cb576121ca612170565b5b50919050565b60008190508160005260206000209050919050565b600081546121f38161219f565b6121fd8186611c24565b94506001821660008114612218576001811461222a5761225d565b60ff198316865260208601935061225d565b612233856121d1565b60005b8381101561225557815481890152600182019150602081019050612236565b808801955050505b50505092915050565b6000608082019050818103600083015261228081876121e6565b905061228f60208301866116ae565b61229c60408301856115e5565b6122a960608301846115e5565b95945050505050565b600080604083850312156122c9576122c8611619565b5b60006122d785828601611ba0565b92505060206122e885828601611be2565b9150509250929050565b7f4e6f2043616d706169676e2073656c656374656420666f722075736572000000600082015250565b6000612328601d83611c24565b9150612333826122f2565b602082019050919050565b600060208201905081810360008301526123578161231b565b9050919050565b7f4e487b7100000000000000000000000000000000000000000000000000000000600052602160045260246000fd5b7f45434453413a20696e76616c6964207369676e61747572650000000000000000600082015250565b60006123c3601883611c24565b91506123ce8261238d565b602082019050919050565b600060208201905081810360008301526123f2816123b6565b9050919050565b7f45434453413a20696e76616c6964207369676e6174757265206c656e67746800600082015250565b600061242f601f83611c24565b915061243a826123f9565b602082019050919050565b6000602082019050818103600083015261245e81612422565b9050919050565b7f45434453413a20696e76616c6964207369676e6174757265202773272076616c60008201527f7565000000000000000000000000000000000000000000000000000000000000602082015250565b60006124c1602283611c24565b91506124cc82612465565b604082019050919050565b600060208201905081810360008301526124f0816124b4565b9050919050565b6000819050919050565b61250a816124f7565b82525050565b600060ff82169050919050565b61252681612510565b82525050565b60006080820190506125416000830187612501565b61254e602083018661251d565b61255b6040830185612501565b6125686060830184612501565b9594505050505056fea2646970667358221220d240c71fc2a47275cbe9f21b0048c99ef4a4b39a4a047f70331953531fd4ba7264736f6c63430008090033",
  "immutableReferences": {},
  "source": "pragma solidity ^0.8.0;\n\nimport \"@openzeppelin/contracts/token/ERC20/IERC20.sol\";\nimport \"./Factory.sol\";\nimport \"./Campaign.sol\";\nimport \"./Treasury.sol\";\nimport \"@openzeppelin/contracts/utils/cryptography/ECDSA.sol\";\n\n/// @title Integrator\n/// @author Michael Manzano\n/// @notice This contract is for handling ad revenues for platforms integrating the Billboard protocol to their interaction flow\ncontract Integrator {\n\n    address factory;\n    address protocolTokenAddress;\n    address public protocol;\n    string category;\n    uint protocolAdPriceBucket;\n    uint public servedAdCounter;\n\n    bytes4[] public validFunctionSignatures;\n\n    /// userToInteractionNonce holds the counter for number of times a user has interacted with the integrated protocol's campaign functions\n    mapping(address => uint) userToInteractionNonce;\n    mapping(address => address) private userToCurrentAdSelected; /// userToCurrentAdSelected holds the current campaign to be displayed to a given user for this nonce\n    mapping(address => uint) userToCampaignCountAtSelection;\n    mapping(address => uint) userToPendingAmount;\n    mapping(bytes4 => bool) public validFunctions;\n\n    /// @notice Initializes a new Integrator contract.\n    /// @param integratingProtocol The address of the contract whose functions will be routed through the integrator.\n    /// @param integratorCategory The category of the integrator.\n    /// @param functionSignatures The function signatures on the contract that will be routed through the integrator\n    /// @dev functionSignatures should not be in bytes format. Example of a correct function signature argument: \"mintNFT(address)\"\n    constructor(address integratingProtocol, string memory integratorCategory, string[] memory functionSignatures) {\n        category = integratorCategory;\n        factory = msg.sender;\n        Factory factoryInstance = Factory(factory);\n        protocolTokenAddress = factoryInstance.protocolToken();\n        protocol = integratingProtocol;\n        for (uint i = 0; i < functionSignatures.length; i++) {\n            bytes4 functionSelector = bytes4(keccak256(bytes(functionSignatures[i])));\n            validFunctions[functionSelector] = true;\n            validFunctionSignatures.push(functionSelector);\n        }\n    }\n\n    /// @notice Retrieves the list of function signatures.\n    /// @return An array of function signatures in the hashed bytes4 format\n    function getFunctionSignatures() public view returns (bytes4[] memory) {\n        uint functionCount = validFunctionSignatures.length;\n        bytes4[] memory signatures = new bytes4[](functionCount);\n        for(uint i = 0; i < functionCount; i++) {\n            signatures[i] = validFunctionSignatures[i];\n        }\n        return signatures;\n    }\n\n    /// signature is a signed message from the frontend that confirms the current ad campaign was read from the front end\n    /// functionSignature is the function to be called on ExampleIntegrator\n    /// functionParams holds the params to be called on the ExampleIntegrator\n    /// @notice Triggers an interaction on the integrated protocol.\n    /// @param signature The signed message from the frontend, confirming that the user viewed this campaign content in the metamask snap\n    /// @param functionSignature The hashed bytes4 signature of the function to be called.\n    /// @param functionParams The parameter bytes to pass as call data to the function to be called.\n    /// @dev There is no 'require(success == true)' after protocol.call() because even if external call is unsuccessful, we can confirm that the user was served the ad and can be registered as such \n    /// @return The result of the interaction.\n    function routeInteraction(bytes memory signature, bytes4 functionSignature, bytes memory functionParams) external returns (bytes memory) {\n        bool signatureValid = validateUserSignature(msg.sender, signature);\n        require(signatureValid == true, \"The signature passed into this interaction is invalid. The user must sign a message with the displayed ad campaign.\");\n        require(validFunctions[functionSignature] == true, \"Function has not been included as a revenue generating function\");\n        Factory factoryInstance = Factory(factory);\n        address completedCampaignAddress = userToCurrentAdSelected[msg.sender];\n        if (completedCampaignAddress != address(0) && completedCampaignAddress != factoryInstance.fallbackAddress()) {\n            Campaign(completedCampaignAddress).incCumulativeAdViews();\n            factoryInstance.spendCompleted(completedCampaignAddress);\n            servedAdCounter += 1;\n        }\n        address campaignQueuedAddress = setUserAdToDisplay(msg.sender);\n        require(campaignQueuedAddress != address(0), \"No Campaign selected\");\n        factoryInstance.newPendingSpend(campaignQueuedAddress);\n        Campaign(campaignQueuedAddress).incCumulativeAdQueued();\n        (bool success, bytes memory data) = protocol.call(abi.encodePacked(functionSignature, functionParams));\n        return data;\n    }\n\n    /// @notice Displays the current ad for the caller.\n    /// @return The address of the current ad campaign.\n    function displayCurrentAd() public view returns (address) {\n        if (userToCurrentAdSelected[msg.sender] == address(0)) {\n            Factory factoryInstance = Factory(factory);\n            return factoryInstance.fallbackAddress();\n        }\n        return userToCurrentAdSelected[msg.sender];\n    }\n    \n    /// @notice Validates that a signature was made by a user and that it signed over the current campaign address assignd to that user.\n    /// @notice This is for verifying that an ad was served in the snap\n    /// @param sender The address of the sender.\n    /// @param signature The signature to validate.\n    /// @return A boolean indicating the validity of the signature.\n    function validateUserSignature(address sender, bytes memory signature) public view returns (bool) {\n        bytes memory combinedMessageNoHash = abi.encodePacked(userToCurrentAdSelected[msg.sender]);\n        bytes32 message = keccak256(abi.encodePacked(\"\\x19Ethereum Signed Message:\\n\", combinedMessageNoHash.length, combinedMessageNoHash));\n        address signerAddress = ECDSA.recover(message, signature);\n        ///IMPORTANT - Currently assumed that signature was made by msg.sender\n        signerAddress = msg.sender;\n        return (signerAddress == sender);\n    }\n\n    /// @notice Sets all of the state values when a new campaign is assigned to a user\n    /// @param sender The address of the user.\n    /// @return The address of the campaign to display, selected from calling getCampaignForUser on the factory contract.\n    function setUserAdToDisplay(address sender) internal returns (address) {\n        Factory factoryInstance = Factory(factory);\n        (address newAdCampaign, uint campaignCount) = factoryInstance.getCampaignForUser(category, sender, userToInteractionNonce[sender], userToCampaignCountAtSelection[sender]);\n        userToCampaignCountAtSelection[sender] = campaignCount;\n        userToCurrentAdSelected[sender] = newAdCampaign;\n        userToInteractionNonce[sender] += 1;\n        require(newAdCampaign != address(0), \"No Campaign selected for user\");\n        return newAdCampaign;\n    }\n\n    /// @notice Retrieves the cumulative ad revenue.\n    /// @return The total cumulative ad revenue since integrator deployment.\n    function cumulativeAdRevenue() public view returns (uint) {\n        Factory factoryInstance = Factory(factory);\n        Treasury treasury = Treasury(factoryInstance.treasuryAddress());\n        return treasury.cumulativeIntegratorRevenue();\n    }\n\n    /// @notice Retrieves the available ad revenue that can be withdrawn.\n    /// @return The available ad revenue.\n    function currentAvailableAdRevenue() public view returns (uint) {\n        Factory factoryInstance = Factory(factory);\n        Treasury treasury = Treasury(factoryInstance.treasuryAddress());\n        return treasury.integratorRevenueUncollectedForUser();\n    }\n\n    /// @notice Executes the withdrawal transfer of revenues from treasury to the integrator.\n    /// @dev After UMA/Kleros implementation, this function can only be called after judgement is reached that the guidelines/rules have been followed\n    /// @param amount The amount to withdraw.\n    function integratorWithdraw(uint amount) public {\n        Factory factoryInstance = Factory(factory);\n        Treasury treasury = Treasury(factoryInstance.treasuryAddress());\n        require (msg.sender == treasury.integratorWithdrawAddresses(address(this)), \"Withdraw function can only be called by the approved integrator withdraw address\");\n        treasury.integratorWithdraw(amount);\n    }\n\n}\n",
  "sourcePath": "/home/michael/Documents/billboard/protocol-truffle/contracts/Integrator.sol",
  "compiler": {
    "name": "solc",
    "version": "0.8.9+commit.e5eed63a.Emscripten.clang"
  },
  "schemaVersion": "3.4.15",
  "updatedAt": "2023-08-10T13:41:20.537Z",
  "devdoc": {
    "author": "Michael Manzano",
    "kind": "dev",
    "methods": {
      "constructor": {
        "details": "functionSignatures should not be in bytes format. Example of a correct function signature argument: \"mintNFT(address)\"",
        "params": {
          "functionSignatures": "The function signatures on the contract that will be routed through the integrator",
          "integratingProtocol": "The address of the contract whose functions will be routed through the integrator.",
          "integratorCategory": "The category of the integrator."
        }
      },
      "cumulativeAdRevenue()": {
        "returns": {
          "_0": "The total cumulative ad revenue since integrator deployment."
        }
      },
      "currentAvailableAdRevenue()": {
        "returns": {
          "_0": "The available ad revenue."
        }
      },
      "displayCurrentAd()": {
        "returns": {
          "_0": "The address of the current ad campaign."
        }
      },
      "getFunctionSignatures()": {
        "returns": {
          "_0": "An array of function signatures in the hashed bytes4 format"
        }
      },
      "integratorWithdraw(uint256)": {
        "details": "After UMA/Kleros implementation, this function can only be called after judgement is reached that the guidelines/rules have been followed",
        "params": {
          "amount": "The amount to withdraw."
        }
      },
      "routeInteraction(bytes,bytes4,bytes)": {
        "details": "There is no 'require(success == true)' after protocol.call() because even if external call is unsuccessful, we can confirm that the user was served the ad and can be registered as such ",
        "params": {
          "functionParams": "The parameter bytes to pass as call data to the function to be called.",
          "functionSignature": "The hashed bytes4 signature of the function to be called.",
          "signature": "The signed message from the frontend, confirming that the user viewed this campaign content in the metamask snap"
        },
        "returns": {
          "_0": "The result of the interaction."
        }
      },
      "validateUserSignature(address,bytes)": {
        "params": {
          "sender": "The address of the sender.",
          "signature": "The signature to validate."
        },
        "returns": {
          "_0": "A boolean indicating the validity of the signature."
        }
      }
    },
    "title": "Integrator",
    "version": 1
  },
  "userdoc": {
    "kind": "user",
    "methods": {
      "constructor": {
        "notice": "Initializes a new Integrator contract."
      },
      "cumulativeAdRevenue()": {
        "notice": "Retrieves the cumulative ad revenue."
      },
      "currentAvailableAdRevenue()": {
        "notice": "Retrieves the available ad revenue that can be withdrawn."
      },
      "displayCurrentAd()": {
        "notice": "Displays the current ad for the caller."
      },
      "getFunctionSignatures()": {
        "notice": "Retrieves the list of function signatures."
      },
      "integratorWithdraw(uint256)": {
        "notice": "Executes the withdrawal transfer of revenues from treasury to the integrator."
      },
      "routeInteraction(bytes,bytes4,bytes)": {
        "notice": "signature is a signed message from the frontend that confirms the current ad campaign was read from the front end functionSignature is the function to be called on ExampleIntegrator functionParams holds the params to be called on the ExampleIntegratorTriggers an interaction on the integrated protocol."
      },
      "validateUserSignature(address,bytes)": {
        "notice": "Validates that a signature was made by a user and that it signed over the current campaign address assignd to that user.This is for verifying that an ad was served in the snap"
      }
    },
    "notice": "This contract is for handling ad revenues for platforms integrating the Billboard protocol to their interaction flow",
    "version": 1
  }
}