{
  "contractName": "Treasury",
  "abi": [
    {
      "inputs": [
        {
          "internalType": "address",
          "name": "tokenAddress",
          "type": "address"
        }
      ],
      "stateMutability": "nonpayable",
      "type": "constructor"
    },
    {
      "inputs": [
        {
          "internalType": "address",
          "name": "",
          "type": "address"
        }
      ],
      "name": "campaignWithdrawAddresses",
      "outputs": [
        {
          "internalType": "address",
          "name": "",
          "type": "address"
        }
      ],
      "stateMutability": "view",
      "type": "function"
    },
    {
      "inputs": [],
      "name": "factoryAddress",
      "outputs": [
        {
          "internalType": "address",
          "name": "",
          "type": "address"
        }
      ],
      "stateMutability": "view",
      "type": "function"
    },
    {
      "inputs": [
        {
          "internalType": "address",
          "name": "",
          "type": "address"
        }
      ],
      "name": "integratorWithdrawAddresses",
      "outputs": [
        {
          "internalType": "address",
          "name": "",
          "type": "address"
        }
      ],
      "stateMutability": "view",
      "type": "function"
    },
    {
      "inputs": [],
      "name": "protocolToken",
      "outputs": [
        {
          "internalType": "address",
          "name": "",
          "type": "address"
        }
      ],
      "stateMutability": "view",
      "type": "function"
    },
    {
      "inputs": [
        {
          "internalType": "uint256",
          "name": "amount",
          "type": "uint256"
        },
        {
          "internalType": "address",
          "name": "initiator",
          "type": "address"
        }
      ],
      "name": "depositSpend",
      "outputs": [],
      "stateMutability": "nonpayable",
      "type": "function"
    },
    {
      "inputs": [
        {
          "internalType": "uint256",
          "name": "amount",
          "type": "uint256"
        },
        {
          "internalType": "address",
          "name": "campaign",
          "type": "address"
        }
      ],
      "name": "newPendingSpend",
      "outputs": [
        {
          "internalType": "uint256",
          "name": "",
          "type": "uint256"
        }
      ],
      "stateMutability": "nonpayable",
      "type": "function"
    },
    {
      "inputs": [
        {
          "internalType": "address",
          "name": "campaignAddress",
          "type": "address"
        },
        {
          "internalType": "address",
          "name": "withdrawAddress",
          "type": "address"
        }
      ],
      "name": "setCampaignWithdrawAddress",
      "outputs": [],
      "stateMutability": "nonpayable",
      "type": "function"
    },
    {
      "inputs": [
        {
          "internalType": "uint256",
          "name": "amount",
          "type": "uint256"
        }
      ],
      "name": "campaignWithdraw",
      "outputs": [],
      "stateMutability": "nonpayable",
      "type": "function"
    },
    {
      "inputs": [
        {
          "internalType": "address",
          "name": "integratorAddress",
          "type": "address"
        },
        {
          "internalType": "address",
          "name": "withdrawAddress",
          "type": "address"
        }
      ],
      "name": "setIntegratorWithdrawAddress",
      "outputs": [],
      "stateMutability": "nonpayable",
      "type": "function"
    },
    {
      "inputs": [
        {
          "internalType": "uint256",
          "name": "amount",
          "type": "uint256"
        }
      ],
      "name": "integratorWithdraw",
      "outputs": [],
      "stateMutability": "nonpayable",
      "type": "function"
    },
    {
      "inputs": [
        {
          "internalType": "uint256",
          "name": "amount",
          "type": "uint256"
        },
        {
          "internalType": "address",
          "name": "integrator",
          "type": "address"
        },
        {
          "internalType": "address",
          "name": "campaign",
          "type": "address"
        }
      ],
      "name": "spendCompleted",
      "outputs": [
        {
          "internalType": "uint256",
          "name": "",
          "type": "uint256"
        }
      ],
      "stateMutability": "nonpayable",
      "type": "function"
    },
    {
      "inputs": [],
      "name": "getAvailableAdSpend",
      "outputs": [
        {
          "internalType": "uint256",
          "name": "",
          "type": "uint256"
        }
      ],
      "stateMutability": "view",
      "type": "function"
    },
    {
      "inputs": [],
      "name": "cumulativeIntegratorRevenue",
      "outputs": [
        {
          "internalType": "uint256",
          "name": "",
          "type": "uint256"
        }
      ],
      "stateMutability": "view",
      "type": "function"
    },
    {
      "inputs": [],
      "name": "integratorRevenueUncollectedForUser",
      "outputs": [
        {
          "internalType": "uint256",
          "name": "",
          "type": "uint256"
        }
      ],
      "stateMutability": "view",
      "type": "function"
    }
  ],
  "bytecode": "0x60806040523480156200001157600080fd5b5060405162001a0838038062001a08833981810160405281019062000037919062000129565b806000806101000a81548173ffffffffffffffffffffffffffffffffffffffff021916908373ffffffffffffffffffffffffffffffffffffffff16021790555033600160006101000a81548173ffffffffffffffffffffffffffffffffffffffff021916908373ffffffffffffffffffffffffffffffffffffffff160217905550506200015b565b600080fd5b600073ffffffffffffffffffffffffffffffffffffffff82169050919050565b6000620000f182620000c4565b9050919050565b6200010381620000e4565b81146200010f57600080fd5b50565b6000815190506200012381620000f8565b92915050565b600060208284031215620001425762000141620000bf565b5b6000620001528482850162000112565b91505092915050565b61189d806200016b6000396000f3fe608060405234801561001057600080fd5b50600436106100ea5760003560e01c8063966dae0e1161008c578063ca174a5511610066578063ca174a5514610237578063cb3b73c314610267578063dd17862e14610283578063e8b291c6146102b3576100ea565b8063966dae0e146101df578063998aabfd146101fd578063aef93fc014610219576100ea565b80632db34df5116100c85780632db34df5146101595780633dd21e28146101775780633fa408bc1461019357806359b5ce8e146101af576100ea565b80631a465fe1146100ef5780631d7eb4931461010d57806320f97ec014610129575b600080fd5b6100f76102d1565b604051610104919061126b565b60405180910390f35b610127600480360381019061012291906112c1565b6102f5565b005b610143600480360381019061013e919061131a565b610527565b604051610150919061137c565b60405180910390f35b6101616109da565b60405161016e919061137c565b60405180910390f35b610191600480360381019061018c9190611397565b610a21565b005b6101ad60048036038101906101a891906112c1565b610b2b565b005b6101c960048036038101906101c49190611397565b610d69565b6040516101d6919061137c565b60405180910390f35b6101e7610e58565b6040516101f4919061126b565b60405180910390f35b610217600480360381019061021291906113d7565b610e7e565b005b610221610f90565b60405161022e919061137c565b60405180910390f35b610251600480360381019061024c9190611417565b611021565b60405161025e919061126b565b60405180910390f35b610281600480360381019061027c91906113d7565b611054565b005b61029d60048036038101906102989190611417565b611166565b6040516102aa919061126b565b60405180910390f35b6102bb611199565b6040516102c8919061137c565b60405180910390f35b60008054906101000a900473ffffffffffffffffffffffffffffffffffffffff1681565b80600260003373ffffffffffffffffffffffffffffffffffffffff1673ffffffffffffffffffffffffffffffffffffffff16815260200190815260200160002054600360003373ffffffffffffffffffffffffffffffffffffffff1673ffffffffffffffffffffffffffffffffffffffff168152602001908152602001600020546103809190611473565b10156103c1576040517f08c379a00000000000000000000000000000000000000000000000000000000081526004016103b89061152a565b60405180910390fd5b80600360003373ffffffffffffffffffffffffffffffffffffffff1673ffffffffffffffffffffffffffffffffffffffff16815260200190815260200160002060008282546104109190611473565b9250508190555060008054906101000a900473ffffffffffffffffffffffffffffffffffffffff1673ffffffffffffffffffffffffffffffffffffffff1663a9059cbb600a60003373ffffffffffffffffffffffffffffffffffffffff1673ffffffffffffffffffffffffffffffffffffffff16815260200190815260200160002060009054906101000a900473ffffffffffffffffffffffffffffffffffffffff16836040518363ffffffff1660e01b81526004016104d192919061154a565b602060405180830381600087803b1580156104eb57600080fd5b505af11580156104ff573d6000803e3d6000fd5b505050506040513d601f19601f8201168201806040525081019061052391906115ab565b5050565b6000600160009054906101000a900473ffffffffffffffffffffffffffffffffffffffff1673ffffffffffffffffffffffffffffffffffffffff163373ffffffffffffffffffffffffffffffffffffffff16146105b9576040517f08c379a00000000000000000000000000000000000000000000000000000000081526004016105b090611670565b60405180910390fd5b83600260008473ffffffffffffffffffffffffffffffffffffffff1673ffffffffffffffffffffffffffffffffffffffff16815260200190815260200160002060008282546106089190611473565b9250508190555083600360008473ffffffffffffffffffffffffffffffffffffffff1673ffffffffffffffffffffffffffffffffffffffff168152602001908152602001600020600082825461065e9190611473565b9250508190555083600460008573ffffffffffffffffffffffffffffffffffffffff1673ffffffffffffffffffffffffffffffffffffffff16815260200190815260200160002060008282546106b49190611690565b925050819055506000600860008573ffffffffffffffffffffffffffffffffffffffff1673ffffffffffffffffffffffffffffffffffffffff16815260200190815260200160002060008473ffffffffffffffffffffffffffffffffffffffff1673ffffffffffffffffffffffffffffffffffffffff1681526020019081526020016000205411156107d85783600860008573ffffffffffffffffffffffffffffffffffffffff1673ffffffffffffffffffffffffffffffffffffffff16815260200190815260200160002060008473ffffffffffffffffffffffffffffffffffffffff1673ffffffffffffffffffffffffffffffffffffffff16815260200190815260200160002060008282546107cc9190611690565b92505081905550610991565b83600860008573ffffffffffffffffffffffffffffffffffffffff1673ffffffffffffffffffffffffffffffffffffffff16815260200190815260200160002060008473ffffffffffffffffffffffffffffffffffffffff1673ffffffffffffffffffffffffffffffffffffffff16815260200190815260200160002060008282546108649190611690565b925050819055506001600660008573ffffffffffffffffffffffffffffffffffffffff1673ffffffffffffffffffffffffffffffffffffffff16815260200190815260200160002060008282546108bb9190611690565b9250508190555081600760008573ffffffffffffffffffffffffffffffffffffffff1673ffffffffffffffffffffffffffffffffffffffff1681526020019081526020016000206000600660008773ffffffffffffffffffffffffffffffffffffffff1673ffffffffffffffffffffffffffffffffffffffff16815260200190815260200160002054815260200190815260200160002060006101000a81548173ffffffffffffffffffffffffffffffffffffffff021916908373ffffffffffffffffffffffffffffffffffffffff1602179055505b600360008373ffffffffffffffffffffffffffffffffffffffff1673ffffffffffffffffffffffffffffffffffffffff1681526020019081526020016000205490509392505050565b6000600460003373ffffffffffffffffffffffffffffffffffffffff1673ffffffffffffffffffffffffffffffffffffffff16815260200190815260200160002054905090565b81600360003373ffffffffffffffffffffffffffffffffffffffff1673ffffffffffffffffffffffffffffffffffffffff1681526020019081526020016000206000828254610a709190611690565b9250508190555060008054906101000a900473ffffffffffffffffffffffffffffffffffffffff1673ffffffffffffffffffffffffffffffffffffffff166323b872dd8230856040518463ffffffff1660e01b8152600401610ad4939291906116e6565b602060405180830381600087803b158015610aee57600080fd5b505af1158015610b02573d6000803e3d6000fd5b505050506040513d601f19601f82011682018060405250810190610b2691906115ab565b505050565b80600460003373ffffffffffffffffffffffffffffffffffffffff1673ffffffffffffffffffffffffffffffffffffffff168152602001908152602001600020541015610bad576040517f08c379a0000000000000000000000000000000000000000000000000000000008152600401610ba4906117b5565b60405180910390fd5b80600460003373ffffffffffffffffffffffffffffffffffffffff1673ffffffffffffffffffffffffffffffffffffffff1681526020019081526020016000206000828254610bfc9190611473565b9250508190555080600560003373ffffffffffffffffffffffffffffffffffffffff1673ffffffffffffffffffffffffffffffffffffffff1681526020019081526020016000206000828254610c529190611690565b9250508190555060008054906101000a900473ffffffffffffffffffffffffffffffffffffffff1673ffffffffffffffffffffffffffffffffffffffff1663a9059cbb600960003373ffffffffffffffffffffffffffffffffffffffff1673ffffffffffffffffffffffffffffffffffffffff16815260200190815260200160002060009054906101000a900473ffffffffffffffffffffffffffffffffffffffff16836040518363ffffffff1660e01b8152600401610d1392919061154a565b602060405180830381600087803b158015610d2d57600080fd5b505af1158015610d41573d6000803e3d6000fd5b505050506040513d601f19601f82011682018060405250810190610d6591906115ab565b5050565b6000600160009054906101000a900473ffffffffffffffffffffffffffffffffffffffff1673ffffffffffffffffffffffffffffffffffffffff163373ffffffffffffffffffffffffffffffffffffffff1614610dfb576040517f08c379a0000000000000000000000000000000000000000000000000000000008152600401610df290611670565b60405180910390fd5b82600260008473ffffffffffffffffffffffffffffffffffffffff1673ffffffffffffffffffffffffffffffffffffffff1681526020019081526020016000206000828254610e4a9190611690565b925050819055905092915050565b600160009054906101000a900473ffffffffffffffffffffffffffffffffffffffff1681565b600160009054906101000a900473ffffffffffffffffffffffffffffffffffffffff1673ffffffffffffffffffffffffffffffffffffffff163373ffffffffffffffffffffffffffffffffffffffff1614610f0e576040517f08c379a0000000000000000000000000000000000000000000000000000000008152600401610f0590611847565b60405180910390fd5b80600a60008473ffffffffffffffffffffffffffffffffffffffff1673ffffffffffffffffffffffffffffffffffffffff16815260200190815260200160002060006101000a81548173ffffffffffffffffffffffffffffffffffffffff021916908373ffffffffffffffffffffffffffffffffffffffff1602179055505050565b6000600560003373ffffffffffffffffffffffffffffffffffffffff1673ffffffffffffffffffffffffffffffffffffffff16815260200190815260200160002054600460003373ffffffffffffffffffffffffffffffffffffffff1673ffffffffffffffffffffffffffffffffffffffff1681526020019081526020016000205461101c9190611690565b905090565b600a6020528060005260406000206000915054906101000a900473ffffffffffffffffffffffffffffffffffffffff1681565b600160009054906101000a900473ffffffffffffffffffffffffffffffffffffffff1673ffffffffffffffffffffffffffffffffffffffff163373ffffffffffffffffffffffffffffffffffffffff16146110e4576040517f08c379a00000000000000000000000000000000000000000000000000000000081526004016110db90611847565b60405180910390fd5b80600960008473ffffffffffffffffffffffffffffffffffffffff1673ffffffffffffffffffffffffffffffffffffffff16815260200190815260200160002060006101000a81548173ffffffffffffffffffffffffffffffffffffffff021916908373ffffffffffffffffffffffffffffffffffffffff1602179055505050565b60096020528060005260406000206000915054906101000a900473ffffffffffffffffffffffffffffffffffffffff1681565b6000600260003373ffffffffffffffffffffffffffffffffffffffff1673ffffffffffffffffffffffffffffffffffffffff16815260200190815260200160002054600360003373ffffffffffffffffffffffffffffffffffffffff1673ffffffffffffffffffffffffffffffffffffffff168152602001908152602001600020546112259190611473565b905090565b600073ffffffffffffffffffffffffffffffffffffffff82169050919050565b60006112558261122a565b9050919050565b6112658161124a565b82525050565b6000602082019050611280600083018461125c565b92915050565b600080fd5b6000819050919050565b61129e8161128b565b81146112a957600080fd5b50565b6000813590506112bb81611295565b92915050565b6000602082840312156112d7576112d6611286565b5b60006112e5848285016112ac565b91505092915050565b6112f78161124a565b811461130257600080fd5b50565b600081359050611314816112ee565b92915050565b60008060006060848603121561133357611332611286565b5b6000611341868287016112ac565b935050602061135286828701611305565b925050604061136386828701611305565b9150509250925092565b6113768161128b565b82525050565b6000602082019050611391600083018461136d565b92915050565b600080604083850312156113ae576113ad611286565b5b60006113bc858286016112ac565b92505060206113cd85828601611305565b9150509250929050565b600080604083850312156113ee576113ed611286565b5b60006113fc85828601611305565b925050602061140d85828601611305565b9150509250929050565b60006020828403121561142d5761142c611286565b5b600061143b84828501611305565b91505092915050565b7f4e487b7100000000000000000000000000000000000000000000000000000000600052601160045260246000fd5b600061147e8261128b565b91506114898361128b565b92508282101561149c5761149b611444565b5b828203905092915050565b600082825260208201905092915050565b7f43616e6e6f74207769746864726177206d6f7265207468616e2072656d61696e60008201527f696e67207370656e640000000000000000000000000000000000000000000000602082015250565b60006115146029836114a7565b915061151f826114b8565b604082019050919050565b6000602082019050818103600083015261154381611507565b9050919050565b600060408201905061155f600083018561125c565b61156c602083018461136d565b9392505050565b60008115159050919050565b61158881611573565b811461159357600080fd5b50565b6000815190506115a58161157f565b92915050565b6000602082840312156115c1576115c0611286565b5b60006115cf84828501611596565b91505092915050565b7f546869732066756e6374696f6e2063616e206f6e6c792062652063616c6c656460008201527f206279207468652063616d706169676e20666163746f727920636f6e7472616360208201527f7400000000000000000000000000000000000000000000000000000000000000604082015250565b600061165a6041836114a7565b9150611665826115d8565b606082019050919050565b600060208201905081810360008301526116898161164d565b9050919050565b600061169b8261128b565b91506116a68361128b565b9250827fffffffffffffffffffffffffffffffffffffffffffffffffffffffffffffffff038211156116db576116da611444565b5b828201905092915050565b60006060820190506116fb600083018661125c565b611708602083018561125c565b611715604083018461136d565b949350505050565b7f43616e6e6f74207769746864726177206d6f7265207468616e20756e636f6c6c60008201527f656374656420726576656e75657320616c6c6f636174656420746f20696e746560208201527f677261746f720000000000000000000000000000000000000000000000000000604082015250565b600061179f6046836114a7565b91506117aa8261171d565b606082019050919050565b600060208201905081810360008301526117ce81611792565b9050919050565b7f546869732066756e6374696f6e2063616e206f6e6c792062652063616c6c656460008201527f2062792074686520666163746f72794164647265737300000000000000000000602082015250565b60006118316036836114a7565b915061183c826117d5565b604082019050919050565b6000602082019050818103600083015261186081611824565b905091905056fea264697066735822122062f9bfcf68d680fee714be79ae080dfe1a0ca4019198657ebb9a12be0a5b58d964736f6c63430008090033",
  "immutableReferences": {},
  "source": "pragma solidity ^0.8.0;\n\nimport \"@openzeppelin/contracts/token/ERC20/IERC20.sol\";\n\n/// @title Treasury\n/// @author Michael Manzano\n/// @notice This contract is for handling protocol level revenues\ncontract Treasury {\n    address public protocolToken;\n    address public factoryAddress; \n\n    mapping(address => uint) campaignSpendPending;\n    mapping(address => uint) campaignSpendRemaining;\n    mapping(address => uint) integratorRevenueUncollected;\n    mapping(address => uint) integratorRevenueWithdrawn;\n    mapping(address => uint) integratorSourceCount;\n    mapping(address => mapping(uint => address)) integratorRevenueSources;\n    mapping(address => mapping(address => uint)) integratorRevenueBySource;\n    mapping(address => address) public integratorWithdrawAddresses;\n    mapping(address => address) public campaignWithdrawAddresses;\n    \n    /// @notice Initializes the Treasury for the Billboard protocol\n    /// @param tokenAddress The address of the protocol token.\n    constructor(address tokenAddress) {\n        protocolToken = tokenAddress;\n        factoryAddress = msg.sender;\n    }\n    \n    /// @notice Deposits a certain amount to the Treasury for a campaign.\n    /// @param amount The amount to be deposited.\n    /// @param initiator The address initiating the deposit.\n    function depositSpend(uint amount, address initiator) public {\n        campaignSpendRemaining[msg.sender] += amount;\n        IERC20(protocolToken).transferFrom(initiator, address(this), amount);\n    }\n    \n    /// @notice Registers a pending spend amount for a campaign.\n    /// @dev A pending spend occurs when an ad is queued but has not been displayed yet\n    /// @dev Pending spend is held in escrow. Neither the campaign nor the integrator can withdraw it\n    /// @param amount The amount to be allocated as pending.\n    /// @param campaign The address of the campaign.\n    /// @return The new pending balance for the campaign.\n    function newPendingSpend(uint amount, address campaign) external returns (uint) {\n        require(msg.sender == factoryAddress, \"This function can only be called by the campaign factory contract\");\n        return campaignSpendPending[campaign] += amount;\n    }\n\n    /// @notice Sets the withdrawal address for a campaign.\n    /// @param campaignAddress The address of the campaign.\n    /// @param withdrawAddress The address to receive withdrawals.\n    function setCampaignWithdrawAddress(address campaignAddress, address withdrawAddress) external {\n        require(msg.sender == factoryAddress, \"This function can only be called by the factoryAddress\");\n        campaignWithdrawAddresses[campaignAddress] = withdrawAddress;\n    }\n\n    /// @notice Executes a campaign funding withdraw, transfering tokens to the assigned campaign withdraw address.\n    /// @param amount The amount to withdraw.\n    function campaignWithdraw(uint amount) external {\n        require((campaignSpendRemaining[msg.sender] - campaignSpendPending[msg.sender]) >= amount, \"Cannot withdraw more than remaining spend\");\n        campaignSpendRemaining[msg.sender] -= amount;\n        IERC20(protocolToken).transfer(campaignWithdrawAddresses[msg.sender], amount);\n    }\n\n    /// @notice Sets the withdrawal address for an integrator.\n    /// @param integratorAddress The address of the integrator.\n    /// @param withdrawAddress The address to receive withdrawals.\n    function setIntegratorWithdrawAddress(address integratorAddress, address withdrawAddress) external {\n        require(msg.sender == factoryAddress, \"This function can only be called by the factoryAddress\");\n        integratorWithdrawAddresses[integratorAddress] = withdrawAddress;\n    }\n\n    /// @notice Allows an integrator to withdraw funds.\n    /// @param amount The amount to withdraw.\n    function integratorWithdraw(uint amount) external {\n        require(integratorRevenueUncollected[msg.sender] >= amount, \"Cannot withdraw more than uncollected revenues allocated to integrator\");\n        integratorRevenueUncollected[msg.sender] -= amount;\n        integratorRevenueWithdrawn[msg.sender] += amount;\n        IERC20(protocolToken).transfer(integratorWithdrawAddresses[msg.sender], amount);\n    }\n\n    /// @notice Marks the completion of a spend for an integrator.\n    /// @dev Reallocate pending funds held in escrow to available for withdraw by the integrator\n    /// @param amount The completed spend amount.\n    /// @param integrator The address of the integrator.\n    /// @param campaign The address of the campaign.\n    /// @return The new actual balance for the campaign.\n    function spendCompleted(uint amount, address integrator, address campaign) external returns (uint) {\n        require(msg.sender == factoryAddress, \"This function can only be called by the campaign factory contract\");\n        campaignSpendPending[campaign] -= amount;\n        campaignSpendRemaining[campaign] -= amount;\n        integratorRevenueUncollected[integrator] += amount;\n        if (integratorRevenueBySource[integrator][campaign] > 0) {\n            integratorRevenueBySource[integrator][campaign] += amount;\n        } else {\n            integratorRevenueBySource[integrator][campaign] += amount;\n            integratorSourceCount[integrator] += 1;\n            integratorRevenueSources[integrator][integratorSourceCount[integrator]] = campaign;\n        }\n        return campaignSpendRemaining[campaign];\n    }\n\n    /// @notice Retrieves the available ad spend for a campaign, not including pending spend.\n    /// @return The available ad spend.\n    function getAvailableAdSpend() external view returns (uint) {\n        return (campaignSpendRemaining[msg.sender] - campaignSpendPending[msg.sender]);\n    }\n\n    /// @notice Retrieves the cumulative revenue for an integrator.\n    /// @return The cumulative revenue.\n    function cumulativeIntegratorRevenue() public view returns (uint) {\n        return integratorRevenueUncollected[msg.sender] + integratorRevenueWithdrawn[msg.sender];\n    }\n\n    /// @notice Retrieves the uncollected revenue for an integrator.\n    /// @return The uncollected revenue.\n    function integratorRevenueUncollectedForUser() public view returns (uint) {\n        return integratorRevenueUncollected[msg.sender];\n    }\n}\n",
  "sourcePath": "/home/michael/Documents/billboard/protocol-truffle/contracts/Treasury.sol",
  "compiler": {
    "name": "solc",
    "version": "0.8.9+commit.e5eed63a.Emscripten.clang"
  },
  "schemaVersion": "3.4.15",
  "updatedAt": "2023-08-10T13:23:45.282Z",
  "devdoc": {
    "author": "Michael Manzano",
    "kind": "dev",
    "methods": {
      "campaignWithdraw(uint256)": {
        "params": {
          "amount": "The amount to withdraw."
        }
      },
      "constructor": {
        "params": {
          "tokenAddress": "The address of the protocol token."
        }
      },
      "cumulativeIntegratorRevenue()": {
        "returns": {
          "_0": "The cumulative revenue."
        }
      },
      "depositSpend(uint256,address)": {
        "params": {
          "amount": "The amount to be deposited.",
          "initiator": "The address initiating the deposit."
        }
      },
      "getAvailableAdSpend()": {
        "returns": {
          "_0": "The available ad spend."
        }
      },
      "integratorRevenueUncollectedForUser()": {
        "returns": {
          "_0": "The uncollected revenue."
        }
      },
      "integratorWithdraw(uint256)": {
        "params": {
          "amount": "The amount to withdraw."
        }
      },
      "newPendingSpend(uint256,address)": {
        "details": "A pending spend occurs when an ad is queued but has not been displayed yetPending spend is held in escrow. Neither the campaign nor the integrator can withdraw it",
        "params": {
          "amount": "The amount to be allocated as pending.",
          "campaign": "The address of the campaign."
        },
        "returns": {
          "_0": "The new pending balance for the campaign."
        }
      },
      "setCampaignWithdrawAddress(address,address)": {
        "params": {
          "campaignAddress": "The address of the campaign.",
          "withdrawAddress": "The address to receive withdrawals."
        }
      },
      "setIntegratorWithdrawAddress(address,address)": {
        "params": {
          "integratorAddress": "The address of the integrator.",
          "withdrawAddress": "The address to receive withdrawals."
        }
      },
      "spendCompleted(uint256,address,address)": {
        "details": "Reallocate pending funds held in escrow to available for withdraw by the integrator",
        "params": {
          "amount": "The completed spend amount.",
          "campaign": "The address of the campaign.",
          "integrator": "The address of the integrator."
        },
        "returns": {
          "_0": "The new actual balance for the campaign."
        }
      }
    },
    "title": "Treasury",
    "version": 1
  },
  "userdoc": {
    "kind": "user",
    "methods": {
      "campaignWithdraw(uint256)": {
        "notice": "Executes a campaign funding withdraw, transfering tokens to the assigned campaign withdraw address."
      },
      "constructor": {
        "notice": "Initializes the Treasury for the Billboard protocol"
      },
      "cumulativeIntegratorRevenue()": {
        "notice": "Retrieves the cumulative revenue for an integrator."
      },
      "depositSpend(uint256,address)": {
        "notice": "Deposits a certain amount to the Treasury for a campaign."
      },
      "getAvailableAdSpend()": {
        "notice": "Retrieves the available ad spend for a campaign, not including pending spend."
      },
      "integratorRevenueUncollectedForUser()": {
        "notice": "Retrieves the uncollected revenue for an integrator."
      },
      "integratorWithdraw(uint256)": {
        "notice": "Allows an integrator to withdraw funds."
      },
      "newPendingSpend(uint256,address)": {
        "notice": "Registers a pending spend amount for a campaign."
      },
      "setCampaignWithdrawAddress(address,address)": {
        "notice": "Sets the withdrawal address for a campaign."
      },
      "setIntegratorWithdrawAddress(address,address)": {
        "notice": "Sets the withdrawal address for an integrator."
      },
      "spendCompleted(uint256,address,address)": {
        "notice": "Marks the completion of a spend for an integrator."
      }
    },
    "notice": "This contract is for handling protocol level revenues",
    "version": 1
  }
}